{
  "contractName": "Lottery",
  "abi": [
    {
      "inputs": [],
      "stateMutability": "nonpayable",
      "type": "constructor"
    },
    {
      "anonymous": false,
      "inputs": [
        {
          "indexed": true,
          "internalType": "address",
          "name": "user",
          "type": "address"
        },
        {
          "indexed": false,
          "internalType": "uint256",
          "name": "tokenId",
          "type": "uint256"
        }
      ],
      "name": "Buy",
      "type": "event"
    },
    {
      "anonymous": false,
      "inputs": [
        {
          "indexed": true,
          "internalType": "address",
          "name": "user",
          "type": "address"
        },
        {
          "indexed": false,
          "internalType": "uint256",
          "name": "tokenid",
          "type": "uint256"
        },
        {
          "indexed": false,
          "internalType": "uint256",
          "name": "amount",
          "type": "uint256"
        }
      ],
      "name": "Claim",
      "type": "event"
    },
    {
      "anonymous": false,
      "inputs": [
        {
          "indexed": true,
          "internalType": "address",
          "name": "user",
          "type": "address"
        },
        {
          "indexed": false,
          "internalType": "uint256",
          "name": "amount",
          "type": "uint256"
        }
      ],
      "name": "DevWithdraw",
      "type": "event"
    },
    {
      "anonymous": false,
      "inputs": [
        {
          "indexed": true,
          "internalType": "uint256",
          "name": "issueIndex",
          "type": "uint256"
        },
        {
          "indexed": false,
          "internalType": "uint8[4]",
          "name": "winningNumbers",
          "type": "uint8[4]"
        }
      ],
      "name": "Drawing",
      "type": "event"
    },
    {
      "anonymous": false,
      "inputs": [
        {
          "indexed": true,
          "internalType": "address",
          "name": "user",
          "type": "address"
        },
        {
          "indexed": false,
          "internalType": "uint256",
          "name": "amount",
          "type": "uint256"
        }
      ],
      "name": "MultiBuy",
      "type": "event"
    },
    {
      "anonymous": false,
      "inputs": [
        {
          "indexed": true,
          "internalType": "address",
          "name": "user",
          "type": "address"
        },
        {
          "indexed": false,
          "internalType": "uint256",
          "name": "amount",
          "type": "uint256"
        }
      ],
      "name": "MultiClaim",
      "type": "event"
    },
    {
      "anonymous": false,
      "inputs": [
        {
          "indexed": true,
          "internalType": "address",
          "name": "previousOwner",
          "type": "address"
        },
        {
          "indexed": true,
          "internalType": "address",
          "name": "newOwner",
          "type": "address"
        }
      ],
      "name": "OwnershipTransferred",
      "type": "event"
    },
    {
      "anonymous": false,
      "inputs": [
        {
          "indexed": true,
          "internalType": "uint256",
          "name": "issueIndex",
          "type": "uint256"
        }
      ],
      "name": "Reset",
      "type": "event"
    },
    {
      "anonymous": false,
      "inputs": [
        {
          "indexed": true,
          "internalType": "address",
          "name": "user",
          "type": "address"
        },
        {
          "indexed": true,
          "internalType": "address",
          "name": "admin",
          "type": "address"
        }
      ],
      "name": "SetAdmin",
      "type": "event"
    },
    {
      "anonymous": false,
      "inputs": [
        {
          "indexed": true,
          "internalType": "address",
          "name": "user",
          "type": "address"
        },
        {
          "indexed": false,
          "internalType": "uint8",
          "name": "allocation1",
          "type": "uint8"
        },
        {
          "indexed": false,
          "internalType": "uint8",
          "name": "allocation2",
          "type": "uint8"
        },
        {
          "indexed": false,
          "internalType": "uint8",
          "name": "allocation3",
          "type": "uint8"
        }
      ],
      "name": "SetAllocation",
      "type": "event"
    },
    {
      "anonymous": false,
      "inputs": [
        {
          "indexed": true,
          "internalType": "address",
          "name": "user",
          "type": "address"
        },
        {
          "indexed": false,
          "internalType": "uint256",
          "name": "number",
          "type": "uint256"
        }
      ],
      "name": "SetMaxNumber",
      "type": "event"
    },
    {
      "anonymous": false,
      "inputs": [
        {
          "indexed": true,
          "internalType": "address",
          "name": "user",
          "type": "address"
        },
        {
          "indexed": false,
          "internalType": "uint256",
          "name": "price",
          "type": "uint256"
        }
      ],
      "name": "SetMinPrice",
      "type": "event"
    },
    {
      "inputs": [],
      "name": "adminAddress",
      "outputs": [
        {
          "internalType": "address",
          "name": "",
          "type": "address"
        }
      ],
      "stateMutability": "view",
      "type": "function"
    },
    {
      "inputs": [
        {
          "internalType": "uint256",
          "name": "",
          "type": "uint256"
        }
      ],
      "name": "allocation",
      "outputs": [
        {
          "internalType": "uint8",
          "name": "",
          "type": "uint8"
        }
      ],
      "stateMutability": "view",
      "type": "function"
    },
    {
      "inputs": [],
      "name": "drawingPhase",
      "outputs": [
        {
          "internalType": "bool",
          "name": "",
          "type": "bool"
        }
      ],
      "stateMutability": "view",
      "type": "function"
    },
    {
      "inputs": [],
      "name": "egg",
      "outputs": [
        {
          "internalType": "contract IBEP20",
          "name": "",
          "type": "address"
        }
      ],
      "stateMutability": "view",
      "type": "function"
    },
    {
      "inputs": [
        {
          "internalType": "uint256",
          "name": "",
          "type": "uint256"
        },
        {
          "internalType": "uint256",
          "name": "",
          "type": "uint256"
        }
      ],
      "name": "historyAmount",
      "outputs": [
        {
          "internalType": "uint256",
          "name": "",
          "type": "uint256"
        }
      ],
      "stateMutability": "view",
      "type": "function"
    },
    {
      "inputs": [
        {
          "internalType": "uint256",
          "name": "",
          "type": "uint256"
        },
        {
          "internalType": "uint256",
          "name": "",
          "type": "uint256"
        }
      ],
      "name": "historyNumbers",
      "outputs": [
        {
          "internalType": "uint8",
          "name": "",
          "type": "uint8"
        }
      ],
      "stateMutability": "view",
      "type": "function"
    },
    {
      "inputs": [],
      "name": "issueIndex",
      "outputs": [
        {
          "internalType": "uint256",
          "name": "",
          "type": "uint256"
        }
      ],
      "stateMutability": "view",
      "type": "function"
    },
    {
      "inputs": [],
      "name": "lastTimestamp",
      "outputs": [
        {
          "internalType": "uint256",
          "name": "",
          "type": "uint256"
        }
      ],
      "stateMutability": "view",
      "type": "function"
    },
    {
      "inputs": [
        {
          "internalType": "uint256",
          "name": "",
          "type": "uint256"
        },
        {
          "internalType": "uint256",
          "name": "",
          "type": "uint256"
        }
      ],
      "name": "lotteryInfo",
      "outputs": [
        {
          "internalType": "uint256",
          "name": "",
          "type": "uint256"
        }
      ],
      "stateMutability": "view",
      "type": "function"
    },
    {
      "inputs": [],
      "name": "lotteryNFT",
      "outputs": [
        {
          "internalType": "contract LotteryNFT",
          "name": "",
          "type": "address"
        }
      ],
      "stateMutability": "view",
      "type": "function"
    },
    {
      "inputs": [],
      "name": "maxNumber",
      "outputs": [
        {
          "internalType": "uint8",
          "name": "",
          "type": "uint8"
        }
      ],
      "stateMutability": "view",
      "type": "function"
    },
    {
      "inputs": [],
      "name": "minPrice",
      "outputs": [
        {
          "internalType": "uint256",
          "name": "",
          "type": "uint256"
        }
      ],
      "stateMutability": "view",
      "type": "function"
    },
    {
      "inputs": [],
      "name": "owner",
      "outputs": [
        {
          "internalType": "address",
          "name": "",
          "type": "address"
        }
      ],
      "stateMutability": "view",
      "type": "function"
    },
    {
      "inputs": [],
      "name": "renounceOwnership",
      "outputs": [],
      "stateMutability": "nonpayable",
      "type": "function"
    },
    {
      "inputs": [],
      "name": "totalAddresses",
      "outputs": [
        {
          "internalType": "uint256",
          "name": "",
          "type": "uint256"
        }
      ],
      "stateMutability": "view",
      "type": "function"
    },
    {
      "inputs": [],
      "name": "totalAmount",
      "outputs": [
        {
          "internalType": "uint256",
          "name": "",
          "type": "uint256"
        }
      ],
      "stateMutability": "view",
      "type": "function"
    },
    {
      "inputs": [
        {
          "internalType": "address",
          "name": "newOwner",
          "type": "address"
        }
      ],
      "name": "transferOwnership",
      "outputs": [],
      "stateMutability": "nonpayable",
      "type": "function"
    },
    {
      "inputs": [
        {
          "internalType": "uint256",
          "name": "",
          "type": "uint256"
        },
        {
          "internalType": "uint64",
          "name": "",
          "type": "uint64"
        }
      ],
      "name": "userBuyAmountSum",
      "outputs": [
        {
          "internalType": "uint256",
          "name": "",
          "type": "uint256"
        }
      ],
      "stateMutability": "view",
      "type": "function"
    },
    {
      "inputs": [
        {
          "internalType": "address",
          "name": "",
          "type": "address"
        },
        {
          "internalType": "uint256",
          "name": "",
          "type": "uint256"
        }
      ],
      "name": "userInfo",
      "outputs": [
        {
          "internalType": "uint256",
          "name": "",
          "type": "uint256"
        }
      ],
      "stateMutability": "view",
      "type": "function"
    },
    {
      "inputs": [
        {
          "internalType": "uint256",
          "name": "",
          "type": "uint256"
        }
      ],
      "name": "winningNumbers",
      "outputs": [
        {
          "internalType": "uint8",
          "name": "",
          "type": "uint8"
        }
      ],
      "stateMutability": "view",
      "type": "function"
    },
    {
      "inputs": [
        {
          "internalType": "contract IBEP20",
          "name": "_egg",
          "type": "address"
        },
        {
          "internalType": "contract LotteryNFT",
          "name": "_lottery",
          "type": "address"
        },
        {
          "internalType": "uint256",
          "name": "_minPrice",
          "type": "uint256"
        },
        {
          "internalType": "uint8",
          "name": "_maxNumber",
          "type": "uint8"
        },
        {
          "internalType": "address",
          "name": "_adminAddress",
          "type": "address"
        }
      ],
      "name": "initialize",
      "outputs": [],
      "stateMutability": "nonpayable",
      "type": "function"
    },
    {
      "inputs": [],
      "name": "drawed",
      "outputs": [
        {
          "internalType": "bool",
          "name": "",
          "type": "bool"
        }
      ],
      "stateMutability": "view",
      "type": "function"
    },
    {
      "inputs": [],
      "name": "reset",
      "outputs": [],
      "stateMutability": "nonpayable",
      "type": "function"
    },
    {
      "inputs": [],
      "name": "enterDrawingPhase",
      "outputs": [],
      "stateMutability": "nonpayable",
      "type": "function"
    },
    {
      "inputs": [
        {
          "internalType": "uint256",
          "name": "_externalRandomNumber",
          "type": "uint256"
        }
      ],
      "name": "drawing",
      "outputs": [],
      "stateMutability": "nonpayable",
      "type": "function"
    },
    {
      "inputs": [
        {
          "internalType": "uint256",
          "name": "_price",
          "type": "uint256"
        },
        {
          "internalType": "uint8[4]",
          "name": "_numbers",
          "type": "uint8[4]"
        }
      ],
      "name": "buy",
      "outputs": [],
      "stateMutability": "nonpayable",
      "type": "function"
    },
    {
      "inputs": [
        {
          "internalType": "uint256",
          "name": "_price",
          "type": "uint256"
        },
        {
          "internalType": "uint8[4][]",
          "name": "_numbers",
          "type": "uint8[4][]"
        }
      ],
      "name": "multiBuy",
      "outputs": [],
      "stateMutability": "nonpayable",
      "type": "function"
    },
    {
      "inputs": [
        {
          "internalType": "uint256",
          "name": "_tokenId",
          "type": "uint256"
        }
      ],
      "name": "claimReward",
      "outputs": [],
      "stateMutability": "nonpayable",
      "type": "function"
    },
    {
      "inputs": [
        {
          "internalType": "uint256[]",
          "name": "_tickets",
          "type": "uint256[]"
        }
      ],
      "name": "multiClaim",
      "outputs": [],
      "stateMutability": "nonpayable",
      "type": "function"
    },
    {
      "inputs": [
        {
          "internalType": "uint8[4]",
          "name": "number",
          "type": "uint8[4]"
        }
      ],
      "name": "generateCombinations",
      "outputs": [
        {
          "internalType": "uint32[11]",
          "name": "",
          "type": "uint32[11]"
        }
      ],
      "stateMutability": "pure",
      "type": "function"
    },
    {
      "inputs": [
        {
          "internalType": "uint256",
          "name": "_issueIndex",
          "type": "uint256"
        },
        {
          "internalType": "uint256",
          "name": "_matchingNumber",
          "type": "uint256"
        }
      ],
      "name": "getMatchingRewardAmount",
      "outputs": [
        {
          "internalType": "uint256",
          "name": "",
          "type": "uint256"
        }
      ],
      "stateMutability": "view",
      "type": "function"
    },
    {
      "inputs": [
        {
          "internalType": "uint256",
          "name": "_issueIndex",
          "type": "uint256"
        }
      ],
      "name": "getTotalRewards",
      "outputs": [
        {
          "internalType": "uint256",
          "name": "",
          "type": "uint256"
        }
      ],
      "stateMutability": "view",
      "type": "function"
    },
    {
      "inputs": [
        {
          "internalType": "uint256",
          "name": "_tokenId",
          "type": "uint256"
        }
      ],
      "name": "getRewardView",
      "outputs": [
        {
          "internalType": "uint256",
          "name": "",
          "type": "uint256"
        }
      ],
      "stateMutability": "view",
      "type": "function"
    },
    {
      "inputs": [
        {
          "internalType": "address",
          "name": "_adminAddress",
          "type": "address"
        }
      ],
      "name": "setAdmin",
      "outputs": [],
      "stateMutability": "nonpayable",
      "type": "function"
    },
    {
      "inputs": [
        {
          "internalType": "uint256",
          "name": "_amount",
          "type": "uint256"
        }
      ],
      "name": "adminWithdraw",
      "outputs": [],
      "stateMutability": "nonpayable",
      "type": "function"
    },
    {
      "inputs": [
        {
          "internalType": "uint256",
          "name": "_price",
          "type": "uint256"
        }
      ],
      "name": "setMinPrice",
      "outputs": [],
      "stateMutability": "nonpayable",
      "type": "function"
    },
    {
      "inputs": [
        {
          "internalType": "uint8",
          "name": "_maxNumber",
          "type": "uint8"
        }
      ],
      "name": "setMaxNumber",
      "outputs": [],
      "stateMutability": "nonpayable",
      "type": "function"
    },
    {
      "inputs": [
        {
          "internalType": "uint8",
          "name": "_allcation1",
          "type": "uint8"
        },
        {
          "internalType": "uint8",
          "name": "_allcation2",
          "type": "uint8"
        },
        {
          "internalType": "uint8",
          "name": "_allcation3",
          "type": "uint8"
        }
      ],
      "name": "setAllocation",
      "outputs": [],
      "stateMutability": "nonpayable",
      "type": "function"
    }
  ],
  "bytecode": "0x6000606f81905560708190556071819055610100604052608081815260a082905260c082905260e0919091526200003b90607590600462000050565b503480156200004957600080fd5b5062000105565b600183019183908215620000d85791602002820160005b83821115620000a757835183826101000a81548160ff021916908360ff160217905550926020019260010160208160000104928301926001030262000067565b8015620000d65782816101000a81549060ff0219169055600101602081600001049283019260010302620000a7565b505b50620000e6929150620000ea565b5090565b5b80821115620000e657805460ff19168155600101620000eb565b61346f80620001156000396000f3fe608060405234801561001057600080fd5b50600436106102325760003560e01c8063704b6c0211610130578063cfad5277116100b8578063e13454161161007c578063e1345416146107d8578063e45be8eb146107e0578063e8adfbc7146107e8578063f2fde38b146107f0578063fc6f94681461081657610232565b8063cfad527714610741578063d1f7dbcf14610749578063d411b0fa1461076c578063d826f88f14610789578063dc41825b1461079157610232565b80638da5cb5b116100ff5780638da5cb5b146106b8578063a42206c9146106dc578063ae169a50146106f9578063c06abfc714610716578063c39f49c01461071e57610232565b8063704b6c0214610650578063715018a6146106765780637c5b4a371461067e578063850bad941461069b57610232565b8063438209f5116101be57806359bcbd681161018257806359bcbd68146105b35780635c17623a146105d65780635ea8cd12146106085780636575243f146106255780636a28f8281461064857610232565b8063438209f51461042f5780634e45f0951461044b5780634ed73d2814610468578063552164ee1461050b578063569337191461052857610232565b806321ce919d1161020557806321ce919d146102b95780632bdff851146102e55780632f506b20146103c4578063324a5562146103f15780633a4f69991461041157610232565b806314c20d571461023757806319d8ac611461028f5780631a39d8ef146102a95780631ff68866146102b1575b600080fd5b61028d600480360360a081101561024d57600080fd5b604080516080818101909252833593928301929160a0830191906020840190600490839083908082843760009201919091525091945061081e9350505050565b005b61029761097f565b60408051918252519081900360200190f35b610297610985565b61028d61098b565b610297600480360360408110156102cf57600080fd5b506001600160a01b038135169060200135610a2a565b61028d600480360360408110156102fb57600080fd5b8135919081019060408101602082013564010000000081111561031d57600080fd5b82018360208201111561032f57600080fd5b8035906020019184608083028401116401000000008311171561035157600080fd5b9190808060200260200160405190810160405280939291908181526020016000905b828210156103b45760408051608081810190925290808402870190600490839083908082843760009201919091525050508152600190910190602001610373565b50939650610a5895505050505050565b610297600480360360408110156103da57600080fd5b508035906020013567ffffffffffffffff16610b92565b61028d6004803603602081101561040757600080fd5b503560ff16610baf565b610419610c53565b6040805160ff9092168252519081900360200190f35b610437610c63565b604080519115158252519081900360200190f35b6104196004803603602081101561046157600080fd5b5035610c6c565b61028d6004803603602081101561047e57600080fd5b81019060208101813564010000000081111561049957600080fd5b8201836020820111156104ab57600080fd5b803590602001918460208302840111640100000000831117156104cd57600080fd5b919080806020026020016040519081016040528093929190818152602001838360200280828437600092019190915250929550610c93945050505050565b6102976004803603602081101561052157600080fd5b5035610f67565b61057a6004803603608081101561053e57600080fd5b81019080806080019060048060200260405190810160405280929190826004602002808284376000920191909152509194506110109350505050565b604051808261016080838360005b838110156105a0578181015183820152602001610588565b5050505090500191505060405180910390f35b610419600480360360408110156105c957600080fd5b50803590602001356110e0565b61028d600480360360608110156105ec57600080fd5b5060ff8135811691602081013582169160409091013516611116565b61028d6004803603602081101561061e57600080fd5b50356111e1565b6102976004803603604081101561063b57600080fd5b508035906020013561126c565b610297611285565b61028d6004803603602081101561066657600080fd5b50356001600160a01b031661128b565b61028d61135e565b61028d6004803603602081101561069457600080fd5b503561141c565b610419600480360360208110156106b157600080fd5b50356114b9565b6106c06114c6565b604080516001600160a01b039092168252519081900360200190f35b61028d600480360360208110156106f257600080fd5b50356114d5565b61028d6004803603602081101561070f57600080fd5b503561184b565b6106c0611a88565b6102976004803603604081101561073457600080fd5b5080359060200135611a97565b610297611ab0565b6102976004803603604081101561075f57600080fd5b5080359060200135611ab6565b6102976004803603602081101561078257600080fd5b5035611b4d565b61028d611e66565b61028d600480360360a08110156107a757600080fd5b506001600160a01b038135811691602081013582169160408201359160ff6060820135169160809091013516611fe4565b61043761212c565b610297612137565b6106c061213d565b61028d6004803603602081101561080657600080fd5b50356001600160a01b031661214c565b6106c0612261565b61082661212c565b15610872576040805162461bcd60e51b81526020600482015260176024820152766472617765642c2063616e206e6f7420627579206e6f7760481b604482015290519081900360640190fd5b60745460ff16156108ca576040805162461bcd60e51b815260206004820152601860248201527f64726177696e672c2063616e206e6f7420627579206e6f770000000000000000604482015290519081900360640190fd5b60695482101561091d576040805162461bcd60e51b81526020600482015260196024820152787072696365206d7573742061626f7665206d696e507269636560381b604482015290519081900360640190fd5b60006109298383612270565b606654909150610944906001600160a01b03163330866124d7565b60408051828152905133917fe3d4187f6ca4248660cc0ac8b8056515bac4a8132be2eca31d6d0cc170722a7e919081900360200190a2505050565b60725481565b60715481565b6068546001600160a01b031633146109d8576040805162461bcd60e51b815260206004820152600b60248201526a61646d696e3a207775743f60a81b604482015290519081900360640190fd5b6109e061212c565b15610a1b576040805162461bcd60e51b8152602060048201526006602482015265191c985dd95960d21b604482015290519081900360640190fd5b6074805460ff19166001179055565b606e6020528160005260406000208181548110610a4357fe5b90600052602060002001600091509150505481565b610a6061212c565b15610aac576040805162461bcd60e51b81526020600482015260176024820152766472617765642c2063616e206e6f7420627579206e6f7760481b604482015290519081900360640190fd5b606954821015610aff576040805162461bcd60e51b81526020600482015260196024820152787072696365206d7573742061626f7665206d696e507269636560381b604482015290519081900360640190fd5b6000805b8251811015610b3e57610b2984848381518110610b1c57fe5b6020026020010151612270565b50610b348285612537565b9150600101610b03565b50606654610b57906001600160a01b03163330846124d7565b60408051828152905133917f96c35ad1cc1743f26cb87980c38042de8082358ec6d171a7986d6e11dddfe857919081900360200190a2505050565b606d60209081526000928352604080842090915290825290205481565b6068546001600160a01b03163314610bfc576040805162461bcd60e51b815260206004820152600b60248201526a61646d696e3a207775743f60a81b604482015290519081900360640190fd5b6068805460ff8316600160a01b810260ff60a01b1990921691909117909155604080519182525133917f506d53b52bc18bc1700b98da33af73e7e3ac7eab9dc8ccdc73f311b91e17443f919081900360200190a250565b606854600160a01b900460ff1681565b60745460ff1681565b60738160048110610c7957fe5b60209182820401919006915054906101000a900460ff1681565b6000805b8251811015610e7b5760675483516001600160a01b0390911690636352211e90859084908110610cc357fe5b60200260200101516040518263ffffffff1660e01b81526004018082815260200191505060206040518083038186803b158015610cff57600080fd5b505afa158015610d13573d6000803e3d6000fd5b505050506040513d6020811015610d2957600080fd5b50516001600160a01b03163314610d78576040805162461bcd60e51b815260206004820152600e60248201526d3737ba10333937b69037bbb732b960911b604482015290519081900360640190fd5b60675483516001600160a01b03909116906336dbd2f990859084908110610d9b57fe5b60200260200101516040518263ffffffff1660e01b81526004018082815260200191505060206040518083038186803b158015610dd757600080fd5b505afa158015610deb573d6000803e3d6000fd5b505050506040513d6020811015610e0157600080fd5b505115610e3f576040805162461bcd60e51b815260206004820152600760248201526618db185a5b595960ca1b604482015290519081900360640190fd5b6000610e5d848381518110610e5057fe5b6020026020010151611b4d565b90508015610e7257610e6f8184612537565b92505b50600101610c97565b50606754604051637431035560e01b81526020600482018181528551602484015285516001600160a01b039094169363743103559387938392604490920191818601910280838360005b83811015610edd578181015183820152602001610ec5565b5050505090500192505050600060405180830381600087803b158015610f0257600080fd5b505af1158015610f16573d6000803e3d6000fd5b505050506000811115610f2d57610f2d3382612598565b60408051828152905133917f6606374655494f5c0e2d6f392656e9777afd9ac5f61527d1bcad50b7e918a03e919081900360200190a25050565b6000606f54821115610fc0576040805162461bcd60e51b815260206004820152601960248201527f5f6973737565496e646578203c3d206973737565496e64657800000000000000604482015290519081900360640190fd5b610fc861212c565b158015610fd65750606f5482145b15610fe4575060715461100b565b6000828152606c602052604081208054909190610ffd57fe5b906000526020600020015490505b919050565b6110186131fc565b606082015160408301516020840151845160ff60089390931b61ff001660109290921b62ff00001660189190911b63ff0000001601019091011661105a6131fc565b63ffffffff8216815262ffffff8216602082015263ff00ffff8216604082015263ffff00ff8216606082015263ffffff008216608082015261ffff821660a082015262ff00ff821660c082015262ffff00821660e082015263ff0000ff821661010082015263ff00ff00821661012082015263ffff000090911661014082015292915050565b606a60205281600052604060002081600481106110f957fe5b602081049091015460ff601f9092166101000a9004169150829050565b6068546001600160a01b03163314611163576040805162461bcd60e51b815260206004820152600b60248201526a61646d696e3a207775743f60a81b604482015290519081900360640190fd5b6040805160608101825260ff8086168252848116602083015283169181019190915261119390606590600361321b565b506040805160ff80861682528085166020830152831681830152905133917f084866ac1c2208396290fe35a38f78993aa38fa5f458ad832d768e4ac6d18fa3919081900360600190a2505050565b6068546001600160a01b0316331461122e576040805162461bcd60e51b815260206004820152600b60248201526a61646d696e3a207775743f60a81b604482015290519081900360640190fd5b606981905560408051828152905133917f84cb1bb9f2cf0bbe5de6714c4b085e5ace133558133f8ea973b7b3177996ce81919081900360200190a250565b606b6020528160005260406000208181548110610a4357fe5b606f5481565b611293612729565b6001600160a01b03166112a46114c6565b6001600160a01b0316146112ff576040805162461bcd60e51b815260206004820181905260248201527f4f776e61626c653a2063616c6c6572206973206e6f7420746865206f776e6572604482015290519081900360640190fd5b6001600160a01b03811661131257600080fd5b606880546001600160a01b0319166001600160a01b03831690811790915560405133907f848ac24ab84501710d6631faab117b66b79aba7ec6f7778cf3bcff428c1a4efc90600090a350565b611366612729565b6001600160a01b03166113776114c6565b6001600160a01b0316146113d2576040805162461bcd60e51b815260206004820181905260248201527f4f776e61626c653a2063616c6c6572206973206e6f7420746865206f776e6572604482015290519081900360640190fd5b6033546040516000916001600160a01b0316907f8be0079c531659141344cd1fd0a4f28419497f9722a3daafe3b4186f6b6457e0908390a3603380546001600160a01b0319169055565b6068546001600160a01b03163314611469576040805162461bcd60e51b815260206004820152600b60248201526a61646d696e3a207775743f60a81b604482015290519081900360640190fd5b606654611480906001600160a01b0316338361272d565b60408051828152905133917f050d1c64cc22ce461b9bc14f6b73852566da02b03c155242bc63169d1fec42aa919081900360200190a250565b60658160038110610c7957fe5b6033546001600160a01b031690565b6068546001600160a01b03163314611522576040805162461bcd60e51b815260206004820152600b60248201526a61646d696e3a207775743f60a81b604482015290519081900360640190fd5b61152a61212c565b15611565576040805162461bcd60e51b815260206004820152600660248201526572657365743f60d01b604482015290519081900360640190fd5b60745460ff166115bc576040805162461bcd60e51b815260206004820152601960248201527f656e7465722064726177696e6720706861736520666972737400000000000000604482015290519081900360640190fd5b6068546000908190600160a01b900460ff16436000190140825b600a8110156115f3576115ea606f54610f67565b506001016115d6565b5060005a607054604080516020808201879052818301939093526060810184905260808082018b90528251808303909101815260a0820183528051908401206073805460715460c085018a905260e08501526101008085018890526101208086018f905286518087039091018152610140860187528051908801208b9006600190810160ff90811690920261ff001960ff19909416958d90068201909216949094179190911617815560725461016084018990526101808401526101a083018690526101c08084018d9052845180850390910181526101e0909301909352815191909301209750858806909101955090915084906002602091828204019190066101000a81548160ff021916908360ff1602179055508181876040516020018084815260200183815260200182815260200193505050506040516020818303038152906040528051906020012094508460001c9350600183850601935083607360036004811061175f57fe5b602091828204019190066101000a81548160ff021916908360ff1602179055506073606a6000606f5481526020019081526020016000209060046117a49291906132ae565b506117ad61277f565b606f546000908152606c602052604090206117c99160046132e1565b506074805460ff19169055606f546040517fa13e935b188993737b3009d62bd916dcbe9e82d8236d75981eeadf26a1460d3d9060739060808101826000835b825461010083900a900460ff16815260206001928301818104948501949093039092029101808411611808579050505091505060405180910390a2505050505050565b606754604080516331a9108f60e11b81526004810184905290516001600160a01b0390921691636352211e91602480820192602092909190829003018186803b15801561189757600080fd5b505afa1580156118ab573d6000803e3d6000fd5b505050506040513d60208110156118c157600080fd5b50516001600160a01b03163314611910576040805162461bcd60e51b815260206004820152600e60248201526d3737ba10333937b69037bbb732b960911b604482015290519081900360640190fd5b606754604080516336dbd2f960e01b81526004810184905290516001600160a01b03909216916336dbd2f991602480820192602092909190829003018186803b15801561195c57600080fd5b505afa158015611970573d6000803e3d6000fd5b505050506040513d602081101561198657600080fd5b5051156119c4576040805162461bcd60e51b815260206004820152600760248201526618db185a5b595960ca1b604482015290519081900360640190fd5b60006119cf82611b4d565b60675460408051630ae169a560e41b81526004810186905290519293506001600160a01b039091169163ae169a509160248082019260009290919082900301818387803b158015611a1f57600080fd5b505af1158015611a33573d6000803e3d6000fd5b505050506000811115611a4a57611a4a3382612598565b6040805183815260208101839052815133927f34fcbac0073d7c3d388e51312faf357774904998eeb8fca628b9e6f65ee1cbf7928290030190a25050565b6066546001600160a01b031681565b606c6020528160005260406000208181548110610a4357fe5b60705481565b600060028210158015611aca575060048211155b611b1b576040805162461bcd60e51b815260206004820181905260248201527f6765744d61746368696e67526577617264416d6f756e743a20494e56414c4944604482015290519081900360640190fd5b6000838152606c6020526040902080546005849003908110611b3957fe5b906000526020600020015490505b92915050565b60675460408051631bf1e00f60e01b815260048101849052905160009283926001600160a01b0390911691631bf1e00f91602480820192602092909190829003018186803b158015611b9e57600080fd5b505afa158015611bb2573d6000803e3d6000fd5b505050506040513d6020811015611bc857600080fd5b50519050611bd4613328565b60675460408051635f8e26a760e01b81526004810187905290516001600160a01b0390921691635f8e26a791602480820192608092909190829003018186803b158015611c2057600080fd5b505afa158015611c34573d6000803e3d6000fd5b505050506040513d601f19601f820116820180604052506080811015611c5957600080fd5b509050611c64613328565b6000838152606a6020526040808220815160808101928390529290916004918390855b825461010083900a900460ff16815260206001928301818104948501949093039092029101808411611c875790505050505050905080600060048110611cc957fe5b602002015160ff16611d0f576040805162461bcd60e51b815260206004820152600a6024820152691b9bdd08191c985dd95960b21b604482015290519081900360640190fd5b6000805b6004811015611d5957838160048110611d2857fe5b602002015160ff16838260048110611d3c57fe5b602002015160ff161415611d51578160010191505b600101611d13565b5060006001821115611e4c5760675460408051637bd0606560e11b8152600481018a905290516000926001600160a01b03169163f7a0c0ca916024808301926020929190829003018186803b158015611db157600080fd5b505afa158015611dc5573d6000803e3d6000fd5b505050506040513d6020811015611ddb57600080fd5b505190506000611e256064611e1f6065600488900360038110611dfa57fe5b602081049091015460ff601f9092166101000a900416611e198b610f67565b906129c9565b90612a22565b9050611e47611e348886611ab6565b611e1f83611e198664e8d4a510006129c9565b925050505b611e5b8164e8d4a51000612a22565b979650505050505050565b6068546001600160a01b03163314611eb3576040805162461bcd60e51b815260206004820152600b60248201526a61646d696e3a207775743f60a81b604482015290519081900360640190fd5b611ebb61212c565b611ef6576040805162461bcd60e51b81526020600482015260076024820152666472617765643f60c81b604482015290519081900360640190fd5b42607255600060708190556071556073805463ffffffff191690556074805460ff19169055606f805460018101909155611f31906004611ab6565b611fb657606554606f54600091611f5c91606491611e1f9160ff90911690611e199060001901610f67565b604080516080810191829052919250611fb4918391607590600490826000855b825461010083900a900460ff16815260206001928301818104948501949093039092029101808411611f7c5790505050505050612a89565b505b606f546040517f01c3cbb0d62726ab09d163873ebf9aed99dd8dc08e57bc938f458132fd178cf690600090a2565b600054610100900460ff1680611ffd5750611ffd612c85565b8061200b575060005460ff16155b6120465760405162461bcd60e51b815260040180806020018281038252602e8152602001806133eb602e913960400191505060405180910390fd5b600054610100900460ff16158015612071576000805460ff1961ff0019909116610100171660011790555b6001600160a01b03821661208457600080fd5b606680546001600160a01b03199081166001600160a01b038981169190911790925560678054821688841617905560698690556068805460ff60a01b1916600160a01b60ff881602179091169184169190911790554260725560408051606081018252603c815260146020820152600a9181019190915261210990606590600361321b565b50612112612c96565b8015612124576000805461ff00191690555b505050505050565b60735460ff16151590565b60695481565b6067546001600160a01b031681565b612154612729565b6001600160a01b03166121656114c6565b6001600160a01b0316146121c0576040805162461bcd60e51b815260206004820181905260248201527f4f776e61626c653a2063616c6c6572206973206e6f7420746865206f776e6572604482015290519081900360640190fd5b6001600160a01b0381166122055760405162461bcd60e51b815260040180806020018281038252602681526020018061339f6026913960400191505060405180910390fd5b6033546040516001600160a01b038084169216907f8be0079c531659141344cd1fd0a4f28419497f9722a3daafe3b4186f6b6457e090600090a3603380546001600160a01b0319166001600160a01b0392909216919091179055565b6068546001600160a01b031681565b6000805b60048110156122e657606854600160a01b900460ff1683826004811061229657fe5b602002015160ff1611156122de576040805162461bcd60e51b815260206004820152600a6024820152693130b210373ab6b132b960b11b604482015290519081900360640190fd5b600101612274565b50606754606f54604051620dce4760ea1b815233600482018181526000946001600160a01b0316936337391c009388928a92916024018460808083838d5b8381101561233c578181015183820152602001612324565b50505050905001838152602001828152602001945050505050602060405180830381600087803b15801561236f57600080fd5b505af1158015612383573d6000803e3d6000fd5b505050506040513d602081101561239957600080fd5b5051606f546000908152606b60209081526040808320805460018101825590845282842001849055338352606e9091529020549091506123dd576070805460010190555b336000908152606e602090815260408220805460018101825590835291200181905560715461240c9085612537565b6071554260725561241b6131fc565b61242484611010565b905060005b600b8110156124cd57606f546000908152606d60205260408120612488918891908585600b811061245657fe5b602002015163ffffffff1667ffffffffffffffff1681526020019081526020016000205461253790919063ffffffff16565b606f546000908152606d60205260408120908484600b81106124a657fe5b6020908102919091015163ffffffff16825281019190915260400160002055600101612429565b5090949350505050565b604080516001600160a01b0380861660248301528416604482015260648082018490528251808303909101815260849091019091526020810180516001600160e01b03166323b872dd60e01b179052612531908590612d48565b50505050565b600082820183811015612591576040805162461bcd60e51b815260206004820152601b60248201527f536166654d6174683a206164646974696f6e206f766572666c6f770000000000604482015290519081900360640190fd5b9392505050565b606654604080516370a0823160e01b815230600482015290516000926001600160a01b0316916370a08231916024808301926020929190829003018186803b1580156125e357600080fd5b505afa1580156125f7573d6000803e3d6000fd5b505050506040513d602081101561260d57600080fd5b50519050808211156126a1576066546040805163a9059cbb60e01b81526001600160a01b038681166004830152602482018590529151919092169163a9059cbb9160448083019260209291908290030181600087803b15801561266f57600080fd5b505af1158015612683573d6000803e3d6000fd5b505050506040513d602081101561269957600080fd5b506127249050565b6066546040805163a9059cbb60e01b81526001600160a01b038681166004830152602482018690529151919092169163a9059cbb9160448083019260209291908290030181600087803b1580156126f757600080fd5b505af115801561270b573d6000803e3d6000fd5b505050506040513d602081101561272157600080fd5b50505b505050565b3390565b604080516001600160a01b038416602482015260448082018490528251808303909101815260649091019091526020810180516001600160e01b031663a9059cbb60e01b179052612724908490612d48565b612787613328565b61278f6131fc565b6040805160808101918290526127e291607390600490826000855b825461010083900a900460ff168152602060019283018181049485019490930390920291018084116127aa5790505050505050611010565b606f546000818152606d60208181526040808420865163ffffffff9081168652818452828620548787528585528885015190911686528184529185205495855292909152939450612864918560025b602002015163ffffffff1667ffffffffffffffff168152602001908152602001600020548261253790919063ffffffff16565b606f546000908152606d602052604081209192506128859190856003612831565b606f546000908152606d602052604081209192506128a69190856004612831565b90506128bd6128b68360046129c9565b8290612df9565b606f546000818152606d6020818152604080842060a08a015163ffffffff1685528083529084205494845291905292935090916128fc91866006612831565b606f546000908152606d6020526040812091925061291d9190866007612831565b606f546000908152606d6020526040812091925061293e9190866008612831565b606f546000908152606d6020526040812091925061295f9190866009612831565b606f546000908152606d60205260408120919250612980919086600a612831565b90506129906128b68360036129c9565b90506129a06128b68460066129c9565b604080516080810182526071548152602081019590955284019290925250606082015291505090565b6000826129d857506000611b47565b828202828482816129e557fe5b04146125915760405162461bcd60e51b81526004018080602001828103825260218152602001806134196021913960400191505060405180910390fd5b6000808211612a78576040805162461bcd60e51b815260206004820152601a60248201527f536166654d6174683a206469766973696f6e206279207a65726f000000000000604482015290519081900360640190fd5b818381612a8157fe5b049392505050565b612a9161212c565b15612add576040805162461bcd60e51b81526020600482015260176024820152766472617765642c2063616e206e6f7420627579206e6f7760481b604482015290519081900360640190fd5b60005b6004811015612b5a57606854600160a01b900460ff16828260048110612b0257fe5b602002015160ff161115612b52576040805162461bcd60e51b815260206004820152601260248201527165786365656420746865206d6178696d756d60701b604482015290519081900360640190fd5b600101612ae0565b50606754606f54604051620dce4760ea1b815230600482018181526000946001600160a01b0316936337391c009387928992916024018460808083838d5b83811015612bb0578181015183820152602001612b98565b50505050905001838152602001828152602001945050505050602060405180830381600087803b158015612be357600080fd5b505af1158015612bf7573d6000803e3d6000fd5b505050506040513d6020811015612c0d57600080fd5b5051606f546000908152606b6020908152604082208054600181018255908352912001819055607154909150612c439084612537565b6071554260725560408051828152905130917fe3d4187f6ca4248660cc0ac8b8056515bac4a8132be2eca31d6d0cc170722a7e919081900360200190a2505050565b6000612c9030612e56565b15905090565b600054610100900460ff1680612caf5750612caf612c85565b80612cbd575060005460ff16155b612cf85760405162461bcd60e51b815260040180806020018281038252602e8152602001806133eb602e913960400191505060405180910390fd5b600054610100900460ff16158015612d23576000805460ff1961ff0019909116610100171660011790555b612d2b612e5c565b612d33612efc565b8015612d45576000805461ff00191690555b50565b6060612d9d826040518060400160405280602081526020017f5361666542455032303a206c6f772d6c6576656c2063616c6c206661696c6564815250856001600160a01b0316612ff59092919063ffffffff16565b80519091501561272457808060200190516020811015612dbc57600080fd5b50516127245760405162461bcd60e51b815260040180806020018281038252602a815260200180613375602a913960400191505060405180910390fd5b600082821115612e50576040805162461bcd60e51b815260206004820152601e60248201527f536166654d6174683a207375627472616374696f6e206f766572666c6f770000604482015290519081900360640190fd5b50900390565b3b151590565b600054610100900460ff1680612e755750612e75612c85565b80612e83575060005460ff16155b612ebe5760405162461bcd60e51b815260040180806020018281038252602e8152602001806133eb602e913960400191505060405180910390fd5b600054610100900460ff16158015612d33576000805460ff1961ff0019909116610100171660011790558015612d45576000805461ff001916905550565b600054610100900460ff1680612f155750612f15612c85565b80612f23575060005460ff16155b612f5e5760405162461bcd60e51b815260040180806020018281038252602e8152602001806133eb602e913960400191505060405180910390fd5b600054610100900460ff16158015612f89576000805460ff1961ff0019909116610100171660011790555b6000612f93612729565b603380546001600160a01b0319166001600160a01b038316908117909155604051919250906000907f8be0079c531659141344cd1fd0a4f28419497f9722a3daafe3b4186f6b6457e0908290a3508015612d45576000805461ff001916905550565b6060613004848460008561300c565b949350505050565b60608247101561304d5760405162461bcd60e51b81526004018080602001828103825260268152602001806133c56026913960400191505060405180910390fd5b61305685612e56565b6130a7576040805162461bcd60e51b815260206004820152601d60248201527f416464726573733a2063616c6c20746f206e6f6e2d636f6e7472616374000000604482015290519081900360640190fd5b60006060866001600160a01b031685876040518082805190602001908083835b602083106130e65780518252601f1990920191602091820191016130c7565b6001836020036101000a03801982511681845116808217855250505050505090500191505060006040518083038185875af1925050503d8060008114613148576040519150601f19603f3d011682016040523d82523d6000602084013e61314d565b606091505b5091509150611e5b82828660608315613167575081612591565b8251156131775782518084602001fd5b8160405162461bcd60e51b81526004018080602001828103825283818151815260200191508051906020019080838360005b838110156131c15781810151838201526020016131a9565b50505050905090810190601f1680156131ee5780820380516001836020036101000a031916815260200191505b509250505060405180910390fd5b604051806101600160405280600b906020820280368337509192915050565b60018301918390821561329e5791602002820160005b8382111561326f57835183826101000a81548160ff021916908360ff1602179055509260200192600101602081600001049283019260010302613231565b801561329c5782816101000a81549060ff021916905560010160208160000104928301926001030261326f565b505b506132aa929150613346565b5090565b60018301918390821561329e5791601f016020900482015b8281111561329e5782548255916001019190600101906132c6565b82805482825590600052602060002090810192821561331c579160200282015b8281111561331c578251825591602001919060010190613301565b506132aa92915061335f565b60405180608001604052806004906020820280368337509192915050565b5b808211156132aa57805460ff19168155600101613347565b5b808211156132aa576000815560010161336056fe5361666542455032303a204245503230206f7065726174696f6e20646964206e6f7420737563636565644f776e61626c653a206e6577206f776e657220697320746865207a65726f2061646472657373416464726573733a20696e73756666696369656e742062616c616e636520666f722063616c6c496e697469616c697a61626c653a20636f6e747261637420697320616c726561647920696e697469616c697a6564536166654d6174683a206d756c7469706c69636174696f6e206f766572666c6f77a2646970667358221220a2ade1389062a4078eb03d9308b64ab60e7c720c4cb15d1279d3187fc737878264736f6c634300060c0033",
  "immutableReferences": {},
  "source": "// SPDX-License-Identifier: MIT\n\npragma solidity 0.6.12;\n\nimport \"./LotteryNFT.sol\";\nimport \"../libs/IBEP20.sol\";\nimport \"../libs/SafeBEP20.sol\";\nimport \"@openzeppelin/contracts/math/SafeMath.sol\";\nimport \"@openzeppelin/contracts-upgradeable/access/OwnableUpgradeable.sol\";\n\n// 4 numbers\ncontract Lottery is OwnableUpgradeable {\n    using SafeMath for uint256;\n    using SafeMath for uint8;\n    using SafeBEP20 for IBEP20;\n\n    uint8 constant winningCombinations = 11;\n    // Allocation for first/sencond/third reward\n    uint8[3] public allocation;\n    // The TOKEN to buy lottery\n    IBEP20 public egg;\n    // The Lottery NFT for tickets\n    LotteryNFT public lotteryNFT;\n    // adminAddress\n    address public adminAddress;\n    // maxNumber\n    uint8 public maxNumber;\n    // minPrice, if decimal is not 18, please reset it\n    uint256 public minPrice;\n\n    // =================================\n\n    // issueId => winningNumbers[numbers]\n    mapping (uint256 => uint8[4]) public historyNumbers;\n    // issueId => [tokenId]\n    mapping (uint256 => uint256[]) public lotteryInfo;\n    // issueId => [totalAmount, firstMatchAmount, secondMatchingAmount, thirdMatchingAmount]\n    mapping (uint256 => uint256[]) public historyAmount;\n    // issueId => trickyNumber => buyAmountSum\n    mapping (uint256 => mapping(uint64 => uint256)) public userBuyAmountSum;\n    // address => [tokenId]\n    mapping (address => uint256[]) public userInfo;\n\n    uint256 public issueIndex = 0;\n    uint256 public totalAddresses = 0;\n    uint256 public totalAmount = 0;\n    uint256 public lastTimestamp;\n\n    uint8[4] public winningNumbers;\n\n    // default false\n    bool public drawingPhase;\n\n    // =================================\n\n    event Buy(address indexed user, uint256 tokenId);\n    event Drawing(uint256 indexed issueIndex, uint8[4] winningNumbers);\n    event Claim(address indexed user, uint256 tokenid, uint256 amount);\n    event DevWithdraw(address indexed user, uint256 amount);\n    event Reset(uint256 indexed issueIndex);\n    event MultiClaim(address indexed user, uint256 amount);\n    event MultiBuy(address indexed user, uint256 amount);\n    event SetMinPrice(address indexed user, uint256 price);\n    event SetMaxNumber(address indexed user, uint256 number);\n    event SetAdmin(address indexed user, address indexed admin);\n    event SetAllocation(address indexed user, uint8 allocation1, uint8 allocation2, uint8 allocation3);\n\n    constructor() public {\n    }\n\n    function initialize(\n        IBEP20 _egg,\n        LotteryNFT _lottery,\n        uint256 _minPrice,\n        uint8 _maxNumber,\n        address _adminAddress\n    ) external initializer {\n        require(_adminAddress != address(0));\n\n        egg = _egg;\n        lotteryNFT = _lottery;\n        minPrice = _minPrice;\n        maxNumber = _maxNumber;\n        adminAddress = _adminAddress;\n        lastTimestamp = block.timestamp;\n        allocation = [60, 20, 10];\n        __Ownable_init();\n    }\n\n    uint8[4] private nullTicket = [0,0,0,0];\n\n    modifier onlyAdmin() {\n        require(msg.sender == adminAddress, \"admin: wut?\");\n        _;\n    }\n\n    function drawed() public view returns(bool) {\n        return winningNumbers[0] != 0;\n    }\n\n    function reset() external onlyAdmin {\n        require(drawed(), \"drawed?\");\n        lastTimestamp = block.timestamp;\n        totalAddresses = 0;\n        totalAmount = 0;\n        winningNumbers[0]=0;\n        winningNumbers[1]=0;\n        winningNumbers[2]=0;\n        winningNumbers[3]=0;\n        drawingPhase = false;\n        issueIndex = issueIndex +1;\n        if(getMatchingRewardAmount(issueIndex-1, 4) == 0) {\n            uint256 amount = getTotalRewards(issueIndex-1).mul(allocation[0]).div(100);\n            internalBuy(amount, nullTicket);\n        }\n        emit Reset(issueIndex);\n    }\n\n    function enterDrawingPhase() external onlyAdmin {\n        require(!drawed(), 'drawed');\n        drawingPhase = true;\n    }\n\n    // add externalRandomNumber to prevent node validators exploiting\n    function drawing(uint256 _externalRandomNumber) external onlyAdmin {\n        require(!drawed(), \"reset?\");\n        require(drawingPhase, \"enter drawing phase first\");\n        bytes32 _structHash;\n        uint256 _randomNumber;\n        uint8 _maxNumber = maxNumber;\n        bytes32 _blockhash = blockhash(block.number-1);\n\n        // waste some gas fee here\n        for (uint i = 0; i < 10; i++) {\n            getTotalRewards(issueIndex);\n        }\n        uint256 gasLeft = gasleft();\n\n        // 1\n        _structHash = keccak256(\n            abi.encode(\n                _blockhash,\n                totalAddresses,\n                gasLeft,\n                _externalRandomNumber\n            )\n        );\n        _randomNumber  = uint256(_structHash);\n        assembly {_randomNumber := add(mod(_randomNumber, _maxNumber),1)}\n        winningNumbers[0]=uint8(_randomNumber);\n\n        // 2\n        _structHash = keccak256(\n            abi.encode(\n                _blockhash,\n                totalAmount,\n                gasLeft,\n                _externalRandomNumber\n            )\n        );\n        _randomNumber  = uint256(_structHash);\n        assembly {_randomNumber := add(mod(_randomNumber, _maxNumber),1)}\n        winningNumbers[1]=uint8(_randomNumber);\n\n        // 3\n        _structHash = keccak256(\n            abi.encode(\n                _blockhash,\n                lastTimestamp,\n                gasLeft,\n                _externalRandomNumber\n            )\n        );\n        _randomNumber  = uint256(_structHash);\n        assembly {_randomNumber := add(mod(_randomNumber, _maxNumber),1)}\n        winningNumbers[2]=uint8(_randomNumber);\n\n        // 4\n        _structHash = keccak256(\n            abi.encode(\n                _blockhash,\n                gasLeft,\n                _externalRandomNumber\n            )\n        );\n        _randomNumber  = uint256(_structHash);\n        assembly {_randomNumber := add(mod(_randomNumber, _maxNumber),1)}\n        winningNumbers[3]=uint8(_randomNumber);\n        historyNumbers[issueIndex] = winningNumbers;\n        historyAmount[issueIndex] = calculateMatchingRewardAmount();\n        drawingPhase = false;\n        emit Drawing(issueIndex, winningNumbers);\n    }\n\n    function internalBuy(uint256 _price, uint8[4] memory _numbers) internal {\n        require (!drawed(), 'drawed, can not buy now');\n        for (uint i = 0; i < 4; i++) {\n            require (_numbers[i] <= maxNumber, 'exceed the maximum');\n        }\n        uint256 tokenId = lotteryNFT.newLotteryItem(address(this), _numbers, _price, issueIndex);\n        lotteryInfo[issueIndex].push(tokenId);\n        totalAmount = totalAmount.add(_price);\n        lastTimestamp = block.timestamp;\n        emit Buy(address(this), tokenId);\n\n    }\n\n    function _buySingleTicket(uint256 _price, uint8[4] memory _numbers) private returns (uint256){\n        for (uint i = 0; i < 4; i++) {\n            require (_numbers[i] <= maxNumber, 'bad number');\n        }\n        uint256 tokenId = lotteryNFT.newLotteryItem(msg.sender, _numbers, _price, issueIndex);\n        lotteryInfo[issueIndex].push(tokenId);\n        if (userInfo[msg.sender].length == 0) {\n            totalAddresses = totalAddresses + 1;\n        }\n        userInfo[msg.sender].push(tokenId);\n        totalAmount = totalAmount.add(_price);\n        lastTimestamp = block.timestamp;\n        uint32[winningCombinations] memory userCombinations = generateCombinations(_numbers);\n        for (uint i = 0; i < winningCombinations; i++) {\n            userBuyAmountSum[issueIndex][userCombinations[i]]=userBuyAmountSum[issueIndex][userCombinations[i]].add(_price);\n        }\n        return tokenId;\n    }\n\n    function buy(uint256 _price, uint8[4] memory _numbers) external {\n        require(!drawed(), 'drawed, can not buy now');\n        require(!drawingPhase, 'drawing, can not buy now');\n        require (_price >= minPrice, 'price must above minPrice');\n        uint256 tokenId = _buySingleTicket(_price, _numbers);\n        egg.safeTransferFrom(address(msg.sender), address(this), _price);\n        emit Buy(msg.sender, tokenId);\n    }\n\n    function multiBuy(uint256 _price, uint8[4][] memory _numbers) external {\n        require (!drawed(), 'drawed, can not buy now');\n        require (_price >= minPrice, 'price must above minPrice');\n        uint256 totalPrice  = 0;\n        for (uint i = 0; i < _numbers.length; i++) {\n            _buySingleTicket(_price, _numbers[i]);\n            totalPrice = totalPrice.add(_price);\n        }\n        egg.safeTransferFrom(address(msg.sender), address(this), totalPrice);\n        emit MultiBuy(msg.sender, totalPrice);\n    }\n\n    function claimReward(uint256 _tokenId) external {\n        require(msg.sender == lotteryNFT.ownerOf(_tokenId), \"not from owner\");\n        require (!lotteryNFT.getClaimStatus(_tokenId), \"claimed\");\n        uint256 reward = getRewardView(_tokenId);\n        lotteryNFT.claimReward(_tokenId);\n        if(reward>0) {\n            safeEggTransfer(address(msg.sender), reward);\n        }\n        emit Claim(msg.sender, _tokenId, reward);\n    }\n\n    function multiClaim(uint256[] memory _tickets) external {\n        uint256 totalReward = 0;\n        for (uint i = 0; i < _tickets.length; i++) {\n            require (msg.sender == lotteryNFT.ownerOf(_tickets[i]), \"not from owner\");\n            require (!lotteryNFT.getClaimStatus(_tickets[i]), \"claimed\");\n            uint256 reward = getRewardView(_tickets[i]);\n            if(reward>0) {\n                totalReward = reward.add(totalReward);\n            }\n        }\n        lotteryNFT.multiClaimReward(_tickets);\n        if(totalReward>0) {\n            safeEggTransfer(address(msg.sender), totalReward);\n        }\n        emit MultiClaim(msg.sender, totalReward);\n    }\n\n    function generateCombinations(uint8[4] memory number) public pure returns (uint32[winningCombinations] memory) {\n        uint32 packedNumber = (number[0] << 24) + (number[1] << 16) + (number[2] << 8) + number[3];\n\n        uint32[winningCombinations] memory combinations;\n\n        //Match 4\n        combinations[0] = packedNumber;\n\n        //Match 3\n        combinations[1] = packedNumber & 0x00FFFFFF;\n        combinations[2] = packedNumber & 0xFF00FFFF;\n        combinations[3] = packedNumber & 0xFFFF00FF;\n        combinations[4] = packedNumber & 0xFFFFFF00;\n\n        //Match 2\n        combinations[5] = packedNumber & 0x0000FFFF;\n        combinations[6] = packedNumber & 0x00FF00FF;\n        combinations[7] = packedNumber & 0x00FFFF00;\n        combinations[8] = packedNumber & 0xFF0000FF;\n        combinations[9] = packedNumber & 0xFF00FF00;\n        combinations[10] = packedNumber & 0xFFFF0000;\n\n        return combinations;\n    }\n\n    function calculateMatchingRewardAmount() internal view returns (uint256[4] memory) {\n        uint32[winningCombinations] memory combinations = generateCombinations(winningNumbers);\n\n        uint256 totalMatched4 = userBuyAmountSum[issueIndex][combinations[0]];\n\n        uint256 totalMatched3 = userBuyAmountSum[issueIndex][combinations[1]];\n        totalMatched3 = totalMatched3.add(userBuyAmountSum[issueIndex][combinations[2]]);\n        totalMatched3 = totalMatched3.add(userBuyAmountSum[issueIndex][combinations[3]]);\n        totalMatched3 = totalMatched3.add(userBuyAmountSum[issueIndex][combinations[4]]);\n        totalMatched3 = totalMatched3.sub(totalMatched4.mul(4)); //Remove overlaps from Matched4 users\n\n        uint256 totalMatched2 = userBuyAmountSum[issueIndex][combinations[5]];\n        totalMatched2 = totalMatched2.add(userBuyAmountSum[issueIndex][combinations[6]]);\n        totalMatched2 = totalMatched2.add(userBuyAmountSum[issueIndex][combinations[7]]);\n        totalMatched2 = totalMatched2.add(userBuyAmountSum[issueIndex][combinations[8]]);\n        totalMatched2 = totalMatched2.add(userBuyAmountSum[issueIndex][combinations[9]]);\n        totalMatched2 = totalMatched2.add(userBuyAmountSum[issueIndex][combinations[10]]);\n        totalMatched2 = totalMatched2.sub(totalMatched3.mul(3)); //Remove overlaps from Matched3 users\n        totalMatched2 = totalMatched2.sub(totalMatched4.mul(6)); //Remove overlaps from Matched4 users\n\n        return [totalAmount, totalMatched4, totalMatched3, totalMatched2];\n    }\n\n    function getMatchingRewardAmount(uint256 _issueIndex, uint256 _matchingNumber) public view returns (uint256) {\n        require(_matchingNumber >= 2 && _matchingNumber <= 4, \"getMatchingRewardAmount: INVALID\");\n        return historyAmount[_issueIndex][5 - _matchingNumber];\n    }\n\n    function getTotalRewards(uint256 _issueIndex) public view returns(uint256) {\n        require (_issueIndex <= issueIndex, '_issueIndex <= issueIndex');\n\n        if(!drawed() && _issueIndex == issueIndex) {\n            return totalAmount;\n        }\n        return historyAmount[_issueIndex][0];\n    }\n\n    function getRewardView(uint256 _tokenId) public view returns(uint256) {\n        uint256 _issueIndex = lotteryNFT.getLotteryIssueIndex(_tokenId);\n        uint8[4] memory lotteryNumbers = lotteryNFT.getLotteryNumbers(_tokenId);\n        uint8[4] memory _winningNumbers = historyNumbers[_issueIndex];\n        require(_winningNumbers[0] != 0, \"not drawed\");\n\n        uint256 matchingNumber = 0;\n        for (uint i = 0; i < lotteryNumbers.length; i++) {\n            if (_winningNumbers[i] == lotteryNumbers[i]) {\n                matchingNumber = matchingNumber + 1;\n            }\n        }\n        uint256 reward = 0;\n        if (matchingNumber > 1) {\n            uint256 amount = lotteryNFT.getLotteryAmount(_tokenId);\n            uint256 poolAmount = getTotalRewards(_issueIndex).mul(allocation[4-matchingNumber]).div(100);\n            reward = amount.mul(1e12).mul(poolAmount).div(getMatchingRewardAmount(_issueIndex, matchingNumber));\n        }\n        return reward.div(1e12);\n    }\n\n    // Safe egg transfer function, just in case if rounding error causes pool to not have enough EGGs.\n    function safeEggTransfer(address _to, uint256 _amount) internal {\n        uint256 eggBal = egg.balanceOf(address(this));\n        if (_amount > eggBal) {\n            egg.transfer(_to, eggBal);\n        } else {\n            egg.transfer(_to, _amount);\n        }\n    }\n\n    // Update admin address by the previous dev.\n    function setAdmin(address _adminAddress) external onlyOwner {\n        require(_adminAddress != address(0));\n        adminAddress = _adminAddress;\n        emit SetAdmin(msg.sender, _adminAddress);\n    }\n\n    // Withdraw without caring about rewards. EMERGENCY ONLY.\n    function adminWithdraw(uint256 _amount) external onlyAdmin {\n        egg.safeTransfer(address(msg.sender), _amount);\n        emit DevWithdraw(msg.sender, _amount);\n    }\n\n    // Set the minimum price for one ticket\n    function setMinPrice(uint256 _price) external onlyAdmin {\n        minPrice = _price;\n        emit SetMinPrice(msg.sender, _price);\n    }\n\n    // Set the max number to be drawed\n    function setMaxNumber(uint8 _maxNumber) external onlyAdmin {\n        maxNumber = _maxNumber;\n        emit SetMaxNumber(msg.sender, _maxNumber);\n    }\n\n    // Set the allocation for one reward\n    function setAllocation(uint8 _allcation1, uint8 _allcation2, uint8 _allcation3) external onlyAdmin {\n        allocation = [_allcation1, _allcation2, _allcation3];\n        emit SetAllocation(msg.sender, _allcation1, _allcation2, _allcation3);\n    }\n\n}",
  "sourcePath": "/Users/mammoz/defi/penguin/penguinsmartcontract/contracts/lottery/Lottery.sol",
  "compiler": {
    "name": "solc",
    "version": "0.6.12+commit.27d51765.Emscripten.clang"
  },
  "schemaVersion": "3.4.1",
  "updatedAt": "2021-05-29T09:41:25.164Z",
  "devdoc": {
    "kind": "dev",
    "methods": {
      "owner()": {
        "details": "Returns the address of the current owner."
      },
      "renounceOwnership()": {
        "details": "Leaves the contract without owner. It will not be possible to call `onlyOwner` functions anymore. Can only be called by the current owner. NOTE: Renouncing ownership will leave the contract without an owner, thereby removing any functionality that is only available to the owner."
      },
      "transferOwnership(address)": {
        "details": "Transfers ownership of the contract to a new account (`newOwner`). Can only be called by the current owner."
      }
    },
    "version": 1
  },
  "userdoc": {
    "kind": "user",
    "methods": {},
    "version": 1
  }
}