{
  "contractName": "Lottery",
  "abi": [
    {
      "inputs": [],
      "stateMutability": "nonpayable",
      "type": "constructor"
    },
    {
      "anonymous": false,
      "inputs": [
        {
          "indexed": true,
          "internalType": "address",
          "name": "user",
          "type": "address"
        },
        {
          "indexed": false,
          "internalType": "uint256",
          "name": "tokenId",
          "type": "uint256"
        }
      ],
      "name": "Buy",
      "type": "event"
    },
    {
      "anonymous": false,
      "inputs": [
        {
          "indexed": true,
          "internalType": "address",
          "name": "user",
          "type": "address"
        },
        {
          "indexed": false,
          "internalType": "uint256",
          "name": "tokenid",
          "type": "uint256"
        },
        {
          "indexed": false,
          "internalType": "uint256",
          "name": "amount",
          "type": "uint256"
        }
      ],
      "name": "Claim",
      "type": "event"
    },
    {
      "anonymous": false,
      "inputs": [
        {
          "indexed": true,
          "internalType": "address",
          "name": "user",
          "type": "address"
        },
        {
          "indexed": false,
          "internalType": "uint256",
          "name": "amount",
          "type": "uint256"
        }
      ],
      "name": "DevWithdraw",
      "type": "event"
    },
    {
      "anonymous": false,
      "inputs": [
        {
          "indexed": true,
          "internalType": "uint256",
          "name": "issueIndex",
          "type": "uint256"
        },
        {
          "indexed": false,
          "internalType": "uint8[4]",
          "name": "winningNumbers",
          "type": "uint8[4]"
        }
      ],
      "name": "Drawing",
      "type": "event"
    },
    {
      "anonymous": false,
      "inputs": [
        {
          "indexed": true,
          "internalType": "address",
          "name": "user",
          "type": "address"
        },
        {
          "indexed": false,
          "internalType": "uint256",
          "name": "amount",
          "type": "uint256"
        }
      ],
      "name": "MultiBuy",
      "type": "event"
    },
    {
      "anonymous": false,
      "inputs": [
        {
          "indexed": true,
          "internalType": "address",
          "name": "user",
          "type": "address"
        },
        {
          "indexed": false,
          "internalType": "uint256",
          "name": "amount",
          "type": "uint256"
        }
      ],
      "name": "MultiClaim",
      "type": "event"
    },
    {
      "anonymous": false,
      "inputs": [
        {
          "indexed": true,
          "internalType": "address",
          "name": "previousOwner",
          "type": "address"
        },
        {
          "indexed": true,
          "internalType": "address",
          "name": "newOwner",
          "type": "address"
        }
      ],
      "name": "OwnershipTransferred",
      "type": "event"
    },
    {
      "anonymous": false,
      "inputs": [
        {
          "indexed": true,
          "internalType": "uint256",
          "name": "issueIndex",
          "type": "uint256"
        }
      ],
      "name": "Reset",
      "type": "event"
    },
    {
      "anonymous": false,
      "inputs": [
        {
          "indexed": true,
          "internalType": "address",
          "name": "user",
          "type": "address"
        },
        {
          "indexed": true,
          "internalType": "address",
          "name": "admin",
          "type": "address"
        }
      ],
      "name": "SetAdmin",
      "type": "event"
    },
    {
      "anonymous": false,
      "inputs": [
        {
          "indexed": true,
          "internalType": "address",
          "name": "user",
          "type": "address"
        },
        {
          "indexed": false,
          "internalType": "uint8",
          "name": "allocation1",
          "type": "uint8"
        },
        {
          "indexed": false,
          "internalType": "uint8",
          "name": "allocation2",
          "type": "uint8"
        },
        {
          "indexed": false,
          "internalType": "uint8",
          "name": "allocation3",
          "type": "uint8"
        }
      ],
      "name": "SetAllocation",
      "type": "event"
    },
    {
      "anonymous": false,
      "inputs": [
        {
          "indexed": true,
          "internalType": "address",
          "name": "user",
          "type": "address"
        },
        {
          "indexed": false,
          "internalType": "uint256",
          "name": "number",
          "type": "uint256"
        }
      ],
      "name": "SetMaxNumber",
      "type": "event"
    },
    {
      "anonymous": false,
      "inputs": [
        {
          "indexed": true,
          "internalType": "address",
          "name": "user",
          "type": "address"
        },
        {
          "indexed": false,
          "internalType": "uint256",
          "name": "price",
          "type": "uint256"
        }
      ],
      "name": "SetMinPrice",
      "type": "event"
    },
    {
      "inputs": [],
      "name": "adminAddress",
      "outputs": [
        {
          "internalType": "address",
          "name": "",
          "type": "address"
        }
      ],
      "stateMutability": "view",
      "type": "function"
    },
    {
      "inputs": [
        {
          "internalType": "uint256",
          "name": "",
          "type": "uint256"
        }
      ],
      "name": "allocation",
      "outputs": [
        {
          "internalType": "uint8",
          "name": "",
          "type": "uint8"
        }
      ],
      "stateMutability": "view",
      "type": "function"
    },
    {
      "inputs": [],
      "name": "drawingPhase",
      "outputs": [
        {
          "internalType": "bool",
          "name": "",
          "type": "bool"
        }
      ],
      "stateMutability": "view",
      "type": "function"
    },
    {
      "inputs": [
        {
          "internalType": "uint256",
          "name": "",
          "type": "uint256"
        },
        {
          "internalType": "uint256",
          "name": "",
          "type": "uint256"
        }
      ],
      "name": "historyAmount",
      "outputs": [
        {
          "internalType": "uint256",
          "name": "",
          "type": "uint256"
        }
      ],
      "stateMutability": "view",
      "type": "function"
    },
    {
      "inputs": [
        {
          "internalType": "uint256",
          "name": "",
          "type": "uint256"
        },
        {
          "internalType": "uint256",
          "name": "",
          "type": "uint256"
        }
      ],
      "name": "historyNumbers",
      "outputs": [
        {
          "internalType": "uint8",
          "name": "",
          "type": "uint8"
        }
      ],
      "stateMutability": "view",
      "type": "function"
    },
    {
      "inputs": [],
      "name": "issueIndex",
      "outputs": [
        {
          "internalType": "uint256",
          "name": "",
          "type": "uint256"
        }
      ],
      "stateMutability": "view",
      "type": "function"
    },
    {
      "inputs": [],
      "name": "lake",
      "outputs": [
        {
          "internalType": "contract IBEP20",
          "name": "",
          "type": "address"
        }
      ],
      "stateMutability": "view",
      "type": "function"
    },
    {
      "inputs": [],
      "name": "lastTimestamp",
      "outputs": [
        {
          "internalType": "uint256",
          "name": "",
          "type": "uint256"
        }
      ],
      "stateMutability": "view",
      "type": "function"
    },
    {
      "inputs": [
        {
          "internalType": "uint256",
          "name": "",
          "type": "uint256"
        },
        {
          "internalType": "uint256",
          "name": "",
          "type": "uint256"
        }
      ],
      "name": "lotteryInfo",
      "outputs": [
        {
          "internalType": "uint256",
          "name": "",
          "type": "uint256"
        }
      ],
      "stateMutability": "view",
      "type": "function"
    },
    {
      "inputs": [],
      "name": "lotteryNFT",
      "outputs": [
        {
          "internalType": "contract LotteryNFT",
          "name": "",
          "type": "address"
        }
      ],
      "stateMutability": "view",
      "type": "function"
    },
    {
      "inputs": [],
      "name": "maxNumber",
      "outputs": [
        {
          "internalType": "uint8",
          "name": "",
          "type": "uint8"
        }
      ],
      "stateMutability": "view",
      "type": "function"
    },
    {
      "inputs": [],
      "name": "minPrice",
      "outputs": [
        {
          "internalType": "uint256",
          "name": "",
          "type": "uint256"
        }
      ],
      "stateMutability": "view",
      "type": "function"
    },
    {
      "inputs": [],
      "name": "owner",
      "outputs": [
        {
          "internalType": "address",
          "name": "",
          "type": "address"
        }
      ],
      "stateMutability": "view",
      "type": "function"
    },
    {
      "inputs": [],
      "name": "renounceOwnership",
      "outputs": [],
      "stateMutability": "nonpayable",
      "type": "function"
    },
    {
      "inputs": [],
      "name": "totalAddresses",
      "outputs": [
        {
          "internalType": "uint256",
          "name": "",
          "type": "uint256"
        }
      ],
      "stateMutability": "view",
      "type": "function"
    },
    {
      "inputs": [],
      "name": "totalAmount",
      "outputs": [
        {
          "internalType": "uint256",
          "name": "",
          "type": "uint256"
        }
      ],
      "stateMutability": "view",
      "type": "function"
    },
    {
      "inputs": [
        {
          "internalType": "address",
          "name": "newOwner",
          "type": "address"
        }
      ],
      "name": "transferOwnership",
      "outputs": [],
      "stateMutability": "nonpayable",
      "type": "function"
    },
    {
      "inputs": [
        {
          "internalType": "uint256",
          "name": "",
          "type": "uint256"
        },
        {
          "internalType": "uint64",
          "name": "",
          "type": "uint64"
        }
      ],
      "name": "userBuyAmountSum",
      "outputs": [
        {
          "internalType": "uint256",
          "name": "",
          "type": "uint256"
        }
      ],
      "stateMutability": "view",
      "type": "function"
    },
    {
      "inputs": [
        {
          "internalType": "address",
          "name": "",
          "type": "address"
        },
        {
          "internalType": "uint256",
          "name": "",
          "type": "uint256"
        }
      ],
      "name": "userInfo",
      "outputs": [
        {
          "internalType": "uint256",
          "name": "",
          "type": "uint256"
        }
      ],
      "stateMutability": "view",
      "type": "function"
    },
    {
      "inputs": [
        {
          "internalType": "uint256",
          "name": "",
          "type": "uint256"
        }
      ],
      "name": "winningNumbers",
      "outputs": [
        {
          "internalType": "uint8",
          "name": "",
          "type": "uint8"
        }
      ],
      "stateMutability": "view",
      "type": "function"
    },
    {
      "inputs": [
        {
          "internalType": "contract IBEP20",
          "name": "_lake",
          "type": "address"
        },
        {
          "internalType": "contract LotteryNFT",
          "name": "_lottery",
          "type": "address"
        },
        {
          "internalType": "uint256",
          "name": "_minPrice",
          "type": "uint256"
        },
        {
          "internalType": "uint8",
          "name": "_maxNumber",
          "type": "uint8"
        },
        {
          "internalType": "address",
          "name": "_adminAddress",
          "type": "address"
        }
      ],
      "name": "initialize",
      "outputs": [],
      "stateMutability": "nonpayable",
      "type": "function"
    },
    {
      "inputs": [],
      "name": "drawed",
      "outputs": [
        {
          "internalType": "bool",
          "name": "",
          "type": "bool"
        }
      ],
      "stateMutability": "view",
      "type": "function"
    },
    {
      "inputs": [],
      "name": "reset",
      "outputs": [],
      "stateMutability": "nonpayable",
      "type": "function"
    },
    {
      "inputs": [],
      "name": "enterDrawingPhase",
      "outputs": [],
      "stateMutability": "nonpayable",
      "type": "function"
    },
    {
      "inputs": [
        {
          "internalType": "uint256",
          "name": "_externalRandomNumber",
          "type": "uint256"
        }
      ],
      "name": "drawing",
      "outputs": [],
      "stateMutability": "nonpayable",
      "type": "function"
    },
    {
      "inputs": [
        {
          "internalType": "uint256",
          "name": "_price",
          "type": "uint256"
        },
        {
          "internalType": "uint8[4]",
          "name": "_numbers",
          "type": "uint8[4]"
        }
      ],
      "name": "buy",
      "outputs": [],
      "stateMutability": "nonpayable",
      "type": "function"
    },
    {
      "inputs": [
        {
          "internalType": "uint256",
          "name": "_price",
          "type": "uint256"
        },
        {
          "internalType": "uint8[4][]",
          "name": "_numbers",
          "type": "uint8[4][]"
        }
      ],
      "name": "multiBuy",
      "outputs": [],
      "stateMutability": "nonpayable",
      "type": "function"
    },
    {
      "inputs": [
        {
          "internalType": "uint256",
          "name": "_tokenId",
          "type": "uint256"
        }
      ],
      "name": "claimReward",
      "outputs": [],
      "stateMutability": "nonpayable",
      "type": "function"
    },
    {
      "inputs": [
        {
          "internalType": "uint256[]",
          "name": "_tickets",
          "type": "uint256[]"
        }
      ],
      "name": "multiClaim",
      "outputs": [],
      "stateMutability": "nonpayable",
      "type": "function"
    },
    {
      "inputs": [
        {
          "internalType": "uint8[4]",
          "name": "number",
          "type": "uint8[4]"
        }
      ],
      "name": "generateCombinations",
      "outputs": [
        {
          "internalType": "uint32[11]",
          "name": "",
          "type": "uint32[11]"
        }
      ],
      "stateMutability": "pure",
      "type": "function"
    },
    {
      "inputs": [
        {
          "internalType": "uint256",
          "name": "_issueIndex",
          "type": "uint256"
        },
        {
          "internalType": "uint256",
          "name": "_matchingNumber",
          "type": "uint256"
        }
      ],
      "name": "getMatchingRewardAmount",
      "outputs": [
        {
          "internalType": "uint256",
          "name": "",
          "type": "uint256"
        }
      ],
      "stateMutability": "view",
      "type": "function"
    },
    {
      "inputs": [
        {
          "internalType": "uint256",
          "name": "_issueIndex",
          "type": "uint256"
        }
      ],
      "name": "getTotalRewards",
      "outputs": [
        {
          "internalType": "uint256",
          "name": "",
          "type": "uint256"
        }
      ],
      "stateMutability": "view",
      "type": "function"
    },
    {
      "inputs": [
        {
          "internalType": "uint256",
          "name": "_tokenId",
          "type": "uint256"
        }
      ],
      "name": "getRewardView",
      "outputs": [
        {
          "internalType": "uint256",
          "name": "",
          "type": "uint256"
        }
      ],
      "stateMutability": "view",
      "type": "function"
    },
    {
      "inputs": [
        {
          "internalType": "address",
          "name": "_adminAddress",
          "type": "address"
        }
      ],
      "name": "setAdmin",
      "outputs": [],
      "stateMutability": "nonpayable",
      "type": "function"
    },
    {
      "inputs": [
        {
          "internalType": "uint256",
          "name": "_amount",
          "type": "uint256"
        }
      ],
      "name": "adminWithdraw",
      "outputs": [],
      "stateMutability": "nonpayable",
      "type": "function"
    },
    {
      "inputs": [
        {
          "internalType": "uint256",
          "name": "_price",
          "type": "uint256"
        }
      ],
      "name": "setMinPrice",
      "outputs": [],
      "stateMutability": "nonpayable",
      "type": "function"
    },
    {
      "inputs": [
        {
          "internalType": "uint8",
          "name": "_maxNumber",
          "type": "uint8"
        }
      ],
      "name": "setMaxNumber",
      "outputs": [],
      "stateMutability": "nonpayable",
      "type": "function"
    },
    {
      "inputs": [
        {
          "internalType": "uint8",
          "name": "_allcation1",
          "type": "uint8"
        },
        {
          "internalType": "uint8",
          "name": "_allcation2",
          "type": "uint8"
        },
        {
          "internalType": "uint8",
          "name": "_allcation3",
          "type": "uint8"
        }
      ],
      "name": "setAllocation",
      "outputs": [],
      "stateMutability": "nonpayable",
      "type": "function"
    }
  ],
  "bytecode": "0x6000606f81905560708190556071819055610100604052608081815260a082905260c082905260e0919091526200003b90607590600462000050565b503480156200004957600080fd5b5062000105565b600183019183908215620000d85791602002820160005b83821115620000a757835183826101000a81548160ff021916908360ff160217905550926020019260010160208160000104928301926001030262000067565b8015620000d65782816101000a81549060ff0219169055600101602081600001049283019260010302620000a7565b505b50620000e6929150620000ea565b5090565b5b80821115620000e657805460ff19168155600101620000eb565b61366980620001156000396000f3fe608060405234801561001057600080fd5b50600436106102925760003560e01c8063704b6c0211610160578063d1f7dbcf116100d8578063e13454161161008c578063e8adfbc711610071578063e8adfbc714610848578063f2fde38b14610850578063fc6f94681461087657610292565b8063e134541614610838578063e45be8eb1461084057610292565b8063d411b0fa116100bd578063d411b0fa146107cc578063d826f88f146107e9578063dc41825b146107f157610292565b8063d1f7dbcf146107a1578063d33aab3d146107c457610292565b80638da5cb5b1161012f578063ae169a5011610114578063ae169a5014610759578063c39f49c014610776578063cfad52771461079957610292565b80638da5cb5b14610718578063a42206c91461073c57610292565b8063704b6c02146106b0578063715018a6146106d65780637c5b4a37146106de578063850bad94146106fb57610292565b8063438209f51161020e57806359bcbd68116101c25780635ea8cd12116101a75780635ea8cd12146106685780636575243f146106855780636a28f828146106a857610292565b806359bcbd68146106135780635c17623a1461063657610292565b80634ed73d28116101f35780634ed73d28146104c8578063552164ee1461056b578063569337191461058857610292565b8063438209f51461048f5780634e45f095146104ab57610292565b806321ce919d116102655780632f506b201161024a5780632f506b2014610424578063324a5562146104515780633a4f69991461047157610292565b806321ce919d146103195780632bdff8511461034557610292565b806314c20d571461029757806319d8ac61146102ef5780631a39d8ef146103095780631ff6886614610311575b600080fd5b6102ed600480360360a08110156102ad57600080fd5b604080516080818101909252833593928301929160a0830191906020840190600490839083908082843760009201919091525091945061087e9350505050565b005b6102f76109e9565b60408051918252519081900360200190f35b6102f76109ef565b6102ed6109f5565b6102f76004803603604081101561032f57600080fd5b506001600160a01b038135169060200135610aab565b6102ed6004803603604081101561035b57600080fd5b8135919081019060408101602082013564010000000081111561037d57600080fd5b82018360208201111561038f57600080fd5b803590602001918460808302840111640100000000831117156103b157600080fd5b9190808060200260200160405190810160405280939291908181526020016000905b8282101561041457604080516080818101909252908084028701906004908390839080828437600092019190915250505081526001909101906020016103d3565b50939650610ad995505050505050565b6102f76004803603604081101561043a57600080fd5b508035906020013567ffffffffffffffff16610c1d565b6102ed6004803603602081101561046757600080fd5b503560ff16610c3a565b610479610cde565b6040805160ff9092168252519081900360200190f35b610497610cee565b604080519115158252519081900360200190f35b610479600480360360208110156104c157600080fd5b5035610cf7565b6102ed600480360360208110156104de57600080fd5b8101906020810181356401000000008111156104f957600080fd5b82018360208201111561050b57600080fd5b8035906020019184602083028401116401000000008311171561052d57600080fd5b919080806020026020016040519081016040528093929190818152602001838360200280828437600092019190915250929550610d1e945050505050565b6102f76004803603602081101561058157600080fd5b503561100b565b6105da6004803603608081101561059e57600080fd5b81019080806080019060048060200260405190810160405280929190826004602002808284376000920191909152509194506110b49350505050565b604051808261016080838360005b838110156106005781810151838201526020016105e8565b5050505090500191505060405180910390f35b6104796004803603604081101561062957600080fd5b5080359060200135611184565b6102ed6004803603606081101561064c57600080fd5b5060ff81358116916020810135821691604090910135166111ba565b6102ed6004803603602081101561067e57600080fd5b5035611285565b6102f76004803603604081101561069b57600080fd5b5080359060200135611310565b6102f7611329565b6102ed600480360360208110156106c657600080fd5b50356001600160a01b031661132f565b6102ed611402565b6102ed600480360360208110156106f457600080fd5b50356114c0565b6104796004803603602081101561071157600080fd5b503561155d565b61072061156a565b604080516001600160a01b039092168252519081900360200190f35b6102ed6004803603602081101561075257600080fd5b5035611579565b6102ed6004803603602081101561076f57600080fd5b5035611906565b6102f76004803603604081101561078c57600080fd5b5080359060200135611b8e565b6102f7611ba7565b6102f7600480360360408110156107b757600080fd5b5080359060200135611bad565b610720611c44565b6102f7600480360360208110156107e257600080fd5b5035611c53565b6102ed611fca565b6102ed600480360360a081101561080757600080fd5b506001600160a01b038135811691602081013582169160408201359160ff606082013516916080909101351661215e565b6104976122a6565b6102f76122b1565b6107206122b7565b6102ed6004803603602081101561086657600080fd5b50356001600160a01b03166122c6565b6107206123db565b6108866122a6565b156108d8576040805162461bcd60e51b815260206004820152601760248201527f6472617765642c2063616e206e6f7420627579206e6f77000000000000000000604482015290519081900360640190fd5b60745460ff1615610930576040805162461bcd60e51b815260206004820152601860248201527f64726177696e672c2063616e206e6f7420627579206e6f770000000000000000604482015290519081900360640190fd5b606954821015610987576040805162461bcd60e51b815260206004820152601960248201527f7072696365206d7573742061626f7665206d696e507269636500000000000000604482015290519081900360640190fd5b600061099383836123ea565b6066549091506109ae906001600160a01b0316333086612664565b60408051828152905133917fe3d4187f6ca4248660cc0ac8b8056515bac4a8132be2eca31d6d0cc170722a7e919081900360200190a2505050565b60725481565b60715481565b6068546001600160a01b03163314610a42576040805162461bcd60e51b815260206004820152600b60248201526a61646d696e3a207775743f60a81b604482015290519081900360640190fd5b610a4a6122a6565b15610a9c576040805162461bcd60e51b815260206004820152600660248201527f6472617765640000000000000000000000000000000000000000000000000000604482015290519081900360640190fd5b6074805460ff19166001179055565b606e6020528160005260406000208181548110610ac457fe5b90600052602060002001600091509150505481565b610ae16122a6565b15610b33576040805162461bcd60e51b815260206004820152601760248201527f6472617765642c2063616e206e6f7420627579206e6f77000000000000000000604482015290519081900360640190fd5b606954821015610b8a576040805162461bcd60e51b815260206004820152601960248201527f7072696365206d7573742061626f7665206d696e507269636500000000000000604482015290519081900360640190fd5b6000805b8251811015610bc957610bb484848381518110610ba757fe5b60200260200101516123ea565b50610bbf82856126f2565b9150600101610b8e565b50606654610be2906001600160a01b0316333084612664565b60408051828152905133917f96c35ad1cc1743f26cb87980c38042de8082358ec6d171a7986d6e11dddfe857919081900360200190a2505050565b606d60209081526000928352604080842090915290825290205481565b6068546001600160a01b03163314610c87576040805162461bcd60e51b815260206004820152600b60248201526a61646d696e3a207775743f60a81b604482015290519081900360640190fd5b6068805460ff8316600160a01b810260ff60a01b1990921691909117909155604080519182525133917f506d53b52bc18bc1700b98da33af73e7e3ac7eab9dc8ccdc73f311b91e17443f919081900360200190a250565b606854600160a01b900460ff1681565b60745460ff1681565b60738160048110610d0457fe5b60209182820401919006915054906101000a900460ff1681565b6000805b8251811015610f065760675483516001600160a01b0390911690636352211e90859084908110610d4e57fe5b60200260200101516040518263ffffffff1660e01b81526004018082815260200191505060206040518083038186803b158015610d8a57600080fd5b505afa158015610d9e573d6000803e3d6000fd5b505050506040513d6020811015610db457600080fd5b50516001600160a01b03163314610e03576040805162461bcd60e51b815260206004820152600e60248201526d3737ba10333937b69037bbb732b960911b604482015290519081900360640190fd5b60675483516001600160a01b03909116906336dbd2f990859084908110610e2657fe5b60200260200101516040518263ffffffff1660e01b81526004018082815260200191505060206040518083038186803b158015610e6257600080fd5b505afa158015610e76573d6000803e3d6000fd5b505050506040513d6020811015610e8c57600080fd5b505115610eca576040805162461bcd60e51b815260206004820152600760248201526618db185a5b595960ca1b604482015290519081900360640190fd5b6000610ee8848381518110610edb57fe5b6020026020010151611c53565b90508015610efd57610efa81846126f2565b92505b50600101610d22565b506067546040517f743103550000000000000000000000000000000000000000000000000000000081526020600482018181528551602484015285516001600160a01b039094169363743103559387938392604490920191818601910280838360005b83811015610f81578181015183820152602001610f69565b5050505090500192505050600060405180830381600087803b158015610fa657600080fd5b505af1158015610fba573d6000803e3d6000fd5b505050506000811115610fd157610fd13382612753565b60408051828152905133917f6606374655494f5c0e2d6f392656e9777afd9ac5f61527d1bcad50b7e918a03e919081900360200190a25050565b6000606f54821115611064576040805162461bcd60e51b815260206004820152601960248201527f5f6973737565496e646578203c3d206973737565496e64657800000000000000604482015290519081900360640190fd5b61106c6122a6565b15801561107a5750606f5482145b1561108857506071546110af565b6000828152606c6020526040812080549091906110a157fe5b906000526020600020015490505b919050565b6110bc6133f6565b606082015160408301516020840151845160ff60089390931b61ff001660109290921b62ff00001660189190911b63ff000000160101909101166110fe6133f6565b63ffffffff8216815262ffffff8216602082015263ff00ffff8216604082015263ffff00ff8216606082015263ffffff008216608082015261ffff821660a082015262ff00ff821660c082015262ffff00821660e082015263ff0000ff821661010082015263ff00ff00821661012082015263ffff000090911661014082015292915050565b606a602052816000526040600020816004811061119d57fe5b602081049091015460ff601f9092166101000a9004169150829050565b6068546001600160a01b03163314611207576040805162461bcd60e51b815260206004820152600b60248201526a61646d696e3a207775743f60a81b604482015290519081900360640190fd5b6040805160608101825260ff80861682528481166020830152831691810191909152611237906065906003613415565b506040805160ff80861682528085166020830152831681830152905133917f084866ac1c2208396290fe35a38f78993aa38fa5f458ad832d768e4ac6d18fa3919081900360600190a2505050565b6068546001600160a01b031633146112d2576040805162461bcd60e51b815260206004820152600b60248201526a61646d696e3a207775743f60a81b604482015290519081900360640190fd5b606981905560408051828152905133917f84cb1bb9f2cf0bbe5de6714c4b085e5ace133558133f8ea973b7b3177996ce81919081900360200190a250565b606b6020528160005260406000208181548110610ac457fe5b606f5481565b6113376128fd565b6001600160a01b031661134861156a565b6001600160a01b0316146113a3576040805162461bcd60e51b815260206004820181905260248201527f4f776e61626c653a2063616c6c6572206973206e6f7420746865206f776e6572604482015290519081900360640190fd5b6001600160a01b0381166113b657600080fd5b606880546001600160a01b0319166001600160a01b03831690811790915560405133907f848ac24ab84501710d6631faab117b66b79aba7ec6f7778cf3bcff428c1a4efc90600090a350565b61140a6128fd565b6001600160a01b031661141b61156a565b6001600160a01b031614611476576040805162461bcd60e51b815260206004820181905260248201527f4f776e61626c653a2063616c6c6572206973206e6f7420746865206f776e6572604482015290519081900360640190fd5b6033546040516000916001600160a01b0316907f8be0079c531659141344cd1fd0a4f28419497f9722a3daafe3b4186f6b6457e0908390a3603380546001600160a01b0319169055565b6068546001600160a01b0316331461150d576040805162461bcd60e51b815260206004820152600b60248201526a61646d696e3a207775743f60a81b604482015290519081900360640190fd5b606654611524906001600160a01b03163383612901565b60408051828152905133917f050d1c64cc22ce461b9bc14f6b73852566da02b03c155242bc63169d1fec42aa919081900360200190a250565b60658160038110610d0457fe5b6033546001600160a01b031690565b6068546001600160a01b031633146115c6576040805162461bcd60e51b815260206004820152600b60248201526a61646d696e3a207775743f60a81b604482015290519081900360640190fd5b6115ce6122a6565b15611620576040805162461bcd60e51b815260206004820152600660248201527f72657365743f0000000000000000000000000000000000000000000000000000604482015290519081900360640190fd5b60745460ff16611677576040805162461bcd60e51b815260206004820152601960248201527f656e7465722064726177696e6720706861736520666972737400000000000000604482015290519081900360640190fd5b6068546000908190600160a01b900460ff16436000190140825b600a8110156116ae576116a5606f5461100b565b50600101611691565b5060005a607054604080516020808201879052818301939093526060810184905260808082018b90528251808303909101815260a0820183528051908401206073805460715460c085018a905260e08501526101008085018890526101208086018f905286518087039091018152610140860187528051908801208b9006600190810160ff90811690920261ff001960ff19909416958d90068201909216949094179190911617815560725461016084018990526101808401526101a083018690526101c08084018d9052845180850390910181526101e0909301909352815191909301209750858806909101955090915084906002602091828204019190066101000a81548160ff021916908360ff1602179055508181876040516020018084815260200183815260200182815260200193505050506040516020818303038152906040528051906020012094508460001c9350600183850601935083607360036004811061181a57fe5b602091828204019190066101000a81548160ff021916908360ff1602179055506073606a6000606f54815260200190815260200160002090600461185f9291906134a8565b50611868612968565b606f546000908152606c602052604090206118849160046134db565b506074805460ff19169055606f546040517fa13e935b188993737b3009d62bd916dcbe9e82d8236d75981eeadf26a1460d3d9060739060808101826000835b825461010083900a900460ff168152602060019283018181049485019490930390920291018084116118c3579050505091505060405180910390a2505050505050565b606754604080517f6352211e0000000000000000000000000000000000000000000000000000000081526004810184905290516001600160a01b0390921691636352211e91602480820192602092909190829003018186803b15801561196b57600080fd5b505afa15801561197f573d6000803e3d6000fd5b505050506040513d602081101561199557600080fd5b50516001600160a01b031633146119e4576040805162461bcd60e51b815260206004820152600e60248201526d3737ba10333937b69037bbb732b960911b604482015290519081900360640190fd5b606754604080517f36dbd2f90000000000000000000000000000000000000000000000000000000081526004810184905290516001600160a01b03909216916336dbd2f991602480820192602092909190829003018186803b158015611a4957600080fd5b505afa158015611a5d573d6000803e3d6000fd5b505050506040513d6020811015611a7357600080fd5b505115611ab1576040805162461bcd60e51b815260206004820152600760248201526618db185a5b595960ca1b604482015290519081900360640190fd5b6000611abc82611c53565b606754604080517fae169a500000000000000000000000000000000000000000000000000000000081526004810186905290519293506001600160a01b039091169163ae169a509160248082019260009290919082900301818387803b158015611b2557600080fd5b505af1158015611b39573d6000803e3d6000fd5b505050506000811115611b5057611b503382612753565b6040805183815260208101839052815133927f34fcbac0073d7c3d388e51312faf357774904998eeb8fca628b9e6f65ee1cbf7928290030190a25050565b606c6020528160005260406000208181548110610ac457fe5b60705481565b600060028210158015611bc1575060048211155b611c12576040805162461bcd60e51b815260206004820181905260248201527f6765744d61746368696e67526577617264416d6f756e743a20494e56414c4944604482015290519081900360640190fd5b6000838152606c6020526040902080546005849003908110611c3057fe5b906000526020600020015490505b92915050565b6066546001600160a01b031681565b606754604080517f1bf1e00f00000000000000000000000000000000000000000000000000000000815260048101849052905160009283926001600160a01b0390911691631bf1e00f91602480820192602092909190829003018186803b158015611cbd57600080fd5b505afa158015611cd1573d6000803e3d6000fd5b505050506040513d6020811015611ce757600080fd5b50519050611cf3613522565b606754604080517f5f8e26a70000000000000000000000000000000000000000000000000000000081526004810187905290516001600160a01b0390921691635f8e26a791602480820192608092909190829003018186803b158015611d5857600080fd5b505afa158015611d6c573d6000803e3d6000fd5b505050506040513d601f19601f820116820180604052506080811015611d9157600080fd5b509050611d9c613522565b6000838152606a6020526040808220815160808101928390529290916004918390855b825461010083900a900460ff16815260206001928301818104948501949093039092029101808411611dbf5790505050505050905080600060048110611e0157fe5b602002015160ff16611e5a576040805162461bcd60e51b815260206004820152600a60248201527f6e6f742064726177656400000000000000000000000000000000000000000000604482015290519081900360640190fd5b6000805b6004811015611ea457838160048110611e7357fe5b602002015160ff16838260048110611e8757fe5b602002015160ff161415611e9c578160010191505b600101611e5e565b5060006001821115611fb057606754604080517ff7a0c0ca000000000000000000000000000000000000000000000000000000008152600481018a905290516000926001600160a01b03169163f7a0c0ca916024808301926020929190829003018186803b158015611f1557600080fd5b505afa158015611f29573d6000803e3d6000fd5b505050506040513d6020811015611f3f57600080fd5b505190506000611f896064611f836065600488900360038110611f5e57fe5b602081049091015460ff601f9092166101000a900416611f7d8b61100b565b90612bb2565b90612c0b565b9050611fab611f988886611bad565b611f8383611f7d8664e8d4a51000612bb2565b925050505b611fbf8164e8d4a51000612c0b565b979650505050505050565b6068546001600160a01b03163314612017576040805162461bcd60e51b815260206004820152600b60248201526a61646d696e3a207775743f60a81b604482015290519081900360640190fd5b61201f6122a6565b612070576040805162461bcd60e51b815260206004820152600760248201527f6472617765643f00000000000000000000000000000000000000000000000000604482015290519081900360640190fd5b42607255600060708190556071556073805463ffffffff191690556074805460ff19169055606f8054600181019091556120ab906004611bad565b61213057606554606f546000916120d691606491611f839160ff90911690611f7d906000190161100b565b60408051608081019182905291925061212e918391607590600490826000855b825461010083900a900460ff168152602060019283018181049485019490930390920291018084116120f65790505050505050612c72565b505b606f546040517f01c3cbb0d62726ab09d163873ebf9aed99dd8dc08e57bc938f458132fd178cf690600090a2565b600054610100900460ff16806121775750612177612e7f565b80612185575060005460ff16155b6121c05760405162461bcd60e51b815260040180806020018281038252602e8152602001806135e5602e913960400191505060405180910390fd5b600054610100900460ff161580156121eb576000805460ff1961ff0019909116610100171660011790555b6001600160a01b0382166121fe57600080fd5b606680546001600160a01b03199081166001600160a01b038981169190911790925560678054821688841617905560698690556068805460ff60a01b1916600160a01b60ff881602179091169184169190911790554260725560408051606081018252603c815260146020820152600a91810191909152612283906065906003613415565b5061228c612e90565b801561229e576000805461ff00191690555b505050505050565b60735460ff16151590565b60695481565b6067546001600160a01b031681565b6122ce6128fd565b6001600160a01b03166122df61156a565b6001600160a01b03161461233a576040805162461bcd60e51b815260206004820181905260248201527f4f776e61626c653a2063616c6c6572206973206e6f7420746865206f776e6572604482015290519081900360640190fd5b6001600160a01b03811661237f5760405162461bcd60e51b81526004018080602001828103825260268152602001806135996026913960400191505060405180910390fd5b6033546040516001600160a01b038084169216907f8be0079c531659141344cd1fd0a4f28419497f9722a3daafe3b4186f6b6457e090600090a3603380546001600160a01b0319166001600160a01b0392909216919091179055565b6068546001600160a01b031681565b6000805b600481101561247357606854600160a01b900460ff1683826004811061241057fe5b602002015160ff16111561246b576040805162461bcd60e51b815260206004820152600a60248201527f626164206e756d62657200000000000000000000000000000000000000000000604482015290519081900360640190fd5b6001016123ee565b50606754606f54604051620dce4760ea1b815233600482018181526000946001600160a01b0316936337391c009388928a92916024018460808083838d5b838110156124c95781810151838201526020016124b1565b50505050905001838152602001828152602001945050505050602060405180830381600087803b1580156124fc57600080fd5b505af1158015612510573d6000803e3d6000fd5b505050506040513d602081101561252657600080fd5b5051606f546000908152606b60209081526040808320805460018101825590845282842001849055338352606e90915290205490915061256a576070805460010190555b336000908152606e602090815260408220805460018101825590835291200181905560715461259990856126f2565b607155426072556125a86133f6565b6125b1846110b4565b905060005b600b81101561265a57606f546000908152606d60205260408120612615918891908585600b81106125e357fe5b602002015163ffffffff1667ffffffffffffffff168152602001908152602001600020546126f290919063ffffffff16565b606f546000908152606d60205260408120908484600b811061263357fe5b6020908102919091015163ffffffff168252810191909152604001600020556001016125b6565b5090949350505050565b604080516001600160a01b0380861660248301528416604482015260648082018490528251808303909101815260849091019091526020810180517bffffffffffffffffffffffffffffffffffffffffffffffffffffffff167f23b872dd000000000000000000000000000000000000000000000000000000001790526126ec908590612f42565b50505050565b60008282018381101561274c576040805162461bcd60e51b815260206004820152601b60248201527f536166654d6174683a206164646974696f6e206f766572666c6f770000000000604482015290519081900360640190fd5b9392505050565b606654604080517f70a0823100000000000000000000000000000000000000000000000000000000815230600482015290516000926001600160a01b0316916370a08231916024808301926020929190829003018186803b1580156127b757600080fd5b505afa1580156127cb573d6000803e3d6000fd5b505050506040513d60208110156127e157600080fd5b5051905080821115612875576066546040805163a9059cbb60e01b81526001600160a01b038681166004830152602482018590529151919092169163a9059cbb9160448083019260209291908290030181600087803b15801561284357600080fd5b505af1158015612857573d6000803e3d6000fd5b505050506040513d602081101561286d57600080fd5b506128f89050565b6066546040805163a9059cbb60e01b81526001600160a01b038681166004830152602482018690529151919092169163a9059cbb9160448083019260209291908290030181600087803b1580156128cb57600080fd5b505af11580156128df573d6000803e3d6000fd5b505050506040513d60208110156128f557600080fd5b50505b505050565b3390565b604080516001600160a01b038416602482015260448082018490528251808303909101815260649091019091526020810180517bffffffffffffffffffffffffffffffffffffffffffffffffffffffff1663a9059cbb60e01b1790526128f8908490612f42565b612970613522565b6129786133f6565b6040805160808101918290526129cb91607390600490826000855b825461010083900a900460ff1681526020600192830181810494850194909303909202910180841161299357905050505050506110b4565b606f546000818152606d60208181526040808420865163ffffffff9081168652818452828620548787528585528885015190911686528184529185205495855292909152939450612a4d918560025b602002015163ffffffff1667ffffffffffffffff16815260200190815260200160002054826126f290919063ffffffff16565b606f546000908152606d60205260408120919250612a6e9190856003612a1a565b606f546000908152606d60205260408120919250612a8f9190856004612a1a565b9050612aa6612a9f836004612bb2565b8290612ff3565b606f546000818152606d6020818152604080842060a08a015163ffffffff168552808352908420549484529190529293509091612ae591866006612a1a565b606f546000908152606d60205260408120919250612b069190866007612a1a565b606f546000908152606d60205260408120919250612b279190866008612a1a565b606f546000908152606d60205260408120919250612b489190866009612a1a565b606f546000908152606d60205260408120919250612b69919086600a612a1a565b9050612b79612a9f836003612bb2565b9050612b89612a9f846006612bb2565b604080516080810182526071548152602081019590955284019290925250606082015291505090565b600082612bc157506000611c3e565b82820282848281612bce57fe5b041461274c5760405162461bcd60e51b81526004018080602001828103825260218152602001806136136021913960400191505060405180910390fd5b6000808211612c61576040805162461bcd60e51b815260206004820152601a60248201527f536166654d6174683a206469766973696f6e206279207a65726f000000000000604482015290519081900360640190fd5b818381612c6a57fe5b049392505050565b612c7a6122a6565b15612ccc576040805162461bcd60e51b815260206004820152601760248201527f6472617765642c2063616e206e6f7420627579206e6f77000000000000000000604482015290519081900360640190fd5b60005b6004811015612d5457606854600160a01b900460ff16828260048110612cf157fe5b602002015160ff161115612d4c576040805162461bcd60e51b815260206004820152601260248201527f65786365656420746865206d6178696d756d0000000000000000000000000000604482015290519081900360640190fd5b600101612ccf565b50606754606f54604051620dce4760ea1b815230600482018181526000946001600160a01b0316936337391c009387928992916024018460808083838d5b83811015612daa578181015183820152602001612d92565b50505050905001838152602001828152602001945050505050602060405180830381600087803b158015612ddd57600080fd5b505af1158015612df1573d6000803e3d6000fd5b505050506040513d6020811015612e0757600080fd5b5051606f546000908152606b6020908152604082208054600181018255908352912001819055607154909150612e3d90846126f2565b6071554260725560408051828152905130917fe3d4187f6ca4248660cc0ac8b8056515bac4a8132be2eca31d6d0cc170722a7e919081900360200190a2505050565b6000612e8a30613050565b15905090565b600054610100900460ff1680612ea95750612ea9612e7f565b80612eb7575060005460ff16155b612ef25760405162461bcd60e51b815260040180806020018281038252602e8152602001806135e5602e913960400191505060405180910390fd5b600054610100900460ff16158015612f1d576000805460ff1961ff0019909116610100171660011790555b612f25613056565b612f2d6130f6565b8015612f3f576000805461ff00191690555b50565b6060612f97826040518060400160405280602081526020017f5361666542455032303a206c6f772d6c6576656c2063616c6c206661696c6564815250856001600160a01b03166131ef9092919063ffffffff16565b8051909150156128f857808060200190516020811015612fb657600080fd5b50516128f85760405162461bcd60e51b815260040180806020018281038252602a81526020018061356f602a913960400191505060405180910390fd5b60008282111561304a576040805162461bcd60e51b815260206004820152601e60248201527f536166654d6174683a207375627472616374696f6e206f766572666c6f770000604482015290519081900360640190fd5b50900390565b3b151590565b600054610100900460ff168061306f575061306f612e7f565b8061307d575060005460ff16155b6130b85760405162461bcd60e51b815260040180806020018281038252602e8152602001806135e5602e913960400191505060405180910390fd5b600054610100900460ff16158015612f2d576000805460ff1961ff0019909116610100171660011790558015612f3f576000805461ff001916905550565b600054610100900460ff168061310f575061310f612e7f565b8061311d575060005460ff16155b6131585760405162461bcd60e51b815260040180806020018281038252602e8152602001806135e5602e913960400191505060405180910390fd5b600054610100900460ff16158015613183576000805460ff1961ff0019909116610100171660011790555b600061318d6128fd565b603380546001600160a01b0319166001600160a01b038316908117909155604051919250906000907f8be0079c531659141344cd1fd0a4f28419497f9722a3daafe3b4186f6b6457e0908290a3508015612f3f576000805461ff001916905550565b60606131fe8484600085613206565b949350505050565b6060824710156132475760405162461bcd60e51b81526004018080602001828103825260268152602001806135bf6026913960400191505060405180910390fd5b61325085613050565b6132a1576040805162461bcd60e51b815260206004820152601d60248201527f416464726573733a2063616c6c20746f206e6f6e2d636f6e7472616374000000604482015290519081900360640190fd5b60006060866001600160a01b031685876040518082805190602001908083835b602083106132e05780518252601f1990920191602091820191016132c1565b6001836020036101000a03801982511681845116808217855250505050505090500191505060006040518083038185875af1925050503d8060008114613342576040519150601f19603f3d011682016040523d82523d6000602084013e613347565b606091505b5091509150611fbf8282866060831561336157508161274c565b8251156133715782518084602001fd5b8160405162461bcd60e51b81526004018080602001828103825283818151815260200191508051906020019080838360005b838110156133bb5781810151838201526020016133a3565b50505050905090810190601f1680156133e85780820380516001836020036101000a031916815260200191505b509250505060405180910390fd5b604051806101600160405280600b906020820280368337509192915050565b6001830191839082156134985791602002820160005b8382111561346957835183826101000a81548160ff021916908360ff160217905550926020019260010160208160000104928301926001030261342b565b80156134965782816101000a81549060ff0219169055600101602081600001049283019260010302613469565b505b506134a4929150613540565b5090565b6001830191839082156134985791601f016020900482015b828111156134985782548255916001019190600101906134c0565b828054828255906000526020600020908101928215613516579160200282015b828111156135165782518255916020019190600101906134fb565b506134a4929150613559565b60405180608001604052806004906020820280368337509192915050565b5b808211156134a457805460ff19168155600101613541565b5b808211156134a4576000815560010161355a56fe5361666542455032303a204245503230206f7065726174696f6e20646964206e6f7420737563636565644f776e61626c653a206e6577206f776e657220697320746865207a65726f2061646472657373416464726573733a20696e73756666696369656e742062616c616e636520666f722063616c6c496e697469616c697a61626c653a20636f6e747261637420697320616c726561647920696e697469616c697a6564536166654d6174683a206d756c7469706c69636174696f6e206f766572666c6f77a2646970667358221220103331fd9793b6e7aa75f20505bf8577c4fa009f132a0dbfff8d2dceedd3a98c64736f6c634300060c0033",
  "immutableReferences": {},
  "source": "// SPDX-License-Identifier: MIT\n\npragma solidity 0.6.12;\n\nimport \"./LotteryNFT.sol\";\nimport \"../libs/IBEP20.sol\";\nimport \"../libs/SafeBEP20.sol\";\nimport \"@openzeppelin/contracts/math/SafeMath.sol\";\nimport \"@openzeppelin/contracts-upgradeable/access/OwnableUpgradeable.sol\";\n\n// 4 numbers\ncontract Lottery is OwnableUpgradeable {\n    using SafeMath for uint256;\n    using SafeMath for uint8;\n    using SafeBEP20 for IBEP20;\n\n    uint8 constant winningCombinations = 11;\n    // Allocation for first/sencond/third reward\n    uint8[3] public allocation;\n    // The TOKEN to buy lottery\n    IBEP20 public lake;\n    // The Lottery NFT for tickets\n    LotteryNFT public lotteryNFT;\n    // adminAddress\n    address public adminAddress;\n    // maxNumber\n    uint8 public maxNumber;\n    // minPrice, if decimal is not 18, please reset it\n    uint256 public minPrice;\n\n    // =================================\n\n    // issueId => winningNumbers[numbers]\n    mapping (uint256 => uint8[4]) public historyNumbers;\n    // issueId => [tokenId]\n    mapping (uint256 => uint256[]) public lotteryInfo;\n    // issueId => [totalAmount, firstMatchAmount, secondMatchingAmount, thirdMatchingAmount]\n    mapping (uint256 => uint256[]) public historyAmount;\n    // issueId => trickyNumber => buyAmountSum\n    mapping (uint256 => mapping(uint64 => uint256)) public userBuyAmountSum;\n    // address => [tokenId]\n    mapping (address => uint256[]) public userInfo;\n\n    uint256 public issueIndex = 0;\n    uint256 public totalAddresses = 0;\n    uint256 public totalAmount = 0;\n    uint256 public lastTimestamp;\n\n    uint8[4] public winningNumbers;\n\n    // default false\n    bool public drawingPhase;\n\n    // =================================\n\n    event Buy(address indexed user, uint256 tokenId);\n    event Drawing(uint256 indexed issueIndex, uint8[4] winningNumbers);\n    event Claim(address indexed user, uint256 tokenid, uint256 amount);\n    event DevWithdraw(address indexed user, uint256 amount);\n    event Reset(uint256 indexed issueIndex);\n    event MultiClaim(address indexed user, uint256 amount);\n    event MultiBuy(address indexed user, uint256 amount);\n    event SetMinPrice(address indexed user, uint256 price);\n    event SetMaxNumber(address indexed user, uint256 number);\n    event SetAdmin(address indexed user, address indexed admin);\n    event SetAllocation(address indexed user, uint8 allocation1, uint8 allocation2, uint8 allocation3);\n\n    constructor() public {\n    }\n\n    function initialize(\n        IBEP20 _lake,\n        LotteryNFT _lottery,\n        uint256 _minPrice,\n        uint8 _maxNumber,\n        address _adminAddress\n    ) external initializer {\n        require(_adminAddress != address(0));\n\n        lake = _lake;\n        lotteryNFT = _lottery;\n        minPrice = _minPrice;\n        maxNumber = _maxNumber;\n        adminAddress = _adminAddress;\n        lastTimestamp = block.timestamp;\n        allocation = [60, 20, 10];\n        __Ownable_init();\n    }\n\n    uint8[4] private nullTicket = [0,0,0,0];\n\n    modifier onlyAdmin() {\n        require(msg.sender == adminAddress, \"admin: wut?\");\n        _;\n    }\n\n    function drawed() public view returns(bool) {\n        return winningNumbers[0] != 0;\n    }\n\n    function reset() external onlyAdmin {\n        require(drawed(), \"drawed?\");\n        lastTimestamp = block.timestamp;\n        totalAddresses = 0;\n        totalAmount = 0;\n        winningNumbers[0]=0;\n        winningNumbers[1]=0;\n        winningNumbers[2]=0;\n        winningNumbers[3]=0;\n        drawingPhase = false;\n        issueIndex = issueIndex +1;\n        if(getMatchingRewardAmount(issueIndex-1, 4) == 0) {\n            uint256 amount = getTotalRewards(issueIndex-1).mul(allocation[0]).div(100);\n            internalBuy(amount, nullTicket);\n        }\n        emit Reset(issueIndex);\n    }\n\n    function enterDrawingPhase() external onlyAdmin {\n        require(!drawed(), 'drawed');\n        drawingPhase = true;\n    }\n\n    // add externalRandomNumber to prevent node validators exploiting\n    function drawing(uint256 _externalRandomNumber) external onlyAdmin {\n        require(!drawed(), \"reset?\");\n        require(drawingPhase, \"enter drawing phase first\");\n        bytes32 _structHash;\n        uint256 _randomNumber;\n        uint8 _maxNumber = maxNumber;\n        bytes32 _blockhash = blockhash(block.number-1);\n\n        // waste some gas fee here\n        for (uint i = 0; i < 10; i++) {\n            getTotalRewards(issueIndex);\n        }\n        uint256 gasLeft = gasleft();\n\n        // 1\n        _structHash = keccak256(\n            abi.encode(\n                _blockhash,\n                totalAddresses,\n                gasLeft,\n                _externalRandomNumber\n            )\n        );\n        _randomNumber  = uint256(_structHash);\n        assembly {_randomNumber := add(mod(_randomNumber, _maxNumber),1)}\n        winningNumbers[0]=uint8(_randomNumber);\n\n        // 2\n        _structHash = keccak256(\n            abi.encode(\n                _blockhash,\n                totalAmount,\n                gasLeft,\n                _externalRandomNumber\n            )\n        );\n        _randomNumber  = uint256(_structHash);\n        assembly {_randomNumber := add(mod(_randomNumber, _maxNumber),1)}\n        winningNumbers[1]=uint8(_randomNumber);\n\n        // 3\n        _structHash = keccak256(\n            abi.encode(\n                _blockhash,\n                lastTimestamp,\n                gasLeft,\n                _externalRandomNumber\n            )\n        );\n        _randomNumber  = uint256(_structHash);\n        assembly {_randomNumber := add(mod(_randomNumber, _maxNumber),1)}\n        winningNumbers[2]=uint8(_randomNumber);\n\n        // 4\n        _structHash = keccak256(\n            abi.encode(\n                _blockhash,\n                gasLeft,\n                _externalRandomNumber\n            )\n        );\n        _randomNumber  = uint256(_structHash);\n        assembly {_randomNumber := add(mod(_randomNumber, _maxNumber),1)}\n        winningNumbers[3]=uint8(_randomNumber);\n        historyNumbers[issueIndex] = winningNumbers;\n        historyAmount[issueIndex] = calculateMatchingRewardAmount();\n        drawingPhase = false;\n        emit Drawing(issueIndex, winningNumbers);\n    }\n\n    function internalBuy(uint256 _price, uint8[4] memory _numbers) internal {\n        require (!drawed(), 'drawed, can not buy now');\n        for (uint i = 0; i < 4; i++) {\n            require (_numbers[i] <= maxNumber, 'exceed the maximum');\n        }\n        uint256 tokenId = lotteryNFT.newLotteryItem(address(this), _numbers, _price, issueIndex);\n        lotteryInfo[issueIndex].push(tokenId);\n        totalAmount = totalAmount.add(_price);\n        lastTimestamp = block.timestamp;\n        emit Buy(address(this), tokenId);\n\n    }\n\n    function _buySingleTicket(uint256 _price, uint8[4] memory _numbers) private returns (uint256){\n        for (uint i = 0; i < 4; i++) {\n            require (_numbers[i] <= maxNumber, 'bad number');\n        }\n        uint256 tokenId = lotteryNFT.newLotteryItem(msg.sender, _numbers, _price, issueIndex);\n        lotteryInfo[issueIndex].push(tokenId);\n        if (userInfo[msg.sender].length == 0) {\n            totalAddresses = totalAddresses + 1;\n        }\n        userInfo[msg.sender].push(tokenId);\n        totalAmount = totalAmount.add(_price);\n        lastTimestamp = block.timestamp;\n        uint32[winningCombinations] memory userCombinations = generateCombinations(_numbers);\n        for (uint i = 0; i < winningCombinations; i++) {\n            userBuyAmountSum[issueIndex][userCombinations[i]]=userBuyAmountSum[issueIndex][userCombinations[i]].add(_price);\n        }\n        return tokenId;\n    }\n\n    function buy(uint256 _price, uint8[4] memory _numbers) external {\n        require(!drawed(), 'drawed, can not buy now');\n        require(!drawingPhase, 'drawing, can not buy now');\n        require (_price >= minPrice, 'price must above minPrice');\n        uint256 tokenId = _buySingleTicket(_price, _numbers);\n        lake.safeTransferFrom(address(msg.sender), address(this), _price);\n        emit Buy(msg.sender, tokenId);\n    }\n\n    function multiBuy(uint256 _price, uint8[4][] memory _numbers) external {\n        require (!drawed(), 'drawed, can not buy now');\n        require (_price >= minPrice, 'price must above minPrice');\n        uint256 totalPrice  = 0;\n        for (uint i = 0; i < _numbers.length; i++) {\n            _buySingleTicket(_price, _numbers[i]);\n            totalPrice = totalPrice.add(_price);\n        }\n        lake.safeTransferFrom(address(msg.sender), address(this), totalPrice);\n        emit MultiBuy(msg.sender, totalPrice);\n    }\n\n    function claimReward(uint256 _tokenId) external {\n        require(msg.sender == lotteryNFT.ownerOf(_tokenId), \"not from owner\");\n        require (!lotteryNFT.getClaimStatus(_tokenId), \"claimed\");\n        uint256 reward = getRewardView(_tokenId);\n        lotteryNFT.claimReward(_tokenId);\n        if(reward>0) {\n            safeLakeTransfer(address(msg.sender), reward);\n        }\n        emit Claim(msg.sender, _tokenId, reward);\n    }\n\n    function multiClaim(uint256[] memory _tickets) external {\n        uint256 totalReward = 0;\n        for (uint i = 0; i < _tickets.length; i++) {\n            require (msg.sender == lotteryNFT.ownerOf(_tickets[i]), \"not from owner\");\n            require (!lotteryNFT.getClaimStatus(_tickets[i]), \"claimed\");\n            uint256 reward = getRewardView(_tickets[i]);\n            if(reward>0) {\n                totalReward = reward.add(totalReward);\n            }\n        }\n        lotteryNFT.multiClaimReward(_tickets);\n        if(totalReward>0) {\n            safeLakeTransfer(address(msg.sender), totalReward);\n        }\n        emit MultiClaim(msg.sender, totalReward);\n    }\n\n    function generateCombinations(uint8[4] memory number) public pure returns (uint32[winningCombinations] memory) {\n        uint32 packedNumber = (number[0] << 24) + (number[1] << 16) + (number[2] << 8) + number[3];\n\n        uint32[winningCombinations] memory combinations;\n\n        //Match 4\n        combinations[0] = packedNumber;\n\n        //Match 3\n        combinations[1] = packedNumber & 0x00FFFFFF;\n        combinations[2] = packedNumber & 0xFF00FFFF;\n        combinations[3] = packedNumber & 0xFFFF00FF;\n        combinations[4] = packedNumber & 0xFFFFFF00;\n\n        //Match 2\n        combinations[5] = packedNumber & 0x0000FFFF;\n        combinations[6] = packedNumber & 0x00FF00FF;\n        combinations[7] = packedNumber & 0x00FFFF00;\n        combinations[8] = packedNumber & 0xFF0000FF;\n        combinations[9] = packedNumber & 0xFF00FF00;\n        combinations[10] = packedNumber & 0xFFFF0000;\n\n        return combinations;\n    }\n\n    function calculateMatchingRewardAmount() internal view returns (uint256[4] memory) {\n        uint32[winningCombinations] memory combinations = generateCombinations(winningNumbers);\n\n        uint256 totalMatched4 = userBuyAmountSum[issueIndex][combinations[0]];\n\n        uint256 totalMatched3 = userBuyAmountSum[issueIndex][combinations[1]];\n        totalMatched3 = totalMatched3.add(userBuyAmountSum[issueIndex][combinations[2]]);\n        totalMatched3 = totalMatched3.add(userBuyAmountSum[issueIndex][combinations[3]]);\n        totalMatched3 = totalMatched3.add(userBuyAmountSum[issueIndex][combinations[4]]);\n        totalMatched3 = totalMatched3.sub(totalMatched4.mul(4)); //Remove overlaps from Matched4 users\n\n        uint256 totalMatched2 = userBuyAmountSum[issueIndex][combinations[5]];\n        totalMatched2 = totalMatched2.add(userBuyAmountSum[issueIndex][combinations[6]]);\n        totalMatched2 = totalMatched2.add(userBuyAmountSum[issueIndex][combinations[7]]);\n        totalMatched2 = totalMatched2.add(userBuyAmountSum[issueIndex][combinations[8]]);\n        totalMatched2 = totalMatched2.add(userBuyAmountSum[issueIndex][combinations[9]]);\n        totalMatched2 = totalMatched2.add(userBuyAmountSum[issueIndex][combinations[10]]);\n        totalMatched2 = totalMatched2.sub(totalMatched3.mul(3)); //Remove overlaps from Matched3 users\n        totalMatched2 = totalMatched2.sub(totalMatched4.mul(6)); //Remove overlaps from Matched4 users\n\n        return [totalAmount, totalMatched4, totalMatched3, totalMatched2];\n    }\n\n    function getMatchingRewardAmount(uint256 _issueIndex, uint256 _matchingNumber) public view returns (uint256) {\n        require(_matchingNumber >= 2 && _matchingNumber <= 4, \"getMatchingRewardAmount: INVALID\");\n        return historyAmount[_issueIndex][5 - _matchingNumber];\n    }\n\n    function getTotalRewards(uint256 _issueIndex) public view returns(uint256) {\n        require (_issueIndex <= issueIndex, '_issueIndex <= issueIndex');\n\n        if(!drawed() && _issueIndex == issueIndex) {\n            return totalAmount;\n        }\n        return historyAmount[_issueIndex][0];\n    }\n\n    function getRewardView(uint256 _tokenId) public view returns(uint256) {\n        uint256 _issueIndex = lotteryNFT.getLotteryIssueIndex(_tokenId);\n        uint8[4] memory lotteryNumbers = lotteryNFT.getLotteryNumbers(_tokenId);\n        uint8[4] memory _winningNumbers = historyNumbers[_issueIndex];\n        require(_winningNumbers[0] != 0, \"not drawed\");\n\n        uint256 matchingNumber = 0;\n        for (uint i = 0; i < lotteryNumbers.length; i++) {\n            if (_winningNumbers[i] == lotteryNumbers[i]) {\n                matchingNumber = matchingNumber + 1;\n            }\n        }\n        uint256 reward = 0;\n        if (matchingNumber > 1) {\n            uint256 amount = lotteryNFT.getLotteryAmount(_tokenId);\n            uint256 poolAmount = getTotalRewards(_issueIndex).mul(allocation[4-matchingNumber]).div(100);\n            reward = amount.mul(1e12).mul(poolAmount).div(getMatchingRewardAmount(_issueIndex, matchingNumber));\n        }\n        return reward.div(1e12);\n    }\n\n    // Safe lake transfer function, just in case if rounding error causes pool to not have enough LAKEs.\n    function safeLakeTransfer(address _to, uint256 _amount) internal {\n        uint256 lakeBal = lake.balanceOf(address(this));\n        if (_amount > lakeBal) {\n            lake.transfer(_to, lakeBal);\n        } else {\n            lake.transfer(_to, _amount);\n        }\n    }\n\n    // Update admin address by the previous dev.\n    function setAdmin(address _adminAddress) external onlyOwner {\n        require(_adminAddress != address(0));\n        adminAddress = _adminAddress;\n        emit SetAdmin(msg.sender, _adminAddress);\n    }\n\n    // Withdraw without caring about rewards. EMERGENCY ONLY.\n    function adminWithdraw(uint256 _amount) external onlyAdmin {\n        lake.safeTransfer(address(msg.sender), _amount);\n        emit DevWithdraw(msg.sender, _amount);\n    }\n\n    // Set the minimum price for one ticket\n    function setMinPrice(uint256 _price) external onlyAdmin {\n        minPrice = _price;\n        emit SetMinPrice(msg.sender, _price);\n    }\n\n    // Set the max number to be drawed\n    function setMaxNumber(uint8 _maxNumber) external onlyAdmin {\n        maxNumber = _maxNumber;\n        emit SetMaxNumber(msg.sender, _maxNumber);\n    }\n\n    // Set the allocation for one reward\n    function setAllocation(uint8 _allcation1, uint8 _allcation2, uint8 _allcation3) external onlyAdmin {\n        allocation = [_allcation1, _allcation2, _allcation3];\n        emit SetAllocation(msg.sender, _allcation1, _allcation2, _allcation3);\n    }\n\n}",
  "sourcePath": "/home/koko/MasterchefV2_token/contracts/lottery/Lottery.sol",
  "compiler": {
    "name": "solc",
    "version": "0.6.12+commit.27d51765.Emscripten.clang"
  },
  "schemaVersion": "3.4.10",
  "updatedAt": "2023-02-22T18:23:07.946Z",
  "devdoc": {
    "kind": "dev",
    "methods": {
      "owner()": {
        "details": "Returns the address of the current owner."
      },
      "renounceOwnership()": {
        "details": "Leaves the contract without owner. It will not be possible to call `onlyOwner` functions anymore. Can only be called by the current owner. NOTE: Renouncing ownership will leave the contract without an owner, thereby removing any functionality that is only available to the owner."
      },
      "transferOwnership(address)": {
        "details": "Transfers ownership of the contract to a new account (`newOwner`). Can only be called by the current owner."
      }
    },
    "version": 1
  },
  "userdoc": {
    "kind": "user",
    "methods": {},
    "version": 1
  }
}