{
  "contractName": "LotteryNFT",
  "abi": [
    {
      "inputs": [],
      "stateMutability": "nonpayable",
      "type": "constructor"
    },
    {
      "anonymous": false,
      "inputs": [
        {
          "indexed": true,
          "internalType": "address",
          "name": "owner",
          "type": "address"
        },
        {
          "indexed": true,
          "internalType": "address",
          "name": "approved",
          "type": "address"
        },
        {
          "indexed": true,
          "internalType": "uint256",
          "name": "tokenId",
          "type": "uint256"
        }
      ],
      "name": "Approval",
      "type": "event"
    },
    {
      "anonymous": false,
      "inputs": [
        {
          "indexed": true,
          "internalType": "address",
          "name": "owner",
          "type": "address"
        },
        {
          "indexed": true,
          "internalType": "address",
          "name": "operator",
          "type": "address"
        },
        {
          "indexed": false,
          "internalType": "bool",
          "name": "approved",
          "type": "bool"
        }
      ],
      "name": "ApprovalForAll",
      "type": "event"
    },
    {
      "anonymous": false,
      "inputs": [
        {
          "indexed": true,
          "internalType": "address",
          "name": "previousOwner",
          "type": "address"
        },
        {
          "indexed": true,
          "internalType": "address",
          "name": "newOwner",
          "type": "address"
        }
      ],
      "name": "OwnershipTransferred",
      "type": "event"
    },
    {
      "anonymous": false,
      "inputs": [
        {
          "indexed": true,
          "internalType": "address",
          "name": "from",
          "type": "address"
        },
        {
          "indexed": true,
          "internalType": "address",
          "name": "to",
          "type": "address"
        },
        {
          "indexed": true,
          "internalType": "uint256",
          "name": "tokenId",
          "type": "uint256"
        }
      ],
      "name": "Transfer",
      "type": "event"
    },
    {
      "inputs": [
        {
          "internalType": "address",
          "name": "to",
          "type": "address"
        },
        {
          "internalType": "uint256",
          "name": "tokenId",
          "type": "uint256"
        }
      ],
      "name": "approve",
      "outputs": [],
      "stateMutability": "nonpayable",
      "type": "function"
    },
    {
      "inputs": [
        {
          "internalType": "address",
          "name": "owner",
          "type": "address"
        }
      ],
      "name": "balanceOf",
      "outputs": [
        {
          "internalType": "uint256",
          "name": "",
          "type": "uint256"
        }
      ],
      "stateMutability": "view",
      "type": "function"
    },
    {
      "inputs": [],
      "name": "baseURI",
      "outputs": [
        {
          "internalType": "string",
          "name": "",
          "type": "string"
        }
      ],
      "stateMutability": "view",
      "type": "function"
    },
    {
      "inputs": [
        {
          "internalType": "uint256",
          "name": "",
          "type": "uint256"
        }
      ],
      "name": "claimInfo",
      "outputs": [
        {
          "internalType": "bool",
          "name": "",
          "type": "bool"
        }
      ],
      "stateMutability": "view",
      "type": "function"
    },
    {
      "inputs": [
        {
          "internalType": "uint256",
          "name": "tokenId",
          "type": "uint256"
        }
      ],
      "name": "getApproved",
      "outputs": [
        {
          "internalType": "address",
          "name": "",
          "type": "address"
        }
      ],
      "stateMutability": "view",
      "type": "function"
    },
    {
      "inputs": [
        {
          "internalType": "address",
          "name": "owner",
          "type": "address"
        },
        {
          "internalType": "address",
          "name": "operator",
          "type": "address"
        }
      ],
      "name": "isApprovedForAll",
      "outputs": [
        {
          "internalType": "bool",
          "name": "",
          "type": "bool"
        }
      ],
      "stateMutability": "view",
      "type": "function"
    },
    {
      "inputs": [
        {
          "internalType": "uint256",
          "name": "",
          "type": "uint256"
        }
      ],
      "name": "issueIndex",
      "outputs": [
        {
          "internalType": "uint256",
          "name": "",
          "type": "uint256"
        }
      ],
      "stateMutability": "view",
      "type": "function"
    },
    {
      "inputs": [
        {
          "internalType": "uint256",
          "name": "",
          "type": "uint256"
        }
      ],
      "name": "lotteryAmount",
      "outputs": [
        {
          "internalType": "uint256",
          "name": "",
          "type": "uint256"
        }
      ],
      "stateMutability": "view",
      "type": "function"
    },
    {
      "inputs": [
        {
          "internalType": "uint256",
          "name": "",
          "type": "uint256"
        },
        {
          "internalType": "uint256",
          "name": "",
          "type": "uint256"
        }
      ],
      "name": "lotteryInfo",
      "outputs": [
        {
          "internalType": "uint8",
          "name": "",
          "type": "uint8"
        }
      ],
      "stateMutability": "view",
      "type": "function"
    },
    {
      "inputs": [],
      "name": "name",
      "outputs": [
        {
          "internalType": "string",
          "name": "",
          "type": "string"
        }
      ],
      "stateMutability": "view",
      "type": "function"
    },
    {
      "inputs": [],
      "name": "owner",
      "outputs": [
        {
          "internalType": "address",
          "name": "",
          "type": "address"
        }
      ],
      "stateMutability": "view",
      "type": "function"
    },
    {
      "inputs": [
        {
          "internalType": "uint256",
          "name": "tokenId",
          "type": "uint256"
        }
      ],
      "name": "ownerOf",
      "outputs": [
        {
          "internalType": "address",
          "name": "",
          "type": "address"
        }
      ],
      "stateMutability": "view",
      "type": "function"
    },
    {
      "inputs": [],
      "name": "renounceOwnership",
      "outputs": [],
      "stateMutability": "nonpayable",
      "type": "function"
    },
    {
      "inputs": [
        {
          "internalType": "address",
          "name": "from",
          "type": "address"
        },
        {
          "internalType": "address",
          "name": "to",
          "type": "address"
        },
        {
          "internalType": "uint256",
          "name": "tokenId",
          "type": "uint256"
        }
      ],
      "name": "safeTransferFrom",
      "outputs": [],
      "stateMutability": "nonpayable",
      "type": "function"
    },
    {
      "inputs": [
        {
          "internalType": "address",
          "name": "from",
          "type": "address"
        },
        {
          "internalType": "address",
          "name": "to",
          "type": "address"
        },
        {
          "internalType": "uint256",
          "name": "tokenId",
          "type": "uint256"
        },
        {
          "internalType": "bytes",
          "name": "_data",
          "type": "bytes"
        }
      ],
      "name": "safeTransferFrom",
      "outputs": [],
      "stateMutability": "nonpayable",
      "type": "function"
    },
    {
      "inputs": [
        {
          "internalType": "address",
          "name": "operator",
          "type": "address"
        },
        {
          "internalType": "bool",
          "name": "approved",
          "type": "bool"
        }
      ],
      "name": "setApprovalForAll",
      "outputs": [],
      "stateMutability": "nonpayable",
      "type": "function"
    },
    {
      "inputs": [
        {
          "internalType": "bytes4",
          "name": "interfaceId",
          "type": "bytes4"
        }
      ],
      "name": "supportsInterface",
      "outputs": [
        {
          "internalType": "bool",
          "name": "",
          "type": "bool"
        }
      ],
      "stateMutability": "view",
      "type": "function"
    },
    {
      "inputs": [],
      "name": "symbol",
      "outputs": [
        {
          "internalType": "string",
          "name": "",
          "type": "string"
        }
      ],
      "stateMutability": "view",
      "type": "function"
    },
    {
      "inputs": [
        {
          "internalType": "uint256",
          "name": "index",
          "type": "uint256"
        }
      ],
      "name": "tokenByIndex",
      "outputs": [
        {
          "internalType": "uint256",
          "name": "",
          "type": "uint256"
        }
      ],
      "stateMutability": "view",
      "type": "function"
    },
    {
      "inputs": [
        {
          "internalType": "address",
          "name": "owner",
          "type": "address"
        },
        {
          "internalType": "uint256",
          "name": "index",
          "type": "uint256"
        }
      ],
      "name": "tokenOfOwnerByIndex",
      "outputs": [
        {
          "internalType": "uint256",
          "name": "",
          "type": "uint256"
        }
      ],
      "stateMutability": "view",
      "type": "function"
    },
    {
      "inputs": [
        {
          "internalType": "uint256",
          "name": "tokenId",
          "type": "uint256"
        }
      ],
      "name": "tokenURI",
      "outputs": [
        {
          "internalType": "string",
          "name": "",
          "type": "string"
        }
      ],
      "stateMutability": "view",
      "type": "function"
    },
    {
      "inputs": [],
      "name": "totalSupply",
      "outputs": [
        {
          "internalType": "uint256",
          "name": "",
          "type": "uint256"
        }
      ],
      "stateMutability": "view",
      "type": "function"
    },
    {
      "inputs": [
        {
          "internalType": "address",
          "name": "from",
          "type": "address"
        },
        {
          "internalType": "address",
          "name": "to",
          "type": "address"
        },
        {
          "internalType": "uint256",
          "name": "tokenId",
          "type": "uint256"
        }
      ],
      "name": "transferFrom",
      "outputs": [],
      "stateMutability": "nonpayable",
      "type": "function"
    },
    {
      "inputs": [
        {
          "internalType": "address",
          "name": "newOwner",
          "type": "address"
        }
      ],
      "name": "transferOwnership",
      "outputs": [],
      "stateMutability": "nonpayable",
      "type": "function"
    },
    {
      "inputs": [
        {
          "internalType": "address",
          "name": "player",
          "type": "address"
        },
        {
          "internalType": "uint8[4]",
          "name": "_lotteryNumbers",
          "type": "uint8[4]"
        },
        {
          "internalType": "uint256",
          "name": "_amount",
          "type": "uint256"
        },
        {
          "internalType": "uint256",
          "name": "_issueIndex",
          "type": "uint256"
        }
      ],
      "name": "newLotteryItem",
      "outputs": [
        {
          "internalType": "uint256",
          "name": "",
          "type": "uint256"
        }
      ],
      "stateMutability": "nonpayable",
      "type": "function"
    },
    {
      "inputs": [
        {
          "internalType": "uint256",
          "name": "tokenId",
          "type": "uint256"
        }
      ],
      "name": "getLotteryNumbers",
      "outputs": [
        {
          "internalType": "uint8[4]",
          "name": "",
          "type": "uint8[4]"
        }
      ],
      "stateMutability": "view",
      "type": "function"
    },
    {
      "inputs": [
        {
          "internalType": "uint256",
          "name": "tokenId",
          "type": "uint256"
        }
      ],
      "name": "getLotteryAmount",
      "outputs": [
        {
          "internalType": "uint256",
          "name": "",
          "type": "uint256"
        }
      ],
      "stateMutability": "view",
      "type": "function"
    },
    {
      "inputs": [
        {
          "internalType": "uint256",
          "name": "tokenId",
          "type": "uint256"
        }
      ],
      "name": "getLotteryIssueIndex",
      "outputs": [
        {
          "internalType": "uint256",
          "name": "",
          "type": "uint256"
        }
      ],
      "stateMutability": "view",
      "type": "function"
    },
    {
      "inputs": [
        {
          "internalType": "uint256",
          "name": "tokenId",
          "type": "uint256"
        }
      ],
      "name": "claimReward",
      "outputs": [],
      "stateMutability": "nonpayable",
      "type": "function"
    },
    {
      "inputs": [
        {
          "internalType": "uint256[]",
          "name": "tokenIds",
          "type": "uint256[]"
        }
      ],
      "name": "multiClaimReward",
      "outputs": [],
      "stateMutability": "nonpayable",
      "type": "function"
    },
    {
      "inputs": [
        {
          "internalType": "uint256",
          "name": "tokenId",
          "type": "uint256"
        }
      ],
      "name": "burn",
      "outputs": [],
      "stateMutability": "nonpayable",
      "type": "function"
    },
    {
      "inputs": [
        {
          "internalType": "uint256",
          "name": "tokenId",
          "type": "uint256"
        }
      ],
      "name": "getClaimStatus",
      "outputs": [
        {
          "internalType": "bool",
          "name": "",
          "type": "bool"
        }
      ],
      "stateMutability": "view",
      "type": "function"
    }
  ],
  "bytecode": "0x60806040523480156200001157600080fd5b50604080518082018252601a81527f476f6c64656e476f6f7365204c6f7474657279205469636b65740000000000006020808301919091528251808401909352600383526211d31560ea1b9083015290620000736301ffc9a760e01b62000138565b81516200008890600690602085019062000197565b5080516200009e90600790602084019062000197565b50620000b16380ac58cd60e01b62000138565b620000c3635b5e139f60e01b62000138565b620000d563780e9d6360e01b62000138565b5060009050620000e462000193565b600a80546001600160a01b0319166001600160a01b038316908117909155604051919250906000907f8be0079c531659141344cd1fd0a4f28419497f9722a3daafe3b4186f6b6457e0908290a3506200026a565b6001600160e01b031980821614156200016e5760405162461bcd60e51b8152600401620001659062000233565b60405180910390fd5b6001600160e01b0319166000908152602081905260409020805460ff19166001179055565b3390565b828054600181600116156101000203166002900490600052602060002090601f016020900481019282601f10620001da57805160ff19168380011785556200020a565b828001600101855582156200020a579182015b828111156200020a578251825591602001919060010190620001ed565b50620002189291506200021c565b5090565b5b808211156200021857600081556001016200021d565b6020808252601c908201527f4552433136353a20696e76616c696420696e7465726661636520696400000000604082015260600190565b61268c806200027a6000396000f3fe608060405234801561001057600080fd5b50600436106101f05760003560e01c80636352211e1161010f578063a22cb465116100a2578063c87b56dd11610071578063c87b56dd14610420578063e985e9c514610433578063f2fde38b14610446578063f7a0c0ca14610459576101f0565b8063a22cb465146103d4578063ae169a50146103e7578063b88d4fde146103fa578063c13f690b1461040d576101f0565b8063715018a6116100de578063715018a6146103a957806374310355146103b15780638da5cb5b146103c457806395d89b41146103cc576101f0565b80636352211e1461035b5780636575243f1461036e5780636c0360eb1461038e57806370a0823114610396576101f0565b80632f745c591161018757806342966c681161015657806342966c68146103025780634f6ccce7146103155780635c362233146103285780635f8e26a71461033b576101f0565b80632f745c59146102b657806336dbd2f9146102c957806337391c00146102dc57806342842e0e146102ef576101f0565b8063095ea7b3116101c3578063095ea7b31461027357806318160ddd146102885780631bf1e00f1461029057806323b872dd146102a3576101f0565b806301ffc9a7146101f557806306fdde031461021e578063081812fc1461023357806308c7662514610253575b600080fd5b610208610203366004611e17565b61046c565b6040516102159190611f83565b60405180910390f35b6102266104a7565b6040516102159190611f8e565b610246610241366004611e4f565b61053d565b6040516102159190611eff565b610266610261366004611e4f565b610589565b6040516102159190612511565b610286610281366004611d5d565b61059b565b005b610266610633565b61026661029e366004611e4f565b610644565b6102866102b1366004611b95565b610656565b6102666102c4366004611d5d565b61068e565b6102086102d7366004611e4f565b6106b9565b6102666102ea366004611c8b565b6106ce565b6102866102fd366004611b95565b610775565b610286610310366004611e4f565b610790565b610266610323366004611e4f565b6107db565b610208610336366004611e4f565b6107f1565b61034e610349366004611e4f565b610806565b6040516102159190611f4f565b610246610369366004611e4f565b61086a565b61038161037c366004611e67565b610892565b604051610215919061251a565b6102266108c8565b6102666103a4366004611b46565b610929565b610286610972565b6102866103bf366004611d87565b610a08565b610246610a9a565b610226610aa9565b6102866103e2366004611d22565b610b0a565b6102866103f5366004611e4f565b610bd8565b610286610408366004611bd5565b610c32565b61026661041b366004611e4f565b610c71565b61022661042e366004611e4f565b610c83565b610208610441366004611b61565b610dc9565b610286610454366004611b46565b610df7565b610266610467366004611e4f565b610ec5565b7fffffffff00000000000000000000000000000000000000000000000000000000811660009081526020819052604090205460ff165b919050565b60068054604080516020601f60026000196101006001881615020190951694909404938401819004810282018101909252828152606093909290918301828280156105335780601f1061050857610100808354040283529160200191610533565b820191906000526020600020905b81548152906001019060200180831161051657829003601f168201915b5050505050905090565b600061054882610ed7565b61056d5760405162461bcd60e51b8152600401610564906122e5565b60405180910390fd5b506000908152600460205260409020546001600160a01b031690565b600e6020526000908152604090205481565b60006105a68261086a565b9050806001600160a01b0316836001600160a01b031614156105da5760405162461bcd60e51b815260040161056490612420565b806001600160a01b03166105ec610ee4565b6001600160a01b03161480610608575061060881610441610ee4565b6106245760405162461bcd60e51b8152600401610564906121b4565b61062e8383610ee8565b505050565b600061063f6002610f63565b905090565b6000908152600e602052604090205490565b610667610661610ee4565b82610f6e565b6106835760405162461bcd60e51b81526004016105649061247d565b61062e838383610feb565b6001600160a01b03821660009081526001602052604081206106b090836110f9565b90505b92915050565b6000908152600f602052604090205460ff1690565b60006106d8610ee4565b6001600160a01b03166106e9610a9a565b6001600160a01b03161461070f5760405162461bcd60e51b815260040161056490612331565b610719600b611105565b6000610725600b61110e565b90506107318682611112565b6000818152600c6020526040902061074b908660046119fb565b506000818152600d60209081526040808320879055600e909152902083905590505b949350505050565b61062e83838360405180602001604052806000815250610c32565b610798610ee4565b6001600160a01b03166107a9610a9a565b6001600160a01b0316146107cf5760405162461bcd60e51b815260040161056490612331565b6107d8816111d6565b50565b6000806107e96002846112a3565b509392505050565b600f6020526000908152604090205460ff1681565b61080e611a8e565b6000828152600c6020526040808220815160808101928390529290916004918390855b825461010083900a900460ff16815260206001928301818104948501949093039092029101808411610831575094979650505050505050565b60006106b38260405180606001604052806029815260200161262e60299139600291906112bf565b600c60205281600052604060002081600481106108ab57fe5b602081049091015460ff601f9092166101000a9004169150829050565b60098054604080516020601f60026000196101006001881615020190951694909404938401819004810282018101909252828152606093909290918301828280156105335780601f1061050857610100808354040283529160200191610533565b60006001600160a01b0382166109515760405162461bcd60e51b815260040161056490612211565b6001600160a01b03821660009081526001602052604090206106b390610f63565b61097a610ee4565b6001600160a01b031661098b610a9a565b6001600160a01b0316146109b15760405162461bcd60e51b815260040161056490612331565b600a546040516000916001600160a01b0316907f8be0079c531659141344cd1fd0a4f28419497f9722a3daafe3b4186f6b6457e0908390a3600a805473ffffffffffffffffffffffffffffffffffffffff19169055565b610a10610ee4565b6001600160a01b0316610a21610a9a565b6001600160a01b031614610a475760405162461bcd60e51b815260040161056490612331565b60005b8151811015610a96576001600f6000848481518110610a6557fe5b6020908102919091018101518252810191909152604001600020805460ff1916911515919091179055600101610a4a565b5050565b600a546001600160a01b031690565b60078054604080516020601f60026000196101006001881615020190951694909404938401819004810282018101909252828152606093909290918301828280156105335780601f1061050857610100808354040283529160200191610533565b610b12610ee4565b6001600160a01b0316826001600160a01b03161415610b435760405162461bcd60e51b815260040161056490612131565b8060056000610b50610ee4565b6001600160a01b03908116825260208083019390935260409182016000908120918716808252919093529120805460ff191692151592909217909155610b94610ee4565b6001600160a01b03167f17307eab39ab6107e8899845ad3d59bd9653f200f220920489ca2b5937696c3183604051610bcc9190611f83565b60405180910390a35050565b610be0610ee4565b6001600160a01b0316610bf1610a9a565b6001600160a01b031614610c175760405162461bcd60e51b815260040161056490612331565b6000908152600f60205260409020805460ff19166001179055565b610c43610c3d610ee4565b83610f6e565b610c5f5760405162461bcd60e51b81526004016105649061247d565b610c6b848484846112d6565b50505050565b600d6020526000908152604090205481565b6060610c8e82610ed7565b610caa5760405162461bcd60e51b8152600401610564906123c3565b60008281526008602090815260409182902080548351601f6002600019610100600186161502019093169290920491820184900484028101840190945280845260609392830182828015610d3f5780601f10610d1457610100808354040283529160200191610d3f565b820191906000526020600020905b815481529060010190602001808311610d2257829003601f168201915b505050505090506060610d506108c8565b9050805160001415610d64575090506104a2565b815115610d96578082604051602001610d7e929190611ed0565b604051602081830303815290604052925050506104a2565b80610da085611309565b604051602001610db1929190611ed0565b60405160208183030381529060405292505050919050565b6001600160a01b03918216600090815260056020908152604080832093909416825291909152205460ff1690565b610dff610ee4565b6001600160a01b0316610e10610a9a565b6001600160a01b031614610e365760405162461bcd60e51b815260040161056490612331565b6001600160a01b038116610e5c5760405162461bcd60e51b815260040161056490612040565b600a546040516001600160a01b038084169216907f8be0079c531659141344cd1fd0a4f28419497f9722a3daafe3b4186f6b6457e090600090a3600a805473ffffffffffffffffffffffffffffffffffffffff19166001600160a01b0392909216919091179055565b6000908152600d602052604090205490565b60006106b3600283611418565b3390565b6000818152600460205260409020805473ffffffffffffffffffffffffffffffffffffffff19166001600160a01b0384169081179091558190610f2a8261086a565b6001600160a01b03167f8c5be1e5ebec7d5bd14f71427d1e84f3dd0314c0f7b2291e5b200ac8c7c3b92560405160405180910390a45050565b60006106b38261110e565b6000610f7982610ed7565b610f955760405162461bcd60e51b815260040161056490612168565b6000610fa08361086a565b9050806001600160a01b0316846001600160a01b03161480610fdb5750836001600160a01b0316610fd08461053d565b6001600160a01b0316145b8061076d575061076d8185610dc9565b826001600160a01b0316610ffe8261086a565b6001600160a01b0316146110245760405162461bcd60e51b815260040161056490612366565b6001600160a01b03821661104a5760405162461bcd60e51b8152600401610564906120d4565b61105583838361062e565b611060600082610ee8565b6001600160a01b03831660009081526001602052604090206110829082611424565b506001600160a01b03821660009081526001602052604090206110a59082611430565b506110b26002828461143c565b5080826001600160a01b0316846001600160a01b03167fddf252ad1be2c89b69c2b068fc378daa952ba7f163c4a11628f55a4df523b3ef60405160405180910390a4505050565b60006106b08383611452565b80546001019055565b5490565b6001600160a01b0382166111385760405162461bcd60e51b8152600401610564906122b0565b61114181610ed7565b1561115e5760405162461bcd60e51b81526004016105649061209d565b61116a6000838361062e565b6001600160a01b038216600090815260016020526040902061118c9082611430565b506111996002828461143c565b5060405181906001600160a01b038416906000907fddf252ad1be2c89b69c2b068fc378daa952ba7f163c4a11628f55a4df523b3ef908290a45050565b60006111e18261086a565b90506111ef8160008461062e565b6111fa600083610ee8565b600082815260086020526040902054600260001961010060018416150201909116041561123857600082815260086020526040812061123891611aac565b6001600160a01b038116600090815260016020526040902061125a9083611424565b50611266600283611497565b5060405182906000906001600160a01b038416907fddf252ad1be2c89b69c2b068fc378daa952ba7f163c4a11628f55a4df523b3ef908390a45050565b60008080806112b286866114a3565b9097909650945050505050565b60006112cc8484846114ff565b90505b9392505050565b6112e1848484610feb565b6112ed8484848461155e565b610c6b5760405162461bcd60e51b815260040161056490611fe3565b60608161134a575060408051808201909152600181527f300000000000000000000000000000000000000000000000000000000000000060208201526104a2565b8160005b811561136257600101600a8204915061134e565b60608167ffffffffffffffff8111801561137b57600080fd5b506040519080825280601f01601f1916602001820160405280156113a6576020820181803683370190505b50859350905060001982015b831561140f57600a840660300160f81b828280600190039350815181106113d557fe5b60200101907effffffffffffffffffffffffffffffffffffffffffffffffffffffffffffff1916908160001a905350600a840493506113b2565b50949350505050565b60006106b0838361167f565b60006106b08383611697565b60006106b0838361175d565b60006112cc84846001600160a01b0385166117a7565b815460009082106114755760405162461bcd60e51b815260040161056490611fa1565b82600001828154811061148457fe5b9060005260206000200154905092915050565b60006106b0838361183e565b8154600090819083106114c85760405162461bcd60e51b81526004016105649061226e565b60008460000184815481106114d957fe5b906000526020600020906002020190508060000154816001015492509250509250929050565b6000828152600184016020526040812054828161152f5760405162461bcd60e51b81526004016105649190611f8e565b5084600001600182038154811061154257fe5b9060005260206000209060020201600101549150509392505050565b6000611572846001600160a01b0316611912565b61157e5750600161076d565b6060611630630a85bd0160e11b611593610ee4565b8887876040516024016115a99493929190611f13565b604051602081830303815290604052907bffffffffffffffffffffffffffffffffffffffffffffffffffffffff19166020820180517bffffffffffffffffffffffffffffffffffffffffffffffffffffffff83818316178352505050506040518060600160405280603281526020016125fc603291396001600160a01b0388169190611918565b90506000818060200190518101906116489190611e33565b7fffffffff0000000000000000000000000000000000000000000000000000000016630a85bd0160e11b1492505050949350505050565b60009081526001919091016020526040902054151590565b6000818152600183016020526040812054801561175357835460001980830191908101906000908790839081106116ca57fe5b90600052602060002001549050808760000184815481106116e757fe5b60009182526020808320909101929092558281526001898101909252604090209084019055865487908061171757fe5b600190038181906000526020600020016000905590558660010160008781526020019081526020016000206000905560019450505050506106b3565b60009150506106b3565b6000611769838361167f565b61179f575081546001818101845560008481526020808220909301849055845484825282860190935260409020919091556106b3565b5060006106b3565b60008281526001840160205260408120548061180c5750506040805180820182528381526020808201848152865460018181018955600089815284812095516002909302909501918255915190820155865486845281880190925292909120556112cf565b8285600001600183038154811061181f57fe5b90600052602060002090600202016001018190555060009150506112cf565b60008181526001830160205260408120548015611753578354600019808301919081019060009087908390811061187157fe5b906000526020600020906002020190508087600001848154811061189157fe5b6000918252602080832084546002909302019182556001938401549184019190915583548252898301905260409020908401905586548790806118d057fe5b60008281526020808220600260001990940193840201828155600190810183905592909355888152898201909252604082209190915594506106b39350505050565b3b151590565b60606112cc84846000858561192c85611912565b6119485760405162461bcd60e51b8152600401610564906124da565b60006060866001600160a01b031685876040516119659190611eb4565b60006040518083038185875af1925050503d80600081146119a2576040519150601f19603f3d011682016040523d82523d6000602084013e6119a7565b606091505b50915091506119b78282866119c2565b979650505050505050565b606083156119d15750816112cf565b8251156119e15782518084602001fd5b8160405162461bcd60e51b81526004016105649190611f8e565b600183019183908215611a7e5791602002820160005b83821115611a4f57835183826101000a81548160ff021916908360ff1602179055509260200192600101602081600001049283019260010302611a11565b8015611a7c5782816101000a81549060ff0219169055600101602081600001049283019260010302611a4f565b505b50611a8a929150611af0565b5090565b60405180608001604052806004906020820280368337509192915050565b50805460018160011615610100020316600290046000825580601f10611ad257506107d8565b601f0160209004906000526020600020908101906107d89190611b09565b5b80821115611a8a57805460ff19168155600101611af1565b5b80821115611a8a5760008155600101611b0a565b80356001600160a01b03811681146106b357600080fd5b803560ff811681146106b357600080fd5b600060208284031215611b57578081fd5b6106b08383611b1e565b60008060408385031215611b73578081fd5b611b7d8484611b1e565b9150611b8c8460208501611b1e565b90509250929050565b600080600060608486031215611ba9578081fd5b8335611bb4816125b8565b92506020840135611bc4816125b8565b929592945050506040919091013590565b60008060008060808587031215611bea578081fd5b611bf48686611b1e565b93506020611c0487828801611b1e565b935060408601359250606086013567ffffffffffffffff80821115611c27578384fd5b818801915088601f830112611c3a578384fd5b813581811115611c48578485fd5b611c5a601f8201601f19168501612528565b91508082528984828501011115611c6f578485fd5b8084840185840137810190920192909252939692955090935050565b60008060008060e08587031215611ca0578384fd5b8435611cab816125b8565b93506020603f86018713611cbd578384fd5b6004611cd0611ccb8261256f565b612528565b8083890160a08a018b811115611ce4578889fd5b885b85811015611d0a57611cf88d84611b35565b85529386019391860191600101611ce6565b50989b919a505096359760c001359695505050505050565b60008060408385031215611d34578182fd5b611d3e8484611b1e565b915060208301358015158114611d52578182fd5b809150509250929050565b60008060408385031215611d6f578182fd5b611d798484611b1e565b946020939093013593505050565b60006020808385031215611d99578182fd5b823567ffffffffffffffff811115611daf578283fd5b8301601f81018513611dbf578283fd5b8035611dcd611ccb8261254f565b8181528381019083850185840285018601891015611de9578687fd5b8694505b83851015611e0b578035835260019490940193918501918501611ded565b50979650505050505050565b600060208284031215611e28578081fd5b81356112cf816125cd565b600060208284031215611e44578081fd5b81516112cf816125cd565b600060208284031215611e60578081fd5b5035919050565b60008060408385031215611e79578182fd5b50508035926020909101359150565b60008151808452611ea081602086016020860161258c565b601f01601f19169290920160200192915050565b60008251611ec681846020870161258c565b9190910192915050565b60008351611ee281846020880161258c565b835190830190611ef681836020880161258c565b01949350505050565b6001600160a01b0391909116815260200190565b60006001600160a01b03808716835280861660208401525083604083015260806060830152611f456080830184611e88565b9695505050505050565b60808101818360005b6004811015611f7a57815160ff16835260209283019290910190600101611f58565b50505092915050565b901515815260200190565b6000602082526106b06020830184611e88565b60208082526022908201527f456e756d657261626c655365743a20696e646578206f7574206f6620626f756e604082015261647360f01b606082015260800190565b60208082526032908201527f4552433732313a207472616e7366657220746f206e6f6e20455243373231526560408201527f63656976657220696d706c656d656e7465720000000000000000000000000000606082015260800190565b60208082526026908201527f4f776e61626c653a206e6577206f776e657220697320746865207a65726f206160408201527f6464726573730000000000000000000000000000000000000000000000000000606082015260800190565b6020808252601c908201527f4552433732313a20746f6b656e20616c7265616479206d696e74656400000000604082015260600190565b60208082526024908201527f4552433732313a207472616e7366657220746f20746865207a65726f2061646460408201527f7265737300000000000000000000000000000000000000000000000000000000606082015260800190565b60208082526019908201527f4552433732313a20617070726f766520746f2063616c6c657200000000000000604082015260600190565b6020808252602c908201527f4552433732313a206f70657261746f7220717565727920666f72206e6f6e657860408201526b34b9ba32b73a103a37b5b2b760a11b606082015260800190565b60208082526038908201527f4552433732313a20617070726f76652063616c6c6572206973206e6f74206f7760408201527f6e6572206e6f7220617070726f76656420666f7220616c6c0000000000000000606082015260800190565b6020808252602a908201527f4552433732313a2062616c616e636520717565727920666f7220746865207a6560408201527f726f206164647265737300000000000000000000000000000000000000000000606082015260800190565b60208082526022908201527f456e756d657261626c654d61703a20696e646578206f7574206f6620626f756e604082015261647360f01b606082015260800190565b6020808252818101527f4552433732313a206d696e7420746f20746865207a65726f2061646472657373604082015260600190565b6020808252602c908201527f4552433732313a20617070726f76656420717565727920666f72206e6f6e657860408201526b34b9ba32b73a103a37b5b2b760a11b606082015260800190565b6020808252818101527f4f776e61626c653a2063616c6c6572206973206e6f7420746865206f776e6572604082015260600190565b60208082526029908201527f4552433732313a207472616e73666572206f6620746f6b656e2074686174206960408201527f73206e6f74206f776e0000000000000000000000000000000000000000000000606082015260800190565b6020808252602f908201527f4552433732314d657461646174613a2055524920717565727920666f72206e6f60408201527f6e6578697374656e7420746f6b656e0000000000000000000000000000000000606082015260800190565b60208082526021908201527f4552433732313a20617070726f76616c20746f2063757272656e74206f776e6560408201527f7200000000000000000000000000000000000000000000000000000000000000606082015260800190565b60208082526031908201527f4552433732313a207472616e736665722063616c6c6572206973206e6f74206f60408201527f776e6572206e6f7220617070726f766564000000000000000000000000000000606082015260800190565b6020808252601d908201527f416464726573733a2063616c6c20746f206e6f6e2d636f6e7472616374000000604082015260600190565b90815260200190565b60ff91909116815260200190565b60405181810167ffffffffffffffff8111828210171561254757600080fd5b604052919050565b600067ffffffffffffffff821115612565578081fd5b5060209081020190565b600067ffffffffffffffff821115612585578081fd5b5060200290565b60005b838110156125a757818101518382015260200161258f565b83811115610c6b5750506000910152565b6001600160a01b03811681146107d857600080fd5b7fffffffff00000000000000000000000000000000000000000000000000000000811681146107d857600080fdfe4552433732313a207472616e7366657220746f206e6f6e20455243373231526563656976657220696d706c656d656e7465724552433732313a206f776e657220717565727920666f72206e6f6e6578697374656e7420746f6b656ea26469706673582212200e4bf5f7ad683fd4304d1cdee75e7446ff3612ddddbd15328eb76d4ed2d8ab3a64736f6c634300060c0033",
  "immutableReferences": {},
  "source": "// SPDX-License-Identifier: MIT\n\npragma solidity 0.6.12;\npragma experimental ABIEncoderV2;\n\nimport \"@openzeppelin/contracts/token/ERC721/ERC721.sol\";\nimport \"@openzeppelin/contracts/utils/Counters.sol\";\nimport \"@openzeppelin/contracts/access/Ownable.sol\";\n\ncontract LotteryNFT is ERC721, Ownable {\n    using Counters for Counters.Counter;\n    Counters.Counter private _tokenIds;\n\n    mapping (uint256 => uint8[4]) public lotteryInfo;\n    mapping (uint256 => uint256) public lotteryAmount;\n    mapping (uint256 => uint256) public issueIndex;\n    mapping (uint256 => bool) public claimInfo;\n\n    constructor() public ERC721(\"GoldenGoose Lottery Ticket\", \"GLT\") {}\n\n    function newLotteryItem(address player, uint8[4] memory _lotteryNumbers, uint256 _amount, uint256 _issueIndex)\n        external onlyOwner\n        returns (uint256)\n    {\n        _tokenIds.increment();\n\n        uint256 newItemId = _tokenIds.current();\n        _mint(player, newItemId);\n        lotteryInfo[newItemId] = _lotteryNumbers;\n        lotteryAmount[newItemId] = _amount;\n        issueIndex[newItemId] = _issueIndex;\n        // claimInfo[newItemId] = false; default is false here\n        // _setTokenURI(newItemId, tokenURI);\n\n        return newItemId;\n    }\n\n    function getLotteryNumbers(uint256 tokenId) external view returns (uint8[4] memory) {\n        return lotteryInfo[tokenId];\n    }\n    function getLotteryAmount(uint256 tokenId) external view returns (uint256) {\n        return lotteryAmount[tokenId];\n    }\n    function getLotteryIssueIndex(uint256 tokenId) external view returns (uint256) {\n        return issueIndex[tokenId];\n    }\n    function claimReward(uint256 tokenId) external onlyOwner {\n        claimInfo[tokenId] = true;\n    }\n    function multiClaimReward(uint256[] memory tokenIds) external onlyOwner {\n        for (uint i = 0; i < tokenIds.length; i++) {\n            claimInfo[tokenIds[i]] = true;\n        }\n    }\n    function burn(uint256 tokenId) external onlyOwner {\n        _burn(tokenId);\n    }\n    function getClaimStatus(uint256 tokenId) external view returns (bool) {\n        return claimInfo[tokenId];\n    }\n}\n",
  "sourcePath": "/home/koko/MasterchefV2_token/contracts/lottery/LotteryNFT.sol",
  "compiler": {
    "name": "solc",
    "version": "0.6.12+commit.27d51765.Emscripten.clang"
  },
  "schemaVersion": "3.4.10",
  "updatedAt": "2023-02-22T18:23:07.961Z",
  "devdoc": {
    "kind": "dev",
    "methods": {
      "approve(address,uint256)": {
        "details": "See {IERC721-approve}."
      },
      "balanceOf(address)": {
        "details": "See {IERC721-balanceOf}."
      },
      "baseURI()": {
        "details": "Returns the base URI set via {_setBaseURI}. This will be automatically added as a prefix in {tokenURI} to each token's URI, or to the token ID if no specific URI is set for that token ID."
      },
      "getApproved(uint256)": {
        "details": "See {IERC721-getApproved}."
      },
      "isApprovedForAll(address,address)": {
        "details": "See {IERC721-isApprovedForAll}."
      },
      "name()": {
        "details": "See {IERC721Metadata-name}."
      },
      "owner()": {
        "details": "Returns the address of the current owner."
      },
      "ownerOf(uint256)": {
        "details": "See {IERC721-ownerOf}."
      },
      "renounceOwnership()": {
        "details": "Leaves the contract without owner. It will not be possible to call `onlyOwner` functions anymore. Can only be called by the current owner. NOTE: Renouncing ownership will leave the contract without an owner, thereby removing any functionality that is only available to the owner."
      },
      "safeTransferFrom(address,address,uint256)": {
        "details": "See {IERC721-safeTransferFrom}."
      },
      "safeTransferFrom(address,address,uint256,bytes)": {
        "details": "See {IERC721-safeTransferFrom}."
      },
      "setApprovalForAll(address,bool)": {
        "details": "See {IERC721-setApprovalForAll}."
      },
      "supportsInterface(bytes4)": {
        "details": "See {IERC165-supportsInterface}. Time complexity O(1), guaranteed to always use less than 30 000 gas."
      },
      "symbol()": {
        "details": "See {IERC721Metadata-symbol}."
      },
      "tokenByIndex(uint256)": {
        "details": "See {IERC721Enumerable-tokenByIndex}."
      },
      "tokenOfOwnerByIndex(address,uint256)": {
        "details": "See {IERC721Enumerable-tokenOfOwnerByIndex}."
      },
      "tokenURI(uint256)": {
        "details": "See {IERC721Metadata-tokenURI}."
      },
      "totalSupply()": {
        "details": "See {IERC721Enumerable-totalSupply}."
      },
      "transferFrom(address,address,uint256)": {
        "details": "See {IERC721-transferFrom}."
      },
      "transferOwnership(address)": {
        "details": "Transfers ownership of the contract to a new account (`newOwner`). Can only be called by the current owner."
      }
    },
    "version": 1
  },
  "userdoc": {
    "kind": "user",
    "methods": {},
    "version": 1
  }
}