{
  "contractName": "MasterChefV2",
  "abi": [
    {
      "inputs": [
        {
          "internalType": "contract EggToken",
          "name": "_egg",
          "type": "address"
        },
        {
          "internalType": "address",
          "name": "_devaddr",
          "type": "address"
        },
        {
          "internalType": "address",
          "name": "_feeAddress",
          "type": "address"
        },
        {
          "internalType": "uint256",
          "name": "_eggPerBlock",
          "type": "uint256"
        },
        {
          "internalType": "uint256",
          "name": "_startBlock",
          "type": "uint256"
        }
      ],
      "stateMutability": "nonpayable",
      "type": "constructor"
    },
    {
      "anonymous": false,
      "inputs": [
        {
          "indexed": true,
          "internalType": "address",
          "name": "user",
          "type": "address"
        },
        {
          "indexed": true,
          "internalType": "uint256",
          "name": "pid",
          "type": "uint256"
        },
        {
          "indexed": false,
          "internalType": "uint256",
          "name": "amount",
          "type": "uint256"
        }
      ],
      "name": "Deposit",
      "type": "event"
    },
    {
      "anonymous": false,
      "inputs": [
        {
          "indexed": true,
          "internalType": "address",
          "name": "user",
          "type": "address"
        },
        {
          "indexed": true,
          "internalType": "uint256",
          "name": "pid",
          "type": "uint256"
        },
        {
          "indexed": false,
          "internalType": "uint256",
          "name": "amount",
          "type": "uint256"
        }
      ],
      "name": "EmergencyWithdraw",
      "type": "event"
    },
    {
      "anonymous": false,
      "inputs": [
        {
          "indexed": true,
          "internalType": "address",
          "name": "previousOwner",
          "type": "address"
        },
        {
          "indexed": true,
          "internalType": "address",
          "name": "newOwner",
          "type": "address"
        }
      ],
      "name": "OwnershipTransferred",
      "type": "event"
    },
    {
      "anonymous": false,
      "inputs": [
        {
          "indexed": true,
          "internalType": "address",
          "name": "user",
          "type": "address"
        },
        {
          "indexed": true,
          "internalType": "address",
          "name": "newAddress",
          "type": "address"
        }
      ],
      "name": "SetDevAddress",
      "type": "event"
    },
    {
      "anonymous": false,
      "inputs": [
        {
          "indexed": true,
          "internalType": "address",
          "name": "user",
          "type": "address"
        },
        {
          "indexed": true,
          "internalType": "address",
          "name": "newAddress",
          "type": "address"
        }
      ],
      "name": "SetFeeAddress",
      "type": "event"
    },
    {
      "anonymous": false,
      "inputs": [
        {
          "indexed": true,
          "internalType": "address",
          "name": "user",
          "type": "address"
        },
        {
          "indexed": false,
          "internalType": "uint256",
          "name": "goosePerBlock",
          "type": "uint256"
        }
      ],
      "name": "UpdateEmissionRate",
      "type": "event"
    },
    {
      "anonymous": false,
      "inputs": [
        {
          "indexed": true,
          "internalType": "address",
          "name": "user",
          "type": "address"
        },
        {
          "indexed": true,
          "internalType": "uint256",
          "name": "pid",
          "type": "uint256"
        },
        {
          "indexed": false,
          "internalType": "uint256",
          "name": "amount",
          "type": "uint256"
        }
      ],
      "name": "Withdraw",
      "type": "event"
    },
    {
      "inputs": [],
      "name": "BONUS_MULTIPLIER",
      "outputs": [
        {
          "internalType": "uint256",
          "name": "",
          "type": "uint256"
        }
      ],
      "stateMutability": "view",
      "type": "function",
      "constant": true
    },
    {
      "inputs": [],
      "name": "devaddr",
      "outputs": [
        {
          "internalType": "address",
          "name": "",
          "type": "address"
        }
      ],
      "stateMutability": "view",
      "type": "function",
      "constant": true
    },
    {
      "inputs": [],
      "name": "egg",
      "outputs": [
        {
          "internalType": "contract EggToken",
          "name": "",
          "type": "address"
        }
      ],
      "stateMutability": "view",
      "type": "function",
      "constant": true
    },
    {
      "inputs": [],
      "name": "eggPerBlock",
      "outputs": [
        {
          "internalType": "uint256",
          "name": "",
          "type": "uint256"
        }
      ],
      "stateMutability": "view",
      "type": "function",
      "constant": true
    },
    {
      "inputs": [],
      "name": "feeAddress",
      "outputs": [
        {
          "internalType": "address",
          "name": "",
          "type": "address"
        }
      ],
      "stateMutability": "view",
      "type": "function",
      "constant": true
    },
    {
      "inputs": [],
      "name": "owner",
      "outputs": [
        {
          "internalType": "address",
          "name": "",
          "type": "address"
        }
      ],
      "stateMutability": "view",
      "type": "function",
      "constant": true
    },
    {
      "inputs": [
        {
          "internalType": "contract IBEP20",
          "name": "",
          "type": "address"
        }
      ],
      "name": "poolExistence",
      "outputs": [
        {
          "internalType": "bool",
          "name": "",
          "type": "bool"
        }
      ],
      "stateMutability": "view",
      "type": "function",
      "constant": true
    },
    {
      "inputs": [
        {
          "internalType": "uint256",
          "name": "",
          "type": "uint256"
        }
      ],
      "name": "poolInfo",
      "outputs": [
        {
          "internalType": "contract IBEP20",
          "name": "lpToken",
          "type": "address"
        },
        {
          "internalType": "uint256",
          "name": "allocPoint",
          "type": "uint256"
        },
        {
          "internalType": "uint256",
          "name": "lastRewardBlock",
          "type": "uint256"
        },
        {
          "internalType": "uint256",
          "name": "accEggPerShare",
          "type": "uint256"
        },
        {
          "internalType": "uint16",
          "name": "depositFeeBP",
          "type": "uint16"
        }
      ],
      "stateMutability": "view",
      "type": "function",
      "constant": true
    },
    {
      "inputs": [],
      "name": "renounceOwnership",
      "outputs": [],
      "stateMutability": "nonpayable",
      "type": "function"
    },
    {
      "inputs": [],
      "name": "startBlock",
      "outputs": [
        {
          "internalType": "uint256",
          "name": "",
          "type": "uint256"
        }
      ],
      "stateMutability": "view",
      "type": "function",
      "constant": true
    },
    {
      "inputs": [],
      "name": "totalAllocPoint",
      "outputs": [
        {
          "internalType": "uint256",
          "name": "",
          "type": "uint256"
        }
      ],
      "stateMutability": "view",
      "type": "function",
      "constant": true
    },
    {
      "inputs": [
        {
          "internalType": "address",
          "name": "newOwner",
          "type": "address"
        }
      ],
      "name": "transferOwnership",
      "outputs": [],
      "stateMutability": "nonpayable",
      "type": "function"
    },
    {
      "inputs": [
        {
          "internalType": "uint256",
          "name": "",
          "type": "uint256"
        },
        {
          "internalType": "address",
          "name": "",
          "type": "address"
        }
      ],
      "name": "userInfo",
      "outputs": [
        {
          "internalType": "uint256",
          "name": "amount",
          "type": "uint256"
        },
        {
          "internalType": "uint256",
          "name": "rewardDebt",
          "type": "uint256"
        }
      ],
      "stateMutability": "view",
      "type": "function",
      "constant": true
    },
    {
      "inputs": [],
      "name": "poolLength",
      "outputs": [
        {
          "internalType": "uint256",
          "name": "",
          "type": "uint256"
        }
      ],
      "stateMutability": "view",
      "type": "function",
      "constant": true
    },
    {
      "inputs": [
        {
          "internalType": "uint256",
          "name": "_allocPoint",
          "type": "uint256"
        },
        {
          "internalType": "contract IBEP20",
          "name": "_lpToken",
          "type": "address"
        },
        {
          "internalType": "uint16",
          "name": "_depositFeeBP",
          "type": "uint16"
        },
        {
          "internalType": "bool",
          "name": "_withUpdate",
          "type": "bool"
        }
      ],
      "name": "add",
      "outputs": [],
      "stateMutability": "nonpayable",
      "type": "function"
    },
    {
      "inputs": [
        {
          "internalType": "uint256",
          "name": "_pid",
          "type": "uint256"
        },
        {
          "internalType": "uint256",
          "name": "_allocPoint",
          "type": "uint256"
        },
        {
          "internalType": "uint16",
          "name": "_depositFeeBP",
          "type": "uint16"
        },
        {
          "internalType": "bool",
          "name": "_withUpdate",
          "type": "bool"
        }
      ],
      "name": "set",
      "outputs": [],
      "stateMutability": "nonpayable",
      "type": "function"
    },
    {
      "inputs": [
        {
          "internalType": "uint256",
          "name": "_from",
          "type": "uint256"
        },
        {
          "internalType": "uint256",
          "name": "_to",
          "type": "uint256"
        }
      ],
      "name": "getMultiplier",
      "outputs": [
        {
          "internalType": "uint256",
          "name": "",
          "type": "uint256"
        }
      ],
      "stateMutability": "pure",
      "type": "function",
      "constant": true
    },
    {
      "inputs": [
        {
          "internalType": "uint256",
          "name": "_pid",
          "type": "uint256"
        },
        {
          "internalType": "address",
          "name": "_user",
          "type": "address"
        }
      ],
      "name": "pendingEgg",
      "outputs": [
        {
          "internalType": "uint256",
          "name": "",
          "type": "uint256"
        }
      ],
      "stateMutability": "view",
      "type": "function",
      "constant": true
    },
    {
      "inputs": [],
      "name": "massUpdatePools",
      "outputs": [],
      "stateMutability": "nonpayable",
      "type": "function"
    },
    {
      "inputs": [
        {
          "internalType": "uint256",
          "name": "_pid",
          "type": "uint256"
        }
      ],
      "name": "updatePool",
      "outputs": [],
      "stateMutability": "nonpayable",
      "type": "function"
    },
    {
      "inputs": [
        {
          "internalType": "uint256",
          "name": "_pid",
          "type": "uint256"
        },
        {
          "internalType": "uint256",
          "name": "_amount",
          "type": "uint256"
        }
      ],
      "name": "deposit",
      "outputs": [],
      "stateMutability": "nonpayable",
      "type": "function"
    },
    {
      "inputs": [
        {
          "internalType": "uint256",
          "name": "_pid",
          "type": "uint256"
        },
        {
          "internalType": "uint256",
          "name": "_amount",
          "type": "uint256"
        }
      ],
      "name": "withdraw",
      "outputs": [],
      "stateMutability": "nonpayable",
      "type": "function"
    },
    {
      "inputs": [
        {
          "internalType": "uint256",
          "name": "_pid",
          "type": "uint256"
        }
      ],
      "name": "emergencyWithdraw",
      "outputs": [],
      "stateMutability": "nonpayable",
      "type": "function"
    },
    {
      "inputs": [
        {
          "internalType": "address",
          "name": "_devaddr",
          "type": "address"
        }
      ],
      "name": "dev",
      "outputs": [],
      "stateMutability": "nonpayable",
      "type": "function"
    },
    {
      "inputs": [
        {
          "internalType": "address",
          "name": "_feeAddress",
          "type": "address"
        }
      ],
      "name": "setFeeAddress",
      "outputs": [],
      "stateMutability": "nonpayable",
      "type": "function"
    },
    {
      "inputs": [
        {
          "internalType": "uint256",
          "name": "_eggPerBlock",
          "type": "uint256"
        }
      ],
      "name": "updateEmissionRate",
      "outputs": [],
      "stateMutability": "nonpayable",
      "type": "function"
    }
  ],
  "bytecode": "0x6080604052600060085534801561001557600080fd5b50604051611eb2380380611eb2833981810160405260a081101561003857600080fd5b5080516020820151604083015160608401516080909401519293919290919060006100616100fb565b600080546001600160a01b0319166001600160a01b0383169081178255604051929350917f8be0079c531659141344cd1fd0a4f28419497f9722a3daafe3b4186f6b6457e0908290a35060018055600280546001600160a01b03199081166001600160a01b0397881617909155600380548216958716959095179094556005805490941692909416919091179091556004556009556100ff565b3390565b611da48061010e6000396000f3fe608060405234801561001057600080fd5b506004361061018e5760003560e01c80638aa28550116100de578063c06abfc711610097578063d963842211610071578063d963842214610417578063e2bbb1581461044c578063f2fde38b1461046f578063f456426f146104955761018e565b8063c06abfc7146103cd578063cbd258b5146103d5578063d49e77cd1461040f5761018e565b80638aa28550146103275780638d88a90e1461032f5780638da5cb5b146103555780638dbb1e3a1461035d57806393f1a40b14610380578063a1a4d4a4146103c55761018e565b806348cd4cb11161014b578063630b5ba111610125578063630b5ba1146102b3578063715018a6146102bb57806384e82a33146102c35780638705fcd4146103015761018e565b806348cd4cb11461027157806351eb05a6146102795780635312ea8e146102965761018e565b8063081e3eda146101935780630ba84cd2146101ad5780631526fe27146101cc57806317caf6f114610222578063412753581461022a578063441a3e701461024e575b600080fd5b61019b6104c1565b60408051918252519081900360200190f35b6101ca600480360360208110156101c357600080fd5b50356104c7565b005b6101e9600480360360208110156101e257600080fd5b503561056f565b604080516001600160a01b039096168652602086019490945284840192909252606084015261ffff166080830152519081900360a00190f35b61019b6105bb565b6102326105c1565b604080516001600160a01b039092168252519081900360200190f35b6101ca6004803603604081101561026457600080fd5b50803590602001356105d0565b61019b610793565b6101ca6004803603602081101561028f57600080fd5b5035610799565b6101ca600480360360208110156102ac57600080fd5b50356109cf565b6101ca610acf565b6101ca610af2565b6101ca600480360360808110156102d957600080fd5b508035906001600160a01b036020820135169061ffff60408201351690606001351515610b9e565b6101ca6004803603602081101561031757600080fd5b50356001600160a01b0316610e34565b61019b610edf565b6101ca6004803603602081101561034557600080fd5b50356001600160a01b0316610ee4565b610232610f7b565b61019b6004803603604081101561037357600080fd5b5080359060200135610f8a565b6103ac6004803603604081101561039657600080fd5b50803590602001356001600160a01b0316610fa4565b6040805192835260208301919091528051918290030190f35b61019b610fc8565b610232610fce565b6103fb600480360360208110156103eb57600080fd5b50356001600160a01b0316610fdd565b604080519115158252519081900360200190f35b610232610ff2565b6101ca6004803603608081101561042d57600080fd5b5080359060208101359061ffff60408201351690606001351515611001565b6101ca6004803603604081101561046257600080fd5b508035906020013561115b565b6101ca6004803603602081101561048557600080fd5b50356001600160a01b0316611337565b61019b600480360360408110156104ab57600080fd5b50803590602001356001600160a01b0316611439565b60065490565b6104cf611597565b6001600160a01b03166104e0610f7b565b6001600160a01b031614610529576040805162461bcd60e51b81526020600482018190526024820152600080516020611d4f833981519152604482015290519081900360640190fd5b610531610acf565b600481905560408051828152905133917fe2492e003bbe8afa53088b406f0c1cb5d9e280370fc72a74cf116ffd343c4053919081900360200190a250565b6006818154811061057c57fe5b6000918252602090912060059091020180546001820154600283015460038401546004909401546001600160a01b0390931694509092909161ffff1685565b60085481565b6005546001600160a01b031681565b60026001541415610628576040805162461bcd60e51b815260206004820152601f60248201527f5265656e7472616e637947756172643a207265656e7472616e742063616c6c00604482015290519081900360640190fd5b600260018190555060006006838154811061063f57fe5b6000918252602080832086845260078252604080852033865290925292208054600590920290920192508311156106b2576040805162461bcd60e51b81526020600482015260126024820152711dda5d1a191c985dce881b9bdd0819dbdbd960721b604482015290519081900360640190fd5b6106bb84610799565b60006106f582600101546106ef64e8d4a510006106e98760030154876000015461159b90919063ffffffff16565b906115f4565b9061165b565b905080156107075761070733826116b8565b8315610731578154610719908561165b565b82558254610731906001600160a01b031633866118a1565b6003830154825461074c9164e8d4a51000916106e99161159b565b6001830155604080518581529051869133917ff279e6a1f5e320cca91135676d9cb6e44ca8a08c0b88342bcdb1144f6511b5689181900360200190a3505060018055505050565b60095481565b6000600682815481106107a857fe5b90600052602060002090600502019050806002015443116107c957506109cc565b8054604080516370a0823160e01b815230600482015290516000926001600160a01b0316916370a08231916024808301926020929190829003018186803b15801561081357600080fd5b505afa158015610827573d6000803e3d6000fd5b505050506040513d602081101561083d57600080fd5b5051905080158061085057506001820154155b156108625750436002909101556109cc565b6000610872836002015443610f8a565b9050600061089f6008546106e986600101546108996004548761159b90919063ffffffff16565b9061159b565b6002546003549192506001600160a01b03908116916340c10f1991166108c684600a6115f4565b6040518363ffffffff1660e01b815260040180836001600160a01b0316815260200182815260200192505050600060405180830381600087803b15801561090c57600080fd5b505af1158015610920573d6000803e3d6000fd5b5050600254604080516340c10f1960e01b81523060048201526024810186905290516001600160a01b0390921693506340c10f19925060448082019260009290919082900301818387803b15801561097757600080fd5b505af115801561098b573d6000803e3d6000fd5b505050506109b96109ae846106e964e8d4a510008561159b90919063ffffffff16565b6003860154906118f8565b6003850155505043600290920191909155505b50565b60026001541415610a27576040805162461bcd60e51b815260206004820152601f60248201527f5265656e7472616e637947756172643a207265656e7472616e742063616c6c00604482015290519081900360640190fd5b6002600181905550600060068281548110610a3e57fe5b600091825260208083208584526007825260408085203380875293528420805485825560018201959095556005909302018054909450919291610a8e916001600160a01b039190911690836118a1565b604080518281529051859133917fbb757047c2b5f3974fe26b7c10f732e7bce710b0952a71082702781e62ae05959181900360200190a35050600180555050565b60065460005b81811015610aee57610ae681610799565b600101610ad5565b5050565b610afa611597565b6001600160a01b0316610b0b610f7b565b6001600160a01b031614610b54576040805162461bcd60e51b81526020600482018190526024820152600080516020611d4f833981519152604482015290519081900360640190fd5b600080546040516001600160a01b03909116907f8be0079c531659141344cd1fd0a4f28419497f9722a3daafe3b4186f6b6457e0908390a3600080546001600160a01b0319169055565b610ba6611597565b6001600160a01b0316610bb7610f7b565b6001600160a01b031614610c00576040805162461bcd60e51b81526020600482018190526024820152600080516020611d4f833981519152604482015290519081900360640190fd5b6001600160a01b0383166000908152600a6020526040902054839060ff1615610c70576040805162461bcd60e51b815260206004820152601960248201527f6e6f6e4475706c6963617465643a206475706c69636174656400000000000000604482015290519081900360640190fd5b6127108361ffff161115610cb55760405162461bcd60e51b8152600401808060200182810382526025815260200180611c6e6025913960400191505060405180910390fd5b8115610cc357610cc3610acf565b60006009544311610cd657600954610cd8565b435b600854909150610ce890876118f8565b6008556001600160a01b039485166000818152600a602090815260408083208054600160ff199091168117909155815160a081018352948552918401998a5283019384526060830182815261ffff9788166080850190815260068054938401815590935292517ff652222313e28459528d920b65115c16c04f3efc82aaedc97be59f3f377c0d3f600590920291820180546001600160a01b031916919099161790975596517ff652222313e28459528d920b65115c16c04f3efc82aaedc97be59f3f377c0d4087015590517ff652222313e28459528d920b65115c16c04f3efc82aaedc97be59f3f377c0d41860155517ff652222313e28459528d920b65115c16c04f3efc82aaedc97be59f3f377c0d42850155505091517ff652222313e28459528d920b65115c16c04f3efc82aaedc97be59f3f377c0d43909101805461ffff191691909216179055565b6005546001600160a01b03163314610e93576040805162461bcd60e51b815260206004820152601860248201527f736574466565416464726573733a20464f5242494444454e0000000000000000604482015290519081900360640190fd5b600580546001600160a01b0319166001600160a01b03831690811790915560405133907fd44190acf9d04bdb5d3a1aafff7e6dee8b40b93dfb8c5d3f0eea4b9f4539c3f790600090a350565b600181565b6003546001600160a01b03163314610f2f576040805162461bcd60e51b81526020600482015260096024820152686465763a207775743f60b81b604482015290519081900360640190fd5b600380546001600160a01b0319166001600160a01b03831690811790915560405133907f618c54559e94f1499a808aad71ee8729f8e74e8c48e979616328ce493a1a52e790600090a350565b6000546001600160a01b031690565b6000610f9b6001610899848661165b565b90505b92915050565b60076020908152600092835260408084209091529082529020805460019091015482565b60045481565b6002546001600160a01b031681565b600a6020526000908152604090205460ff1681565b6003546001600160a01b031681565b611009611597565b6001600160a01b031661101a610f7b565b6001600160a01b031614611063576040805162461bcd60e51b81526020600482018190526024820152600080516020611d4f833981519152604482015290519081900360640190fd5b6127108261ffff1611156110a85760405162461bcd60e51b8152600401808060200182810382526025815260200180611d2a6025913960400191505060405180910390fd5b80156110b6576110b6610acf565b6110f3836110ed600687815481106110ca57fe5b90600052602060002090600502016001015460085461165b90919063ffffffff16565b906118f8565b600881905550826006858154811061110757fe5b906000526020600020906005020160010181905550816006858154811061112a57fe5b906000526020600020906005020160040160006101000a81548161ffff021916908361ffff16021790555050505050565b600260015414156111b3576040805162461bcd60e51b815260206004820152601f60248201527f5265656e7472616e637947756172643a207265656e7472616e742063616c6c00604482015290519081900360640190fd5b60026001819055506000600683815481106111ca57fe5b600091825260208083208684526007825260408085203386529092529220600590910290910191506111fb84610799565b80541561124457600061123082600101546106ef64e8d4a510006106e98760030154876000015461159b90919063ffffffff16565b905080156112425761124233826116b8565b505b82156112d6578154611261906001600160a01b0316333086611952565b600482015461ffff16156112c757600482015460009061128e90612710906106e990879061ffff1661159b565b60055484549192506112ad916001600160a01b039081169116836118a1565b81546112bf9082906106ef90876118f8565b8255506112d6565b80546112d390846118f8565b81555b600382015481546112f19164e8d4a51000916106e99161159b565b6001820155604080518481529051859133917f90890809c654f11d6e72a28fa60149770a0d11ec6c92319d6ceb2bb0a4ea1a159181900360200190a35050600180555050565b61133f611597565b6001600160a01b0316611350610f7b565b6001600160a01b031614611399576040805162461bcd60e51b81526020600482018190526024820152600080516020611d4f833981519152604482015290519081900360640190fd5b6001600160a01b0381166113de5760405162461bcd60e51b8152600401808060200182810382526026815260200180611cbd6026913960400191505060405180910390fd5b600080546040516001600160a01b03808516939216917f8be0079c531659141344cd1fd0a4f28419497f9722a3daafe3b4186f6b6457e091a3600080546001600160a01b0319166001600160a01b0392909216919091179055565b6000806006848154811061144957fe5b600091825260208083208784526007825260408085206001600160a01b0389811687529084528186206005959095029092016003810154815483516370a0823160e01b815230600482015293519298509596909590949316926370a082319260248082019391829003018186803b1580156114c357600080fd5b505afa1580156114d7573d6000803e3d6000fd5b505050506040513d60208110156114ed57600080fd5b505160028501549091504311801561150457508015155b15611564576000611519856002015443610f8a565b905060006115406008546106e988600101546108996004548761159b90919063ffffffff16565b905061155f611558846106e98464e8d4a5100061159b565b85906118f8565b935050505b61158c83600101546106ef64e8d4a510006106e986886000015461159b90919063ffffffff16565b979650505050505050565b3390565b6000826115aa57506000610f9e565b828202828482816115b757fe5b0414610f9b5760405162461bcd60e51b8152600401808060200182810382526021815260200180611d096021913960400191505060405180910390fd5b600080821161164a576040805162461bcd60e51b815260206004820152601a60248201527f536166654d6174683a206469766973696f6e206279207a65726f000000000000604482015290519081900360640190fd5b81838161165357fe5b049392505050565b6000828211156116b2576040805162461bcd60e51b815260206004820152601e60248201527f536166654d6174683a207375627472616374696f6e206f766572666c6f770000604482015290519081900360640190fd5b50900390565b600254604080516370a0823160e01b815230600482015290516000926001600160a01b0316916370a08231916024808301926020929190829003018186803b15801561170357600080fd5b505afa158015611717573d6000803e3d6000fd5b505050506040513d602081101561172d57600080fd5b505190506000818311156117c4576002546040805163a9059cbb60e01b81526001600160a01b038781166004830152602482018690529151919092169163a9059cbb9160448083019260209291908290030181600087803b15801561179157600080fd5b505af11580156117a5573d6000803e3d6000fd5b505050506040513d60208110156117bb57600080fd5b50519050611849565b6002546040805163a9059cbb60e01b81526001600160a01b038781166004830152602482018790529151919092169163a9059cbb9160448083019260209291908290030181600087803b15801561181a57600080fd5b505af115801561182e573d6000803e3d6000fd5b505050506040513d602081101561184457600080fd5b505190505b8061189b576040805162461bcd60e51b815260206004820181905260248201527f736166654567675472616e736665723a207472616e73666572206661696c6564604482015290519081900360640190fd5b50505050565b604080516001600160a01b038416602482015260448082018490528251808303909101815260649091019091526020810180516001600160e01b031663a9059cbb60e01b1790526118f39084906119a8565b505050565b600082820183811015610f9b576040805162461bcd60e51b815260206004820152601b60248201527f536166654d6174683a206164646974696f6e206f766572666c6f770000000000604482015290519081900360640190fd5b604080516001600160a01b0380861660248301528416604482015260648082018490528251808303909101815260849091019091526020810180516001600160e01b03166323b872dd60e01b17905261189b9085905b60606119fd826040518060400160405280602081526020017f5361666542455032303a206c6f772d6c6576656c2063616c6c206661696c6564815250856001600160a01b0316611a599092919063ffffffff16565b8051909150156118f357808060200190516020811015611a1c57600080fd5b50516118f35760405162461bcd60e51b815260040180806020018281038252602a815260200180611c93602a913960400191505060405180910390fd5b6060611a688484600085611a72565b90505b9392505050565b606082471015611ab35760405162461bcd60e51b8152600401808060200182810382526026815260200180611ce36026913960400191505060405180910390fd5b611abc85611bc3565b611b0d576040805162461bcd60e51b815260206004820152601d60248201527f416464726573733a2063616c6c20746f206e6f6e2d636f6e7472616374000000604482015290519081900360640190fd5b60006060866001600160a01b031685876040518082805190602001908083835b60208310611b4c5780518252601f199092019160209182019101611b2d565b6001836020036101000a03801982511681845116808217855250505050505090500191505060006040518083038185875af1925050503d8060008114611bae576040519150601f19603f3d011682016040523d82523d6000602084013e611bb3565b606091505b509150915061158c828286611bc9565b3b151590565b60608315611bd8575081611a6b565b825115611be85782518084602001fd5b8160405162461bcd60e51b81526004018080602001828103825283818151815260200191508051906020019080838360005b83811015611c32578181015183820152602001611c1a565b50505050905090810190601f168015611c5f5780820380516001836020036101000a031916815260200191505b509250505060405180910390fdfe6164643a20696e76616c6964206465706f7369742066656520626173697320706f696e74735361666542455032303a204245503230206f7065726174696f6e20646964206e6f7420737563636565644f776e61626c653a206e6577206f776e657220697320746865207a65726f2061646472657373416464726573733a20696e73756666696369656e742062616c616e636520666f722063616c6c536166654d6174683a206d756c7469706c69636174696f6e206f766572666c6f777365743a20696e76616c6964206465706f7369742066656520626173697320706f696e74734f776e61626c653a2063616c6c6572206973206e6f7420746865206f776e6572a26469706673582212200906defd91178562eeefcc16fb7e98e7abeab1f6c95d430d08e88a3bf71d5f8b64736f6c634300060c0033",
  "immutableReferences": {},
  "source": "// SPDX-License-Identifier: MIT\n\npragma solidity 0.6.12;\n\nimport \"@openzeppelin/contracts/math/SafeMath.sol\";\nimport \"./libs/IBEP20.sol\";\nimport \"./libs/SafeBEP20.sol\";\nimport \"@openzeppelin/contracts/access/Ownable.sol\";\nimport \"@openzeppelin/contracts/utils/ReentrancyGuard.sol\";\n\nimport \"./EggToken.sol\";\n\n// MasterChef is the master of Egg. He can make Egg and he is a fair guy.\n//\n// Note that it's ownable and the owner wields tremendous power. The ownership\n// will be transferred to a governance smart contract once EGG is sufficiently\n// distributed and the community can show to govern itself.\n//\n// Have fun reading it. Hopefully it's bug-free. God bless.\ncontract MasterChefV2 is Ownable, ReentrancyGuard {\n    using SafeMath for uint256;\n    using SafeBEP20 for IBEP20;\n\n    // Info of each user.\n    struct UserInfo {\n        uint256 amount;         // How many LP tokens the user has provided.\n        uint256 rewardDebt;     // Reward debt. See explanation below.\n        //\n        // We do some fancy math here. Basically, any point in time, the amount of EGGs\n        // entitled to a user but is pending to be distributed is:\n        //\n        //   pending reward = (user.amount * pool.accEggPerShare) - user.rewardDebt\n        //\n        // Whenever a user deposits or withdraws LP tokens to a pool. Here's what happens:\n        //   1. The pool's `accEggPerShare` (and `lastRewardBlock`) gets updated.\n        //   2. User receives the pending reward sent to his/her address.\n        //   3. User's `amount` gets updated.\n        //   4. User's `rewardDebt` gets updated.\n    }\n\n    // Info of each pool.\n    struct PoolInfo {\n        IBEP20 lpToken;           // Address of LP token contract.\n        uint256 allocPoint;       // How many allocation points assigned to this pool. EGGs to distribute per block.\n        uint256 lastRewardBlock;  // Last block number that EGGs distribution occurs.\n        uint256 accEggPerShare;   // Accumulated EGGs per share, times 1e12. See below.\n        uint16 depositFeeBP;      // Deposit fee in basis points\n    }\n\n    // The EGG TOKEN!\n    EggToken public egg;\n    // Dev address.\n    address public devaddr;\n    // EGG tokens created per block.\n    uint256 public eggPerBlock;\n    // Bonus muliplier for early egg makers.\n    uint256 public constant BONUS_MULTIPLIER = 1;\n    // Deposit Fee address\n    address public feeAddress;\n\n    // Info of each pool.\n    PoolInfo[] public poolInfo;\n    // Info of each user that stakes LP tokens.\n    mapping(uint256 => mapping(address => UserInfo)) public userInfo;\n    // Total allocation points. Must be the sum of all allocation points in all pools.\n    uint256 public totalAllocPoint = 0;\n    // The block number when EGG mining starts.\n    uint256 public startBlock;\n\n    event Deposit(address indexed user, uint256 indexed pid, uint256 amount);\n    event Withdraw(address indexed user, uint256 indexed pid, uint256 amount);\n    event EmergencyWithdraw(address indexed user, uint256 indexed pid, uint256 amount);\n    event SetFeeAddress(address indexed user, address indexed newAddress);\n    event SetDevAddress(address indexed user, address indexed newAddress);\n    event UpdateEmissionRate(address indexed user, uint256 goosePerBlock);\n\n    constructor(\n        EggToken _egg,\n        address _devaddr,\n        address _feeAddress,\n        uint256 _eggPerBlock,\n        uint256 _startBlock\n    ) public {\n        egg = _egg;\n        devaddr = _devaddr;\n        feeAddress = _feeAddress;\n        eggPerBlock = _eggPerBlock;\n        startBlock = _startBlock;\n    }\n\n    function poolLength() external view returns (uint256) {\n        return poolInfo.length;\n    }\n\n    mapping(IBEP20 => bool) public poolExistence;\n    modifier nonDuplicated(IBEP20 _lpToken) {\n        require(poolExistence[_lpToken] == false, \"nonDuplicated: duplicated\");\n        _;\n    }\n\n    // Add a new lp to the pool. Can only be called by the owner.\n    function add(uint256 _allocPoint, IBEP20 _lpToken, uint16 _depositFeeBP, bool _withUpdate) public onlyOwner nonDuplicated(_lpToken) {\n        require(_depositFeeBP <= 10000, \"add: invalid deposit fee basis points\");\n        if (_withUpdate) {\n            massUpdatePools();\n        }\n        uint256 lastRewardBlock = block.number > startBlock ? block.number : startBlock;\n        totalAllocPoint = totalAllocPoint.add(_allocPoint);\n        poolExistence[_lpToken] = true;\n        poolInfo.push(PoolInfo({\n        lpToken : _lpToken,\n        allocPoint : _allocPoint,\n        lastRewardBlock : lastRewardBlock,\n        accEggPerShare : 0,\n        depositFeeBP : _depositFeeBP\n        }));\n    }\n\n    // Update the given pool's EGG allocation point and deposit fee. Can only be called by the owner.\n    function set(uint256 _pid, uint256 _allocPoint, uint16 _depositFeeBP, bool _withUpdate) public onlyOwner {\n        require(_depositFeeBP <= 10000, \"set: invalid deposit fee basis points\");\n        if (_withUpdate) {\n            massUpdatePools();\n        }\n        totalAllocPoint = totalAllocPoint.sub(poolInfo[_pid].allocPoint).add(_allocPoint);\n        poolInfo[_pid].allocPoint = _allocPoint;\n        poolInfo[_pid].depositFeeBP = _depositFeeBP;\n    }\n\n    // Return reward multiplier over the given _from to _to block.\n    function getMultiplier(uint256 _from, uint256 _to) public pure returns (uint256) {\n        return _to.sub(_from).mul(BONUS_MULTIPLIER);\n    }\n\n    // View function to see pending EGGs on frontend.\n    function pendingEgg(uint256 _pid, address _user) external view returns (uint256) {\n        PoolInfo storage pool = poolInfo[_pid];\n        UserInfo storage user = userInfo[_pid][_user];\n        uint256 accEggPerShare = pool.accEggPerShare;\n        uint256 lpSupply = pool.lpToken.balanceOf(address(this));\n        if (block.number > pool.lastRewardBlock && lpSupply != 0) {\n            uint256 multiplier = getMultiplier(pool.lastRewardBlock, block.number);\n            uint256 eggReward = multiplier.mul(eggPerBlock).mul(pool.allocPoint).div(totalAllocPoint);\n            accEggPerShare = accEggPerShare.add(eggReward.mul(1e12).div(lpSupply));\n        }\n        return user.amount.mul(accEggPerShare).div(1e12).sub(user.rewardDebt);\n    }\n\n    // Update reward variables for all pools. Be careful of gas spending!\n    function massUpdatePools() public {\n        uint256 length = poolInfo.length;\n        for (uint256 pid = 0; pid < length; ++pid) {\n            updatePool(pid);\n        }\n    }\n\n    // Update reward variables of the given pool to be up-to-date.\n    function updatePool(uint256 _pid) public {\n        PoolInfo storage pool = poolInfo[_pid];\n        if (block.number <= pool.lastRewardBlock) {\n            return;\n        }\n        uint256 lpSupply = pool.lpToken.balanceOf(address(this));\n        if (lpSupply == 0 || pool.allocPoint == 0) {\n            pool.lastRewardBlock = block.number;\n            return;\n        }\n        uint256 multiplier = getMultiplier(pool.lastRewardBlock, block.number);\n        uint256 eggReward = multiplier.mul(eggPerBlock).mul(pool.allocPoint).div(totalAllocPoint);\n        egg.mint(devaddr, eggReward.div(10));\n        egg.mint(address(this), eggReward);\n        pool.accEggPerShare = pool.accEggPerShare.add(eggReward.mul(1e12).div(lpSupply));\n        pool.lastRewardBlock = block.number;\n    }\n\n    // Deposit LP tokens to MasterChef for EGG allocation.\n    function deposit(uint256 _pid, uint256 _amount) public nonReentrant {\n        PoolInfo storage pool = poolInfo[_pid];\n        UserInfo storage user = userInfo[_pid][msg.sender];\n        updatePool(_pid);\n        if (user.amount > 0) {\n            uint256 pending = user.amount.mul(pool.accEggPerShare).div(1e12).sub(user.rewardDebt);\n            if (pending > 0) {\n                safeEggTransfer(msg.sender, pending);\n            }\n        }\n        if (_amount > 0) {\n            pool.lpToken.safeTransferFrom(address(msg.sender), address(this), _amount);\n            if (pool.depositFeeBP > 0) {\n                uint256 depositFee = _amount.mul(pool.depositFeeBP).div(10000);\n                pool.lpToken.safeTransfer(feeAddress, depositFee);\n                user.amount = user.amount.add(_amount).sub(depositFee);\n            } else {\n                user.amount = user.amount.add(_amount);\n            }\n        }\n        user.rewardDebt = user.amount.mul(pool.accEggPerShare).div(1e12);\n        emit Deposit(msg.sender, _pid, _amount);\n    }\n\n    // Withdraw LP tokens from MasterChef.\n    function withdraw(uint256 _pid, uint256 _amount) public nonReentrant {\n        PoolInfo storage pool = poolInfo[_pid];\n        UserInfo storage user = userInfo[_pid][msg.sender];\n        require(user.amount >= _amount, \"withdraw: not good\");\n        updatePool(_pid);\n        uint256 pending = user.amount.mul(pool.accEggPerShare).div(1e12).sub(user.rewardDebt);\n        if (pending > 0) {\n            safeEggTransfer(msg.sender, pending);\n        }\n        if (_amount > 0) {\n            user.amount = user.amount.sub(_amount);\n            pool.lpToken.safeTransfer(address(msg.sender), _amount);\n        }\n        user.rewardDebt = user.amount.mul(pool.accEggPerShare).div(1e12);\n        emit Withdraw(msg.sender, _pid, _amount);\n    }\n\n    // Withdraw without caring about rewards. EMERGENCY ONLY.\n    function emergencyWithdraw(uint256 _pid) public nonReentrant {\n        PoolInfo storage pool = poolInfo[_pid];\n        UserInfo storage user = userInfo[_pid][msg.sender];\n        uint256 amount = user.amount;\n        user.amount = 0;\n        user.rewardDebt = 0;\n        pool.lpToken.safeTransfer(address(msg.sender), amount);\n        emit EmergencyWithdraw(msg.sender, _pid, amount);\n    }\n\n    // Safe egg transfer function, just in case if rounding error causes pool to not have enough EGGs.\n    function safeEggTransfer(address _to, uint256 _amount) internal {\n        uint256 eggBal = egg.balanceOf(address(this));\n        bool transferSuccess = false;\n        if (_amount > eggBal) {\n            transferSuccess = egg.transfer(_to, eggBal);\n        } else {\n            transferSuccess = egg.transfer(_to, _amount);\n        }\n        require(transferSuccess, \"safeEggTransfer: transfer failed\");\n    }\n\n    // Update dev address by the previous dev.\n    function dev(address _devaddr) public {\n        require(msg.sender == devaddr, \"dev: wut?\");\n        devaddr = _devaddr;\n        emit SetDevAddress(msg.sender, _devaddr);\n    }\n\n    function setFeeAddress(address _feeAddress) public {\n        require(msg.sender == feeAddress, \"setFeeAddress: FORBIDDEN\");\n        feeAddress = _feeAddress;\n        emit SetFeeAddress(msg.sender, _feeAddress);\n    }\n\n    //Pancake has to add hidden dummy pools inorder to alter the emission, here we make it simple and transparent to all.\n    function updateEmissionRate(uint256 _eggPerBlock) public onlyOwner {\n        massUpdatePools();\n        eggPerBlock = _eggPerBlock;\n        emit UpdateEmissionRate(msg.sender, _eggPerBlock);\n    }\n}\n",
  "sourcePath": "/Users/mammoz/defi/penguin/penguinsmartcontract/contracts/MasterChefV2.sol",
  "compiler": {
    "name": "solc",
    "version": "0.6.12+commit.27d51765.Emscripten.clang"
  },
  "schemaVersion": "3.4.1",
  "updatedAt": "2021-05-29T10:53:30.661Z",
  "networkType": "ethereum",
  "devdoc": {
    "kind": "dev",
    "methods": {
      "owner()": {
        "details": "Returns the address of the current owner."
      },
      "renounceOwnership()": {
        "details": "Leaves the contract without owner. It will not be possible to call `onlyOwner` functions anymore. Can only be called by the current owner. NOTE: Renouncing ownership will leave the contract without an owner, thereby removing any functionality that is only available to the owner."
      },
      "transferOwnership(address)": {
        "details": "Transfers ownership of the contract to a new account (`newOwner`). Can only be called by the current owner."
      }
    },
    "version": 1
  },
  "userdoc": {
    "kind": "user",
    "methods": {},
    "version": 1
  }
}